{
	"address": "0xf6CedE4e73695F4D5037e4F8db3896a56772030f",
	"abi": [
		{
			"inputs": [
				{
					"internalType": "address",
					"name": "_dataFeedsAddress",
					"type": "address"
				}
			],
			"stateMutability": "nonpayable",
			"type": "constructor"
		},
		{
			"anonymous": false,
			"inputs": [
				{
					"indexed": true,
					"internalType": "address",
					"name": "owner",
					"type": "address"
				},
				{
					"indexed": true,
					"internalType": "address",
					"name": "approved",
					"type": "address"
				},
				{
					"indexed": true,
					"internalType": "uint256",
					"name": "tokenId",
					"type": "uint256"
				}
			],
			"name": "Approval",
			"type": "event"
		},
		{
			"anonymous": false,
			"inputs": [
				{
					"indexed": true,
					"internalType": "address",
					"name": "owner",
					"type": "address"
				},
				{
					"indexed": true,
					"internalType": "address",
					"name": "operator",
					"type": "address"
				},
				{
					"indexed": false,
					"internalType": "bool",
					"name": "approved",
					"type": "bool"
				}
			],
			"name": "ApprovalForAll",
			"type": "event"
		},
		{
			"anonymous": false,
			"inputs": [
				{
					"indexed": false,
					"internalType": "uint256",
					"name": "_fromTokenId",
					"type": "uint256"
				},
				{
					"indexed": false,
					"internalType": "uint256",
					"name": "_toTokenId",
					"type": "uint256"
				}
			],
			"name": "BatchMetadataUpdate",
			"type": "event"
		},
		{
			"anonymous": false,
			"inputs": [
				{
					"indexed": false,
					"internalType": "uint256",
					"name": "_tokenId",
					"type": "uint256"
				}
			],
			"name": "MetadataUpdate",
			"type": "event"
		},
		{
			"anonymous": false,
			"inputs": [
				{
					"indexed": false,
					"internalType": "uint256",
					"name": "id",
					"type": "uint256"
				},
				{
					"indexed": false,
					"internalType": "enum BIOrbit.State",
					"name": "state",
					"type": "uint8"
				},
				{
					"indexed": false,
					"internalType": "bytes32",
					"name": "name",
					"type": "bytes32"
				},
				{
					"indexed": false,
					"internalType": "bytes32",
					"name": "description",
					"type": "bytes32"
				},
				{
					"indexed": false,
					"internalType": "bytes32",
					"name": "extension",
					"type": "bytes32"
				},
				{
					"indexed": false,
					"internalType": "string[][]",
					"name": "footprint",
					"type": "string[][]"
				},
				{
					"indexed": false,
					"internalType": "bytes32",
					"name": "country",
					"type": "bytes32"
				},
				{
					"indexed": false,
					"internalType": "address",
					"name": "owner",
					"type": "address"
				},
				{
					"indexed": false,
					"internalType": "bool",
					"name": "isRent",
					"type": "bool"
				},
				{
					"indexed": false,
					"internalType": "uint256",
					"name": "rent",
					"type": "uint256"
				}
			],
			"name": "ProjectCreated",
			"type": "event"
		},
		{
			"anonymous": false,
			"inputs": [
				{
					"indexed": true,
					"internalType": "address",
					"name": "from",
					"type": "address"
				},
				{
					"indexed": true,
					"internalType": "address",
					"name": "to",
					"type": "address"
				},
				{
					"indexed": true,
					"internalType": "uint256",
					"name": "tokenId",
					"type": "uint256"
				}
			],
			"name": "Transfer",
			"type": "event"
		},
		{
			"inputs": [
				{
					"internalType": "uint256",
					"name": "",
					"type": "uint256"
				}
			],
			"name": "Projects",
			"outputs": [
				{
					"internalType": "uint256",
					"name": "id",
					"type": "uint256"
				},
				{
					"internalType": "string",
					"name": "uri",
					"type": "string"
				},
				{
					"internalType": "enum BIOrbit.State",
					"name": "state",
					"type": "uint8"
				},
				{
					"internalType": "bytes32",
					"name": "name",
					"type": "bytes32"
				},
				{
					"internalType": "bytes32",
					"name": "description",
					"type": "bytes32"
				},
				{
					"internalType": "bytes32",
					"name": "extension",
					"type": "bytes32"
				},
				{
					"internalType": "bytes32",
					"name": "country",
					"type": "bytes32"
				},
				{
					"internalType": "address",
					"name": "owner",
					"type": "address"
				},
				{
					"components": [
						{
							"internalType": "string[]",
							"name": "detectionDate",
							"type": "string[]"
						},
						{
							"internalType": "string[]",
							"name": "forestCoverExtension",
							"type": "string[]"
						}
					],
					"internalType": "struct BIOrbit.ImageTimeSeries",
					"name": "imageTimeSeries",
					"type": "tuple"
				},
				{
					"internalType": "bool",
					"name": "isRent",
					"type": "bool"
				},
				{
					"internalType": "uint256",
					"name": "rentCost",
					"type": "uint256"
				}
			],
			"stateMutability": "view",
			"type": "function"
		},
		{
			"inputs": [
				{
					"internalType": "address",
					"name": "to",
					"type": "address"
				},
				{
					"internalType": "uint256",
					"name": "tokenId",
					"type": "uint256"
				}
			],
			"name": "approve",
			"outputs": [],
			"stateMutability": "nonpayable",
			"type": "function"
		},
		{
			"inputs": [
				{
					"internalType": "address",
					"name": "owner",
					"type": "address"
				}
			],
			"name": "balanceOf",
			"outputs": [
				{
					"internalType": "uint256",
					"name": "",
					"type": "uint256"
				}
			],
			"stateMutability": "view",
			"type": "function"
		},
		{
			"inputs": [
				{
					"internalType": "uint256",
					"name": "_projectId",
					"type": "uint256"
				}
			],
			"name": "burnProject",
			"outputs": [],
			"stateMutability": "nonpayable",
			"type": "function"
		},
		{
			"inputs": [],
			"name": "getActiveRentingProjects",
			"outputs": [
				{
					"components": [
						{
							"internalType": "uint256",
							"name": "id",
							"type": "uint256"
						},
						{
							"internalType": "string",
							"name": "uri",
							"type": "string"
						},
						{
							"internalType": "enum BIOrbit.State",
							"name": "state",
							"type": "uint8"
						},
						{
							"internalType": "bytes32",
							"name": "name",
							"type": "bytes32"
						},
						{
							"internalType": "bytes32",
							"name": "description",
							"type": "bytes32"
						},
						{
							"internalType": "bytes32",
							"name": "extension",
							"type": "bytes32"
						},
						{
							"internalType": "string[][]",
							"name": "footprint",
							"type": "string[][]"
						},
						{
							"internalType": "bytes32",
							"name": "country",
							"type": "bytes32"
						},
						{
							"internalType": "address",
							"name": "owner",
							"type": "address"
						},
						{
							"components": [
								{
									"internalType": "string[]",
									"name": "detectionDate",
									"type": "string[]"
								},
								{
									"internalType": "string[]",
									"name": "forestCoverExtension",
									"type": "string[]"
								}
							],
							"internalType": "struct BIOrbit.ImageTimeSeries",
							"name": "imageTimeSeries",
							"type": "tuple"
						},
						{
							"components": [
								{
									"internalType": "string",
									"name": "detectionDate",
									"type": "string"
								},
								{
									"internalType": "string",
									"name": "forestCoverExtension",
									"type": "string"
								}
							],
							"internalType": "struct BIOrbit.Monitoring[]",
							"name": "monitoring",
							"type": "tuple[]"
						},
						{
							"internalType": "bool",
							"name": "isRent",
							"type": "bool"
						},
						{
							"internalType": "uint256",
							"name": "rentCost",
							"type": "uint256"
						},
						{
							"components": [
								{
									"internalType": "address",
									"name": "renter",
									"type": "address"
								},
								{
									"internalType": "uint256",
									"name": "expiry",
									"type": "uint256"
								}
							],
							"internalType": "struct BIOrbit.RentInfo[]",
							"name": "rentInfo",
							"type": "tuple[]"
						}
					],
					"internalType": "struct BIOrbit.Project[]",
					"name": "",
					"type": "tuple[]"
				}
			],
			"stateMutability": "view",
			"type": "function"
		},
		{
			"inputs": [
				{
					"internalType": "uint256",
					"name": "tokenId",
					"type": "uint256"
				}
			],
			"name": "getApproved",
			"outputs": [
				{
					"internalType": "address",
					"name": "",
					"type": "address"
				}
			],
			"stateMutability": "view",
			"type": "function"
		},
		{
			"inputs": [],
			"name": "getLatestData",
			"outputs": [
				{
					"internalType": "uint256",
					"name": "",
					"type": "uint256"
				}
			],
			"stateMutability": "view",
			"type": "function"
		},
		{
			"inputs": [],
			"name": "getProjectsByOwner",
			"outputs": [
				{
					"components": [
						{
							"internalType": "uint256",
							"name": "id",
							"type": "uint256"
						},
						{
							"internalType": "string",
							"name": "uri",
							"type": "string"
						},
						{
							"internalType": "enum BIOrbit.State",
							"name": "state",
							"type": "uint8"
						},
						{
							"internalType": "bytes32",
							"name": "name",
							"type": "bytes32"
						},
						{
							"internalType": "bytes32",
							"name": "description",
							"type": "bytes32"
						},
						{
							"internalType": "bytes32",
							"name": "extension",
							"type": "bytes32"
						},
						{
							"internalType": "string[][]",
							"name": "footprint",
							"type": "string[][]"
						},
						{
							"internalType": "bytes32",
							"name": "country",
							"type": "bytes32"
						},
						{
							"internalType": "address",
							"name": "owner",
							"type": "address"
						},
						{
							"components": [
								{
									"internalType": "string[]",
									"name": "detectionDate",
									"type": "string[]"
								},
								{
									"internalType": "string[]",
									"name": "forestCoverExtension",
									"type": "string[]"
								}
							],
							"internalType": "struct BIOrbit.ImageTimeSeries",
							"name": "imageTimeSeries",
							"type": "tuple"
						},
						{
							"components": [
								{
									"internalType": "string",
									"name": "detectionDate",
									"type": "string"
								},
								{
									"internalType": "string",
									"name": "forestCoverExtension",
									"type": "string"
								}
							],
							"internalType": "struct BIOrbit.Monitoring[]",
							"name": "monitoring",
							"type": "tuple[]"
						},
						{
							"internalType": "bool",
							"name": "isRent",
							"type": "bool"
						},
						{
							"internalType": "uint256",
							"name": "rentCost",
							"type": "uint256"
						},
						{
							"components": [
								{
									"internalType": "address",
									"name": "renter",
									"type": "address"
								},
								{
									"internalType": "uint256",
									"name": "expiry",
									"type": "uint256"
								}
							],
							"internalType": "struct BIOrbit.RentInfo[]",
							"name": "rentInfo",
							"type": "tuple[]"
						}
					],
					"internalType": "struct BIOrbit.Project[]",
					"name": "",
					"type": "tuple[]"
				}
			],
			"stateMutability": "view",
			"type": "function"
		},
		{
			"inputs": [],
			"name": "getProjectsNotOwnedWithoutRent",
			"outputs": [
				{
					"components": [
						{
							"internalType": "uint256",
							"name": "id",
							"type": "uint256"
						},
						{
							"internalType": "enum BIOrbit.State",
							"name": "state",
							"type": "uint8"
						},
						{
							"internalType": "bytes32",
							"name": "name",
							"type": "bytes32"
						},
						{
							"internalType": "bytes32",
							"name": "description",
							"type": "bytes32"
						},
						{
							"internalType": "bytes32",
							"name": "extension",
							"type": "bytes32"
						},
						{
							"internalType": "string[][]",
							"name": "footprint",
							"type": "string[][]"
						},
						{
							"internalType": "bytes32",
							"name": "country",
							"type": "bytes32"
						},
						{
							"internalType": "address",
							"name": "owner",
							"type": "address"
						},
						{
							"internalType": "bool",
							"name": "isRent",
							"type": "bool"
						},
						{
							"internalType": "uint256",
							"name": "rentCost",
							"type": "uint256"
						}
					],
					"internalType": "struct BIOrbit.ProjectLite[]",
					"name": "",
					"type": "tuple[]"
				}
			],
			"stateMutability": "view",
			"type": "function"
		},
		{
			"inputs": [
				{
					"internalType": "address",
					"name": "owner",
					"type": "address"
				},
				{
					"internalType": "address",
					"name": "operator",
					"type": "address"
				}
			],
			"name": "isApprovedForAll",
			"outputs": [
				{
					"internalType": "bool",
					"name": "",
					"type": "bool"
				}
			],
			"stateMutability": "view",
			"type": "function"
		},
		{
			"inputs": [
				{
					"internalType": "bytes32",
					"name": "_name",
					"type": "bytes32"
				},
				{
					"internalType": "bytes32",
					"name": "_description",
					"type": "bytes32"
				},
				{
					"internalType": "bytes32",
					"name": "_extension",
					"type": "bytes32"
				},
				{
					"internalType": "string[][]",
					"name": "_footprint",
					"type": "string[][]"
				},
				{
					"internalType": "bytes32",
					"name": "_country",
					"type": "bytes32"
				},
				{
					"internalType": "bool",
					"name": "_isRent",
					"type": "bool"
				}
			],
			"name": "mintProject",
			"outputs": [],
			"stateMutability": "payable",
			"type": "function"
		},
		{
			"inputs": [],
			"name": "name",
			"outputs": [
				{
					"internalType": "string",
					"name": "",
					"type": "string"
				}
			],
			"stateMutability": "view",
			"type": "function"
		},
		{
			"inputs": [
				{
					"internalType": "uint256",
					"name": "tokenId",
					"type": "uint256"
				}
			],
			"name": "ownerOf",
			"outputs": [
				{
					"internalType": "address",
					"name": "",
					"type": "address"
				}
			],
			"stateMutability": "view",
			"type": "function"
		},
		{
			"inputs": [],
			"name": "projectIdCounter",
			"outputs": [
				{
					"internalType": "uint256",
					"name": "_value",
					"type": "uint256"
				}
			],
			"stateMutability": "view",
			"type": "function"
		},
		{
			"inputs": [
				{
					"internalType": "uint256",
					"name": "_projectId",
					"type": "uint256"
				}
			],
			"name": "rentProject",
			"outputs": [],
			"stateMutability": "payable",
			"type": "function"
		},
		{
			"inputs": [],
			"name": "rentTime",
			"outputs": [
				{
					"internalType": "uint256",
					"name": "",
					"type": "uint256"
				}
			],
			"stateMutability": "view",
			"type": "function"
		},
		{
			"inputs": [
				{
					"internalType": "address",
					"name": "from",
					"type": "address"
				},
				{
					"internalType": "address",
					"name": "to",
					"type": "address"
				},
				{
					"internalType": "uint256",
					"name": "_projectId",
					"type": "uint256"
				}
			],
			"name": "safeTransferFrom",
			"outputs": [],
			"stateMutability": "nonpayable",
			"type": "function"
		},
		{
			"inputs": [
				{
					"internalType": "address",
					"name": "from",
					"type": "address"
				},
				{
					"internalType": "address",
					"name": "to",
					"type": "address"
				},
				{
					"internalType": "uint256",
					"name": "_projectId",
					"type": "uint256"
				},
				{
					"internalType": "bytes",
					"name": "_data",
					"type": "bytes"
				}
			],
			"name": "safeTransferFrom",
			"outputs": [],
			"stateMutability": "nonpayable",
			"type": "function"
		},
		{
			"inputs": [
				{
					"internalType": "address",
					"name": "operator",
					"type": "address"
				},
				{
					"internalType": "bool",
					"name": "approved",
					"type": "bool"
				}
			],
			"name": "setApprovalForAll",
			"outputs": [],
			"stateMutability": "nonpayable",
			"type": "function"
		},
		{
			"inputs": [
				{
					"internalType": "uint256",
					"name": "_projectId",
					"type": "uint256"
				},
				{
					"internalType": "bytes32",
					"name": "_description",
					"type": "bytes32"
				}
			],
			"name": "setDescription",
			"outputs": [],
			"stateMutability": "nonpayable",
			"type": "function"
		},
		{
			"inputs": [
				{
					"internalType": "uint256",
					"name": "_projectId",
					"type": "uint256"
				}
			],
			"name": "setIsRent",
			"outputs": [],
			"stateMutability": "nonpayable",
			"type": "function"
		},
		{
			"inputs": [
				{
					"internalType": "uint256",
					"name": "_projectId",
					"type": "uint256"
				},
				{
					"internalType": "bytes32",
					"name": "_name",
					"type": "bytes32"
				}
			],
			"name": "setName",
			"outputs": [],
			"stateMutability": "nonpayable",
			"type": "function"
		},
		{
			"inputs": [
				{
					"internalType": "uint256",
					"name": "_projectId",
					"type": "uint256"
				}
			],
			"name": "setRentCost",
			"outputs": [],
			"stateMutability": "payable",
			"type": "function"
		},
		{
			"inputs": [
				{
					"internalType": "string[]",
					"name": "_detectionDate",
					"type": "string[]"
				},
				{
					"internalType": "string[]",
					"name": "_forestCoverExtension",
					"type": "string[]"
				},
				{
					"internalType": "uint256",
					"name": "_projectId",
					"type": "uint256"
				},
				{
					"internalType": "string",
					"name": "_projectURI",
					"type": "string"
				}
			],
			"name": "setTokenURI",
			"outputs": [],
			"stateMutability": "nonpayable",
			"type": "function"
		},
		{
			"inputs": [
				{
					"internalType": "bytes4",
					"name": "interfaceId",
					"type": "bytes4"
				}
			],
			"name": "supportsInterface",
			"outputs": [
				{
					"internalType": "bool",
					"name": "",
					"type": "bool"
				}
			],
			"stateMutability": "view",
			"type": "function"
		},
		{
			"inputs": [],
			"name": "symbol",
			"outputs": [
				{
					"internalType": "string",
					"name": "",
					"type": "string"
				}
			],
			"stateMutability": "view",
			"type": "function"
		},
		{
			"inputs": [
				{
					"internalType": "uint256",
					"name": "_projectId",
					"type": "uint256"
				}
			],
			"name": "tokenURI",
			"outputs": [
				{
					"internalType": "string",
					"name": "",
					"type": "string"
				}
			],
			"stateMutability": "view",
			"type": "function"
		},
		{
			"inputs": [
				{
					"internalType": "address",
					"name": "from",
					"type": "address"
				},
				{
					"internalType": "address",
					"name": "to",
					"type": "address"
				},
				{
					"internalType": "uint256",
					"name": "_projectId",
					"type": "uint256"
				}
			],
			"name": "transferFrom",
			"outputs": [],
			"stateMutability": "nonpayable",
			"type": "function"
		}
	],
	"transactionHash": "0x890caa0df24248057b08301a11a02bba26ae67758890c8a101a5d0335b00467e",
	"args": [
		"0xbAFe2c5C2f5e39479884C8Ff5bDdEd055Fd0e85c"
	],
	"numDeployments": 2,
	"solcInputHash": "ed55f442c77401da1dbac0b0474139e7",
	"bytecode": "0x608060405262278d006009553480156200001857600080fd5b5060405162005cfe38038062005cfe8339810160408190526200003b91620000fb565b60405180604001604052806007815260200166109253dc989a5d60ca1b8152506040518060400160405280600381526020016242494f60e81b81525081600090816200008891906200023b565b5060016200009782826200023b565b5050600880546001600160a01b0319166001600160a01b039390931692909217909155506200030b565b60006001600160a01b0382165b92915050565b620000df81620000c1565b8114620000eb57600080fd5b50565b8051620000ce81620000d4565b600060208284031215620001125762000112600080fd5b6000620001208484620000ee565b949350505050565b634e487b7160e01b600052604160045260246000fd5b634e487b7160e01b600052602260045260246000fd5b6002810460018216806200016957607f821691505b6020821081036200017e576200017e6200013e565b50919050565b6000620000ce620001928381565b90565b620001a08362000184565b81546008840282811b60001990911b908116901990911617825550505050565b6000620001cf81848462000195565b505050565b81811015620001f357620001ea600082620001c0565b600101620001d4565b5050565b601f821115620001cf576000818152602090206020601f85010481016020851015620002205750805b620002346020601f860104830182620001d4565b5050505050565b81516001600160401b0381111562000257576200025762000128565b62000263825462000154565b62000270828285620001f7565b6020601f831160018114620002a757600084156200028e5750858201515b600019600886021c198116600286021786555062000303565b600085815260208120601f198616915b82811015620002d95788850151825560209485019460019092019101620002b7565b86831015620002f65784890151600019601f89166008021c191682555b6001600288020188555050505b505050505050565b6159e3806200031b6000396000f3fe6080604052600436106101b75760003560e01c8063a12396aa116100ec578063c87b56dd1161008a578063e985e9c511610064578063e985e9c5146104bd578063f7353dc7146104dd578063f7e33aa8146104fd578063f87cf6bc1461051d57600080fd5b8063c87b56dd14610470578063d5977b5e14610490578063e3bbfd3f146104a757600080fd5b8063b88d4fde116100c6578063b88d4fde146103fb578063bdf697cb1461041b578063bea1fc451461043b578063c5b4f1981461045d57600080fd5b8063a12396aa146103a6578063a22cb465146103c6578063ab757d61146103e657600080fd5b806342842e0e116101595780636352211e116101335780636352211e1461033157806370a082311461035157806395d89b411461037e578063979529821461039357600080fd5b806342842e0e146102dc5780634aae5f4d146102fc57806359886b821461031157600080fd5b8063095ea7b311610195578063095ea7b3146102415780631455720b1461026357806321b2416c1461028557806323b872dd146102bc57600080fd5b806301ffc9a7146101bc57806306fdde03146101f2578063081812fc14610214575b600080fd5b3480156101c857600080fd5b506101dc6101d736600461432c565b610530565b6040516101e99190614357565b60405180910390f35b3480156101fe57600080fd5b50610207610541565b6040516101e991906143bb565b34801561022057600080fd5b5061023461022f3660046143dd565b6105d3565b6040516101e99190614418565b34801561024d57600080fd5b5061026161025c36600461443a565b6105fa565b005b34801561026f57600080fd5b50610278610688565b6040516101e9919061488e565b34801561029157600080fd5b506102a56102a03660046143dd565b610e43565b6040516101e99b9a9998979695949392919061489f565b3480156102c857600080fd5b506102616102d7366004614951565b6110e9565b3480156102e857600080fd5b506102616102f7366004614951565b611126565b34801561030857600080fd5b50610278611131565b34801561031d57600080fd5b5061026161032c366004614b4b565b61185d565b34801561033d57600080fd5b5061023461034c3660046143dd565b6119d1565b34801561035d57600080fd5b5061037161036c366004614bfc565b611a06565b6040516101e99190614c1d565b34801561038a57600080fd5b50610207611a4a565b6102616103a13660046143dd565b611a59565b3480156103b257600080fd5b506102616103c1366004614c2b565b611aa4565b3480156103d257600080fd5b506102616103e1366004614c60565b611ae5565b3480156103f257600080fd5b50610371611af4565b34801561040757600080fd5b50610261610416366004614c93565b611b67565b34801561042757600080fd5b506102616104363660046143dd565b611ba6565b34801561044757600080fd5b50610450611c0b565b6040516101e99190614df9565b61026161046b3660046143dd565b612439565b34801561047c57600080fd5b5061020761048b3660046143dd565b61259d565b34801561049c57600080fd5b506007546103719081565b3480156104b357600080fd5b5061037160095481565b3480156104c957600080fd5b506101dc6104d8366004614e0a565b612c04565b3480156104e957600080fd5b506102616104f83660046143dd565b612c32565b34801561050957600080fd5b50610261610518366004614c2b565b613412565b61026161052b366004614ece565b613453565b600061053b8261359a565b92915050565b60606000805461055090614f88565b80601f016020809104026020016040519081016040528092919081815260200182805461057c90614f88565b80156105c95780601f1061059e576101008083540402835291602001916105c9565b820191906000526020600020905b8154815290600101906020018083116105ac57829003601f168201915b5050505050905090565b60006105de826135bf565b506000908152600460205260409020546001600160a01b031690565b6000610605826119d1565b9050806001600160a01b0316836001600160a01b0316036106415760405162461bcd60e51b815260040161063890614ff5565b60405180910390fd5b336001600160a01b038216148061065d575061065d8133612c04565b6106795760405162461bcd60e51b81526004016106389061505f565b61068383836135f6565b505050565b6060600061069560075490565b9050806000036106d75760408051600080825260208201909252906106d0565b6106bd61402a565b8152602001906001900390816106b55790505b5091505090565b6000816001600160401b038111156106f1576106f16149a1565b60405190808252806020026020018201604052801561072a57816020015b61071761402a565b81526020019060019003908161070f5790505b509050600060015b838111610e3a576000600a6000838152602001908152602001600020604051806101c00160405290816000820154815260200160018201805461077490614f88565b80601f01602080910402602001604051908101604052809291908181526020018280546107a090614f88565b80156107ed5780601f106107c2576101008083540402835291602001916107ed565b820191906000526020600020905b8154815290600101906020018083116107d057829003601f168201915b5050509183525050600282015460209091019060ff1660038111156108145761081461447d565b60038111156108255761082561447d565b815260200160038201548152602001600482015481526020016005820154815260200160068201805480602002602001604051908101604052809291908181526020016000905b8282101561095f57838290600052602060002001805480602002602001604051908101604052809291908181526020016000905b8282101561094c5783829060005260206000200180546108bf90614f88565b80601f01602080910402602001604051908101604052809291908181526020018280546108eb90614f88565b80156109385780601f1061090d57610100808354040283529160200191610938565b820191906000526020600020905b81548152906001019060200180831161091b57829003601f168201915b5050505050815260200190600101906108a0565b505050508152602001906001019061086c565b50505090825250600782015460208083019190915260088301546001600160a01b031660408084019190915280516009850180549384028201606090810184529282018481529483019491939092849291849160009085015b82821015610a645783829060005260206000200180546109d790614f88565b80601f0160208091040260200160405190810160405280929190818152602001828054610a0390614f88565b8015610a505780601f10610a2557610100808354040283529160200191610a50565b820191906000526020600020905b815481529060010190602001808311610a3357829003601f168201915b5050505050815260200190600101906109b8565b50505050815260200160018201805480602002602001604051908101604052809291908181526020016000905b82821015610b3d578382906000526020600020018054610ab090614f88565b80601f0160208091040260200160405190810160405280929190818152602001828054610adc90614f88565b8015610b295780601f10610afe57610100808354040283529160200191610b29565b820191906000526020600020905b815481529060010190602001808311610b0c57829003601f168201915b505050505081526020019060010190610a91565b50505050815250508152602001600b8201805480602002602001604051908101604052809291908181526020016000905b82821015610cc45783829060005260206000209060020201604051806040016040529081600082018054610ba190614f88565b80601f0160208091040260200160405190810160405280929190818152602001828054610bcd90614f88565b8015610c1a5780601f10610bef57610100808354040283529160200191610c1a565b820191906000526020600020905b815481529060010190602001808311610bfd57829003601f168201915b50505050508152602001600182018054610c3390614f88565b80601f0160208091040260200160405190810160405280929190818152602001828054610c5f90614f88565b8015610cac5780601f10610c8157610100808354040283529160200191610cac565b820191906000526020600020905b815481529060010190602001808311610c8f57829003601f168201915b50505050508152505081526020019060010190610b6e565b505050508152602001600c820160009054906101000a900460ff16151515158152602001600d8201548152602001600e8201805480602002602001604051908101604052809291908181526020016000905b82821015610d5e576000848152602090819020604080518082019091526002850290910180546001600160a01b03168252600190810154828401529083529092019101610d16565b5050505081525050905060005b816101a0015151811015610e2557336001600160a01b0316826101a001518281518110610d9a57610d9a61506f565b6020026020010151600001516001600160a01b0316148015610ddd575042826101a001518281518110610dcf57610dcf61506f565b602002602001015160200151115b15610e135781858581518110610df557610df561506f565b60200260200101819052508380610e0b9061509b565b945050610e25565b80610e1d8161509b565b915050610d6b565b50508080610e329061509b565b915050610732565b50815292915050565b600a6020526000908152604090208054600182018054919291610e6590614f88565b80601f0160208091040260200160405190810160405280929190818152602001828054610e9190614f88565b8015610ede5780601f10610eb357610100808354040283529160200191610ede565b820191906000526020600020905b815481529060010190602001808311610ec157829003601f168201915b505050506002830154600384015460048501546005860154600787015460088801546040805160098b0180546060602082028401810185529383018181529b9c60ff909a169b989a509698959794966001600160a01b03909416959491939092849291849160009085015b82821015610ff5578382906000526020600020018054610f6890614f88565b80601f0160208091040260200160405190810160405280929190818152602001828054610f9490614f88565b8015610fe15780601f10610fb657610100808354040283529160200191610fe1565b820191906000526020600020905b815481529060010190602001808311610fc457829003601f168201915b505050505081526020019060010190610f49565b50505050815260200160018201805480602002602001604051908101604052809291908181526020016000905b828210156110ce57838290600052602060002001805461104190614f88565b80601f016020809104026020016040519081016040528092919081815260200182805461106d90614f88565b80156110ba5780601f1061108f576101008083540402835291602001916110ba565b820191906000526020600020905b81548152906001019060200180831161109d57829003601f168201915b505050505081526020019060010190611022565b50505091525050600c820154600d90920154909160ff16908b565b6110f4838383613664565b6000908152600a6020526040902060080180546001600160a01b0319166001600160a01b039290921691909117905550565b6110f4838383613695565b6060600061113e60075490565b90508060000361117f5760408051600080825260208201909252906106d0565b61116661402a565b81526020019060019003908161115e5790505091505090565b6000816001600160401b03811115611199576111996149a1565b6040519080825280602002602001820160405280156111d257816020015b6111bf61402a565b8152602001906001900390816111b75790505b509050600060015b838111610e3a576000818152600a602052604090206008810154336001600160a01b039091160361184a5780604051806101c00160405290816000820154815260200160018201805461122c90614f88565b80601f016020809104026020016040519081016040528092919081815260200182805461125890614f88565b80156112a55780601f1061127a576101008083540402835291602001916112a5565b820191906000526020600020905b81548152906001019060200180831161128857829003601f168201915b5050509183525050600282015460209091019060ff1660038111156112cc576112cc61447d565b60038111156112dd576112dd61447d565b815260200160038201548152602001600482015481526020016005820154815260200160068201805480602002602001604051908101604052809291908181526020016000905b8282101561141757838290600052602060002001805480602002602001604051908101604052809291908181526020016000905b8282101561140457838290600052602060002001805461137790614f88565b80601f01602080910402602001604051908101604052809291908181526020018280546113a390614f88565b80156113f05780601f106113c5576101008083540402835291602001916113f0565b820191906000526020600020905b8154815290600101906020018083116113d357829003601f168201915b505050505081526020019060010190611358565b5050505081526020019060010190611324565b50505090825250600782015460208083019190915260088301546001600160a01b031660408084019190915280516009850180549384028201606090810184529282018481529483019491939092849291849160009085015b8282101561151c57838290600052602060002001805461148f90614f88565b80601f01602080910402602001604051908101604052809291908181526020018280546114bb90614f88565b80156115085780601f106114dd57610100808354040283529160200191611508565b820191906000526020600020905b8154815290600101906020018083116114eb57829003601f168201915b505050505081526020019060010190611470565b50505050815260200160018201805480602002602001604051908101604052809291908181526020016000905b828210156115f557838290600052602060002001805461156890614f88565b80601f016020809104026020016040519081016040528092919081815260200182805461159490614f88565b80156115e15780601f106115b6576101008083540402835291602001916115e1565b820191906000526020600020905b8154815290600101906020018083116115c457829003601f168201915b505050505081526020019060010190611549565b50505050815250508152602001600b8201805480602002602001604051908101604052809291908181526020016000905b8282101561177c578382906000526020600020906002020160405180604001604052908160008201805461165990614f88565b80601f016020809104026020016040519081016040528092919081815260200182805461168590614f88565b80156116d25780601f106116a7576101008083540402835291602001916116d2565b820191906000526020600020905b8154815290600101906020018083116116b557829003601f168201915b505050505081526020016001820180546116eb90614f88565b80601f016020809104026020016040519081016040528092919081815260200182805461171790614f88565b80156117645780601f1061173957610100808354040283529160200191611764565b820191906000526020600020905b81548152906001019060200180831161174757829003601f168201915b50505050508152505081526020019060010190611626565b505050508152602001600c820160009054906101000a900460ff16151515158152602001600d8201548152602001600e8201805480602002602001604051908101604052809291908181526020016000905b82821015611816576000848152602090819020604080518082019091526002850290910180546001600160a01b031682526001908101548284015290835290920191016117ce565b50505050815250508484815181106118305761183061506f565b602002602001018190525082806118469061509b565b9350505b50806118558161509b565b9150506111da565b6000828152600a6020526040812090600282015460ff1660038111156118855761188561447d565b0361193a5761189483836136b0565b60006040518060400160405280876000815181106118b4576118b461506f565b60200260200101518152602001866000815181106118d4576118d461506f565b602090810291909101810151909152600b84018054600181018255600091825291902082519293508392600290920201908190611911908261514e565b5060208201516001820190611926908261514e565b50505060018201611937848261514e565b50505b6001600282015460ff1660038111156119555761195561447d565b036119ca5761196483836136b0565b604080518082019091528581526020808201869052865182916009850191611991918391908b01906140af565b5060208281015180516119aa92600185019201906140af565b50505060028201805460ff19169055600182016119c7848261514e565b50505b5050505050565b6000818152600260205260408120546001600160a01b03168061053b5760405162461bcd60e51b815260040161063890615248565b60006001600160a01b038216611a2e5760405162461bcd60e51b81526004016106389061529e565b506001600160a01b031660009081526003602052604090205490565b60606001805461055090614f88565b6000818152600a6020526040902060088101546001600160a01b03163314611a935760405162461bcd60e51b8152600401610638906152d2565b611a9b611af4565b600d9091015550565b6000828152600a6020526040902060088101546001600160a01b03163314611ade5760405162461bcd60e51b8152600401610638906152d2565b6003015550565b611af0338383613738565b5050565b6008546040805163ab757d6160e01b815290516000926001600160a01b03169163ab757d619160048083019260209291908290030181865afa158015611b3e573d6000803e3d6000fd5b505050506040513d601f19601f82011682018060405250810190611b6291906152ed565b905090565b611b73848484846137da565b506000908152600a6020526040902060080180546001600160a01b0319166001600160a01b039290921691909117905550565b6000818152600a6020526040902060088101546001600160a01b03163314611be05760405162461bcd60e51b8152600401610638906152d2565b600c81015460ff16611bfd57600c01805460ff1916600117905550565b600c01805460ff1916905550565b60606000611c1860075490565b905080600003611c595760408051600080825260208201909252906106d0565b611c40614105565b815260200190600190039081611c385790505091505090565b6000816001600160401b03811115611c7357611c736149a1565b604051908082528060200260200182016040528015611cac57816020015b611c99614105565b815260200190600190039081611c915790505b509050600060015b838111610e3a576000600a6000838152602001908152602001600020604051806101c001604052908160008201548152602001600182018054611cf690614f88565b80601f0160208091040260200160405190810160405280929190818152602001828054611d2290614f88565b8015611d6f5780601f10611d4457610100808354040283529160200191611d6f565b820191906000526020600020905b815481529060010190602001808311611d5257829003601f168201915b5050509183525050600282015460209091019060ff166003811115611d9657611d9661447d565b6003811115611da757611da761447d565b815260200160038201548152602001600482015481526020016005820154815260200160068201805480602002602001604051908101604052809291908181526020016000905b82821015611ee157838290600052602060002001805480602002602001604051908101604052809291908181526020016000905b82821015611ece578382906000526020600020018054611e4190614f88565b80601f0160208091040260200160405190810160405280929190818152602001828054611e6d90614f88565b8015611eba5780601f10611e8f57610100808354040283529160200191611eba565b820191906000526020600020905b815481529060010190602001808311611e9d57829003601f168201915b505050505081526020019060010190611e22565b5050505081526020019060010190611dee565b50505090825250600782015460208083019190915260088301546001600160a01b031660408084019190915280516009850180549384028201606090810184529282018481529483019491939092849291849160009085015b82821015611fe6578382906000526020600020018054611f5990614f88565b80601f0160208091040260200160405190810160405280929190818152602001828054611f8590614f88565b8015611fd25780601f10611fa757610100808354040283529160200191611fd2565b820191906000526020600020905b815481529060010190602001808311611fb557829003601f168201915b505050505081526020019060010190611f3a565b50505050815260200160018201805480602002602001604051908101604052809291908181526020016000905b828210156120bf57838290600052602060002001805461203290614f88565b80601f016020809104026020016040519081016040528092919081815260200182805461205e90614f88565b80156120ab5780601f10612080576101008083540402835291602001916120ab565b820191906000526020600020905b81548152906001019060200180831161208e57829003601f168201915b505050505081526020019060010190612013565b50505050815250508152602001600b8201805480602002602001604051908101604052809291908181526020016000905b82821015612246578382906000526020600020906002020160405180604001604052908160008201805461212390614f88565b80601f016020809104026020016040519081016040528092919081815260200182805461214f90614f88565b801561219c5780601f106121715761010080835404028352916020019161219c565b820191906000526020600020905b81548152906001019060200180831161217f57829003601f168201915b505050505081526020016001820180546121b590614f88565b80601f01602080910402602001604051908101604052809291908181526020018280546121e190614f88565b801561222e5780601f106122035761010080835404028352916020019161222e565b820191906000526020600020905b81548152906001019060200180831161221157829003601f168201915b505050505081525050815260200190600101906120f0565b505050508152602001600c820160009054906101000a900460ff16151515158152602001600d8201548152602001600e8201805480602002602001604051908101604052809291908181526020016000905b828210156122e0576000848152602090819020604080518082019091526002850290910180546001600160a01b03168252600190810154828401529083529092019101612298565b505050915250506101008101519091506001600160a01b031633146000805b836101a00151518110156123525742846101a0015182815181106123255761232561506f565b60200260200101516020015111156123405760019150612352565b8061234a8161509b565b9150506122ff565b508115801561235f575080155b1561242357600060405180610140016040528085600001518152602001856040015160038111156123925761239261447d565b815260200185606001518152602001856080015181526020018560a0015181526020018560c0015181526020018560e0015181526020018561010001516001600160a01b03168152602001856101600151151581526020018561018001518152509050808787815181106124085761240861506f565b6020026020010181905250858061241e9061509b565b965050505b50505080806124319061509b565b915050611cb4565b6000818152600a602052604090206008810154336001600160a01b03909116036124755760405162461bcd60e51b815260040161063890615342565b6000600282015460ff1660038111156124905761249061447d565b146124ad5760405162461bcd60e51b81526004016106389061537e565b600c81015460ff166124d15760405162461bcd60e51b8152600401610638906153bb565b3481600d0154146124f45760405162461bcd60e51b8152600401610638906153ff565b60006040518060400160405280336001600160a01b031681526020016009544261251e919061540f565b9052600e830180546001818101835560009283526020808420855160029094020180546001600160a01b039485166001600160a01b031990911617815590850151910155600885015460405193945016913480156108fc0292909190818181858888f19350505050158015612597573d6000803e3d6000fd5b50505050565b6000818152600a6020908152604080832081516101c081019092528054825260018101805460609594840191906125d390614f88565b80601f01602080910402602001604051908101604052809291908181526020018280546125ff90614f88565b801561264c5780601f106126215761010080835404028352916020019161264c565b820191906000526020600020905b81548152906001019060200180831161262f57829003601f168201915b5050509183525050600282015460209091019060ff1660038111156126735761267361447d565b60038111156126845761268461447d565b815260200160038201548152602001600482015481526020016005820154815260200160068201805480602002602001604051908101604052809291908181526020016000905b828210156127be57838290600052602060002001805480602002602001604051908101604052809291908181526020016000905b828210156127ab57838290600052602060002001805461271e90614f88565b80601f016020809104026020016040519081016040528092919081815260200182805461274a90614f88565b80156127975780601f1061276c57610100808354040283529160200191612797565b820191906000526020600020905b81548152906001019060200180831161277a57829003601f168201915b5050505050815260200190600101906126ff565b50505050815260200190600101906126cb565b50505090825250600782015460208083019190915260088301546001600160a01b031660408084019190915280516009850180549384028201606090810184529282018481529483019491939092849291849160009085015b828210156128c357838290600052602060002001805461283690614f88565b80601f016020809104026020016040519081016040528092919081815260200182805461286290614f88565b80156128af5780601f10612884576101008083540402835291602001916128af565b820191906000526020600020905b81548152906001019060200180831161289257829003601f168201915b505050505081526020019060010190612817565b50505050815260200160018201805480602002602001604051908101604052809291908181526020016000905b8282101561299c57838290600052602060002001805461290f90614f88565b80601f016020809104026020016040519081016040528092919081815260200182805461293b90614f88565b80156129885780601f1061295d57610100808354040283529160200191612988565b820191906000526020600020905b81548152906001019060200180831161296b57829003601f168201915b5050505050815260200190600101906128f0565b50505050815250508152602001600b8201805480602002602001604051908101604052809291908181526020016000905b82821015612b235783829060005260206000209060020201604051806040016040529081600082018054612a0090614f88565b80601f0160208091040260200160405190810160405280929190818152602001828054612a2c90614f88565b8015612a795780601f10612a4e57610100808354040283529160200191612a79565b820191906000526020600020905b815481529060010190602001808311612a5c57829003601f168201915b50505050508152602001600182018054612a9290614f88565b80601f0160208091040260200160405190810160405280929190818152602001828054612abe90614f88565b8015612b0b5780601f10612ae057610100808354040283529160200191612b0b565b820191906000526020600020905b815481529060010190602001808311612aee57829003601f168201915b505050505081525050815260200190600101906129cd565b505050508152602001600c820160009054906101000a900460ff16151515158152602001600d8201548152602001600e8201805480602002602001604051908101604052809291908181526020016000905b82821015612bbd576000848152602090819020604080518082019091526002850290910180546001600160a01b03168252600190810154828401529083529092019101612b75565b505050915250506101008101519091506001600160a01b03163314612bf45760405162461bcd60e51b8152600401610638906152d2565b612bfd8361380c565b9392505050565b6001600160a01b03918216600090815260056020908152604080832093909416825291909152205460ff1690565b6000600a6000838152602001908152602001600020604051806101c001604052908160008201548152602001600182018054612c6d90614f88565b80601f0160208091040260200160405190810160405280929190818152602001828054612c9990614f88565b8015612ce65780601f10612cbb57610100808354040283529160200191612ce6565b820191906000526020600020905b815481529060010190602001808311612cc957829003601f168201915b5050509183525050600282015460209091019060ff166003811115612d0d57612d0d61447d565b6003811115612d1e57612d1e61447d565b815260200160038201548152602001600482015481526020016005820154815260200160068201805480602002602001604051908101604052809291908181526020016000905b82821015612e5857838290600052602060002001805480602002602001604051908101604052809291908181526020016000905b82821015612e45578382906000526020600020018054612db890614f88565b80601f0160208091040260200160405190810160405280929190818152602001828054612de490614f88565b8015612e315780601f10612e0657610100808354040283529160200191612e31565b820191906000526020600020905b815481529060010190602001808311612e1457829003601f168201915b505050505081526020019060010190612d99565b5050505081526020019060010190612d65565b50505090825250600782015460208083019190915260088301546001600160a01b031660408084019190915280516009850180549384028201606090810184529282018481529483019491939092849291849160009085015b82821015612f5d578382906000526020600020018054612ed090614f88565b80601f0160208091040260200160405190810160405280929190818152602001828054612efc90614f88565b8015612f495780601f10612f1e57610100808354040283529160200191612f49565b820191906000526020600020905b815481529060010190602001808311612f2c57829003601f168201915b505050505081526020019060010190612eb1565b50505050815260200160018201805480602002602001604051908101604052809291908181526020016000905b82821015613036578382906000526020600020018054612fa990614f88565b80601f0160208091040260200160405190810160405280929190818152602001828054612fd590614f88565b80156130225780601f10612ff757610100808354040283529160200191613022565b820191906000526020600020905b81548152906001019060200180831161300557829003601f168201915b505050505081526020019060010190612f8a565b50505050815250508152602001600b8201805480602002602001604051908101604052809291908181526020016000905b828210156131bd578382906000526020600020906002020160405180604001604052908160008201805461309a90614f88565b80601f01602080910402602001604051908101604052809291908181526020018280546130c690614f88565b80156131135780601f106130e857610100808354040283529160200191613113565b820191906000526020600020905b8154815290600101906020018083116130f657829003601f168201915b5050505050815260200160018201805461312c90614f88565b80601f016020809104026020016040519081016040528092919081815260200182805461315890614f88565b80156131a55780601f1061317a576101008083540402835291602001916131a5565b820191906000526020600020905b81548152906001019060200180831161318857829003601f168201915b50505050508152505081526020019060010190613067565b505050508152602001600c820160009054906101000a900460ff16151515158152602001600d8201548152602001600e8201805480602002602001604051908101604052809291908181526020016000905b82821015613257576000848152602090819020604080518082019091526002850290910180546001600160a01b0316825260019081015482840152908352909201910161320f565b505050915250506101008101519091506001600160a01b0316331461328e5760405162461bcd60e51b815260040161063890615462565b6000805b826101a00151518110156133455742836101a0015182815181106132b8576132b861506f565b6020026020010151602001511115613333576101808301516101a0840151805160019450839081106132ec576132ec61506f565b6020026020010151600001516001600160a01b03166108fc829081150290604051600060405180830381858888f19350505050158015613330573d6000803e3d6000fd5b50505b8061333d8161509b565b915050613292565b5080610683576133548361391c565b81516000908152600a60205260408120818155906133756001830182614159565b60028201805460ff1916905560006003830181905560048301819055600583018190556133a6906006840190614193565b6000600783018190556008830180546001600160a01b031916905560098301906133d082826141b1565b6133de6001830160006141b1565b506133ef9050600b830160006141cf565b600c8201805460ff191690556000600d83018190556119ca90600e8401906141f0565b6000828152600a6020526040902060088101546001600160a01b0316331461344c5760405162461bcd60e51b8152600401610638906152d2565b6004015550565b613461600780546001019055565b600061346c60075490565b6000818152600a6020819052604082209293506134899034615488565b83835560028301805460ff19166001179055600383018a9055600483018990556005830188905586519091506134c89060068401906020890190614211565b5060078201859055600882018054336001600160a01b03199091168117909155600c8301805460ff1916861515179055600d83018290556135099084613925565b8154600283015460038401546004850154600586015460078701546008880154600c890154600d8a01546040517f5996221a4bd7bb1b70a7fd3ac034aab26f09310c39f8f624bd81762710fa920e9961358799909860ff9182169890979096909560068f019591946001600160a01b039091169392909116916155e6565b60405180910390a1505050505050505050565b60006001600160e01b03198216632483248360e11b148061053b575061053b8261393f565b6000818152600260205260409020546001600160a01b03166135f35760405162461bcd60e51b815260040161063890615248565b50565b600081815260046020526040902080546001600160a01b0319166001600160a01b038416908117909155819061362b826119d1565b6001600160a01b03167f8c5be1e5ebec7d5bd14f71427d1e84f3dd0314c0f7b2291e5b200ac8c7c3b92560405160405180910390a45050565b61366e338261398f565b61368a5760405162461bcd60e51b8152600401610638906156cc565b6106838383836139ed565b61068383838360405180602001604052806000815250611b67565b6000828152600260205260409020546001600160a01b03166136e45760405162461bcd60e51b815260040161063890615727565b60008281526006602052604090206136fc828261514e565b507ff8e1a15aba9398e019f0b49df1a4fde98ee17ae345cb5f6b5e2c27f5033e8ce78260405161372c9190614c1d565b60405180910390a15050565b816001600160a01b0316836001600160a01b0316036137695760405162461bcd60e51b81526004016106389061576b565b6001600160a01b0383811660008181526005602090815260408083209487168084529490915290819020805460ff1916851515179055517f17307eab39ab6107e8899845ad3d59bd9653f200f220920489ca2b5937696c31906137cd908590614357565b60405180910390a3505050565b6137e4338361398f565b6138005760405162461bcd60e51b8152600401610638906156cc565b61259784848484613b15565b6060613817826135bf565b6000828152600660205260408120805461383090614f88565b80601f016020809104026020016040519081016040528092919081815260200182805461385c90614f88565b80156138a95780601f1061387e576101008083540402835291602001916138a9565b820191906000526020600020905b81548152906001019060200180831161388c57829003601f168201915b5050505050905060006138c760408051602081019091526000815290565b905080516000036138d9575092915050565b81511561390b5780826040516020016138f392919061579d565b60405160208183030381529060405292505050919050565b61391484613b48565b949350505050565b6135f381613bbb565b611af0828260405180602001604052806000815250613bfb565b60006001600160e01b031982166380ac58cd60e01b148061397057506001600160e01b03198216635b5e139f60e01b145b8061053b57506301ffc9a760e01b6001600160e01b031983161461053b565b60008061399b836119d1565b9050806001600160a01b0316846001600160a01b031614806139c257506139c28185612c04565b806139145750836001600160a01b03166139db846105d3565b6001600160a01b031614949350505050565b826001600160a01b0316613a00826119d1565b6001600160a01b031614613a265760405162461bcd60e51b8152600401610638906157f7565b6001600160a01b038216613a4c5760405162461bcd60e51b815260040161063890615848565b826001600160a01b0316613a5f826119d1565b6001600160a01b031614613a855760405162461bcd60e51b8152600401610638906157f7565b600081815260046020908152604080832080546001600160a01b03199081169091556001600160a01b0387811680865260038552838620805460001901905590871680865283862080546001019055868652600290945282852080549092168417909155905184937fddf252ad1be2c89b69c2b068fc378daa952ba7f163c4a11628f55a4df523b3ef91a4505050565b613b208484846139ed565b613b2c84848484613c2e565b6125975760405162461bcd60e51b8152600401610638906158a7565b6060613b53826135bf565b6000613b6a60408051602081019091526000815290565b90506000815111613b8a5760405180602001604052806000815250612bfd565b80613b9484613d2f565b604051602001613ba592919061579d565b6040516020818303038152906040529392505050565b613bc481613dc2565b60008181526006602052604090208054613bdd90614f88565b1590506135f35760008181526006602052604081206135f391614159565b613c058383613e57565b613c126000848484613c2e565b6106835760405162461bcd60e51b8152600401610638906158a7565b60006001600160a01b0384163b15613d2457604051630a85bd0160e11b81526001600160a01b0385169063150b7a0290613c729033908990889088906004016158b7565b6020604051808303816000875af1925050508015613cad575060408051601f3d908101601f19168201909252613caa91810190615906565b60015b613d0a573d808015613cdb576040519150601f19603f3d011682016040523d82523d6000602084013e613ce0565b606091505b508051600003613d025760405162461bcd60e51b8152600401610638906158a7565b805181602001fd5b6001600160e01b031916630a85bd0160e11b149050613914565b506001949350505050565b60606000613d3c83613f52565b60010190506000816001600160401b03811115613d5b57613d5b6149a1565b6040519080825280601f01601f191660200182016040528015613d85576020820181803683370190505b5090508181016020015b600019016f181899199a1a9b1b9c1cb0b131b232b360811b600a86061a8153600a8504945084613d8f575b509392505050565b6000613dcd826119d1565b9050613dd8826119d1565b600083815260046020908152604080832080546001600160a01b03199081169091556001600160a01b0385168085526003845282852080546000190190558785526002909352818420805490911690555192935084927fddf252ad1be2c89b69c2b068fc378daa952ba7f163c4a11628f55a4df523b3ef908390a45050565b6001600160a01b038216613e7d5760405162461bcd60e51b815260040161063890615959565b6000818152600260205260409020546001600160a01b031615613eb25760405162461bcd60e51b81526004016106389061599d565b6000818152600260205260409020546001600160a01b031615613ee75760405162461bcd60e51b81526004016106389061599d565b6001600160a01b038216600081815260036020908152604080832080546001019055848352600290915280822080546001600160a01b0319168417905551839291907fddf252ad1be2c89b69c2b068fc378daa952ba7f163c4a11628f55a4df523b3ef908290a45050565b60008072184f03e93ff9f4daa797ed6e38ed64bf6a1f0160401b8310613f915772184f03e93ff9f4daa797ed6e38ed64bf6a1f0160401b830492506040015b6d04ee2d6d415b85acef81000000008310613fbd576d04ee2d6d415b85acef8100000000830492506020015b662386f26fc100008310613fdb57662386f26fc10000830492506010015b6305f5e1008310613ff3576305f5e100830492506008015b612710831061400757612710830492506004015b60648310614019576064830492506002015b600a831061053b5760010192915050565b604080516101c0810182526000808252606060208084018290528385018390528184018390526080840183905260a0840183905260c0840182905260e084018390526101008401929092528351808501909452808452908301529061012082019081526020016060815260200160001515815260200160008152602001606081525090565b8280548282559060005260206000209081019282156140f5579160200282015b828111156140f557825182906140e5908261514e565b50916020019190600101906140cf565b5061410192915061426a565b5090565b604080516101408101909152600080825260208201908152600060208201819052604082018190526060808301829052608083015260a0820181905260c0820181905260e082018190526101009091015290565b50805461416590614f88565b6000825580601f10614175575050565b601f0160209004906000526020600020908101906135f39190614287565b50805460008255906000526020600020908101906135f3919061429c565b50805460008255906000526020600020908101906135f3919061426a565b50805460008255600202906000526020600020908101906135f391906142b9565b50805460008255600202906000526020600020908101906135f391906142e4565b82805482825590600052602060002090810192821561425e579160200282015b8281111561425e578251805161424e9184916020909101906140af565b5091602001919060010190614231565b5061410192915061429c565b8082111561410157600061427e8282614159565b5060010161426a565b5b808211156141015760008155600101614288565b808211156141015760006142b082826141b1565b5060010161429c565b808211156141015760006142cd8282614159565b6142db600183016000614159565b506002016142b9565b5b808211156141015780546001600160a01b0319168155600060018201556002016142e5565b6001600160e01b031981165b81146135f357600080fd5b803561053b8161430a565b60006020828403121561434157614341600080fd5b60006139148484614321565b8015155b82525050565b6020810161053b828461434d565b60005b83811015614380578181015183820152602001614368565b50506000910152565b6000614393825190565b8084526020840193506143aa818560208601614365565b601f01601f19169290920192915050565b60208082528101612bfd8184614389565b80614316565b803561053b816143cc565b6000602082840312156143f2576143f2600080fd5b600061391484846143d2565b60006001600160a01b03821661053b565b614351816143fe565b6020810161053b828461440f565b614316816143fe565b803561053b81614426565b6000806040838503121561445057614450600080fd5b600061445c858561442f565b925050602061446d858286016143d2565b9150509250929050565b80614351565b634e487b7160e01b600052602160045260246000fd5b600481106135f3576135f361447d565b806144ad81614493565b919050565b600061053b826144a3565b614351816144b2565b6000612bfd8383614389565b60006144dc825190565b808452602084019350836020820285016144f68560200190565b8060005b8581101561452b578484038952815161451385826144c6565b94506020830160209a909a01999250506001016144fa565b5091979650505050505050565b6000612bfd83836144d2565b600061454e825190565b808452602084019350836020820285016145688560200190565b8060005b8581101561452b57848403895281516145858582614538565b94506020830160209a909a019992505060010161456c565b80516040808452600091908401906145b582826144d2565b915050602083015184820360208601526145cf82826144d2565b95945050505050565b80516040808452600091908401906145f08282614389565b915050602083015184820360208601526145cf8282614389565b6000612bfd83836145d8565b6000614620825190565b8084526020840193508360208202850161463a8560200190565b8060005b8581101561452b5784840389528151614657858261460a565b94506020830160209a909a019992505060010161463e565b80516040830190614680848261440f565b5060208201516125976020850182614477565b600061469f838361466f565b505060400190565b60006146b1825190565b80845260209384019383018060005b838110156146e55781516146d48882614693565b9750602083019250506001016146c0565b509495945050505050565b80516000906101c08401906147058582614477565b506020830151848203602086015261471d8282614389565b915050604083015161473260408601826144bd565b5060608301516147456060860182614477565b5060808301516147586080860182614477565b5060a083015161476b60a0860182614477565b5060c083015184820360c08601526147838282614544565b91505060e083015161479860e0860182614477565b506101008301516147ad61010086018261440f565b506101208301518482036101208601526147c7828261459d565b9150506101408301518482036101408601526147e38282614616565b9150506101608301516147fa61016086018261434d565b5061018083015161480f610180860182614477565b506101a08301518482036101a08601526145cf82826146a7565b6000612bfd83836146f0565b600061483f825190565b808452602084019350836020820285016148598560200190565b8060005b8581101561452b57848403895281516148768582614829565b94506020830160209a909a019992505060010161485d565b60208082528101612bfd8184614835565b61016081016148ae828e614477565b81810360208301526148c0818d614389565b90506148cf604083018c6144bd565b6148dc606083018b614477565b6148e9608083018a614477565b6148f660a0830189614477565b61490360c0830188614477565b61491060e083018761440f565b818103610100830152614923818661459d565b905061493361012083018561434d565b614941610140830184614477565b9c9b505050505050505050505050565b60008060006060848603121561496957614969600080fd5b6000614975868661442f565b93505060206149868682870161442f565b9250506040614997868287016143d2565b9150509250925092565b634e487b7160e01b600052604160045260246000fd5b601f19601f83011681018181106001600160401b03821117156149dc576149dc6149a1565b6040525050565b60006149ee60405190565b90506144ad82826149b7565b60006001600160401b03821115614a1357614a136149a1565b5060209081020190565b60006001600160401b03821115614a3657614a366149a1565b601f19601f83011660200192915050565b82818337506000910152565b6000614a66614a6184614a1d565b6149e3565b905082815260208101848484011115614a8157614a81600080fd5b613dba848285614a47565b600082601f830112614aa057614aa0600080fd5b8135613914848260208601614a53565b6000614abe614a61846149fa565b83815290506020808201908402830185811115614add57614add600080fd5b835b81811015614b1d5780356001600160401b03811115614b0057614b00600080fd5b808601614b0d8982614a8c565b8552505060209283019201614adf565b5050509392505050565b600082601f830112614b3b57614b3b600080fd5b8135613914848260208601614ab0565b60008060008060808587031215614b6457614b64600080fd5b84356001600160401b03811115614b7d57614b7d600080fd5b614b8987828801614b27565b94505060208501356001600160401b03811115614ba857614ba8600080fd5b614bb487828801614b27565b9350506040614bc5878288016143d2565b92505060608501356001600160401b03811115614be457614be4600080fd5b614bf087828801614a8c565b91505092959194509250565b600060208284031215614c1157614c11600080fd5b6000613914848461442f565b6020810161053b8284614477565b60008060408385031215614c4157614c41600080fd5b600061445c85856143d2565b801515614316565b803561053b81614c4d565b60008060408385031215614c7657614c76600080fd5b6000614c82858561442f565b925050602061446d85828601614c55565b60008060008060808587031215614cac57614cac600080fd5b6000614cb8878761442f565b9450506020614bb48782880161442f565b8051600090610140840190614cde8582614477565b506020830151614cf160208601826144bd565b506040830151614d046040860182614477565b506060830151614d176060860182614477565b506080830151614d2a6080860182614477565b5060a083015184820360a0860152614d428282614544565b91505060c0830151614d5760c0860182614477565b5060e0830151614d6a60e086018261440f565b50610100830151614d7f61010086018261434d565b50610120830151613dba610120860182614477565b6000612bfd8383614cc9565b6000614daa825190565b80845260208401935083602082028501614dc48560200190565b8060005b8581101561452b5784840389528151614de18582614d94565b94506020830160209a909a0199925050600101614dc8565b60208082528101612bfd8184614da0565b60008060408385031215614e2057614e20600080fd5b6000614e2c858561442f565b925050602061446d8582860161442f565b6000614e4b614a61846149fa565b83815290506020808201908402830185811115614e6a57614e6a600080fd5b835b81811015614b1d5780356001600160401b03811115614e8d57614e8d600080fd5b808601614e9a8982614b27565b8552505060209283019201614e6c565b600082601f830112614ebe57614ebe600080fd5b8135613914848260208601614e3d565b60008060008060008060c08789031215614eea57614eea600080fd5b6000614ef689896143d2565b9650506020614f0789828a016143d2565b9550506040614f1889828a016143d2565b94505060608701356001600160401b03811115614f3757614f37600080fd5b614f4389828a01614eaa565b9350506080614f5489828a016143d2565b92505060a0614f6589828a01614c55565b9150509295509295509295565b634e487b7160e01b600052602260045260246000fd5b600281046001821680614f9c57607f821691505b602082108103614fae57614fae614f72565b50919050565b602181526000602082017f4552433732313a20617070726f76616c20746f2063757272656e74206f776e658152603960f91b602082015291505b5060400190565b6020808252810161053b81614fb4565b603d81526000602082017f4552433732313a20617070726f76652063616c6c6572206973206e6f7420746f81527f6b656e206f776e6572206f7220617070726f76656420666f7220616c6c00000060208201529150614fee565b6020808252810161053b81615005565b634e487b7160e01b600052603260045260246000fd5b634e487b7160e01b600052601160045260246000fd5b600060001982036150ae576150ae615085565b5060010190565b600061053b6150c18381565b90565b6150cd836150b5565b81546008840282811b60001990911b908116901990911617825550505050565b60006106838184846150c4565b81811015611af05761510d6000826150ed565b6001016150fa565b601f821115610683576000818152602090206020601f8501048101602085101561513c5750805b6119ca6020601f8601048301826150fa565b81516001600160401b03811115615167576151676149a1565b6151718254614f88565b61517c828285615115565b6020601f8311600181146151b057600084156151985750858201515b600019600886021c1981166002860217865550615209565b600085815260208120601f198616915b828110156151e057888501518255602094850194600190920191016151c0565b868310156151fc5784890151600019601f89166008021c191682555b6001600288020188555050505b505050505050565b601881526000602082017f4552433732313a20696e76616c696420746f6b656e2049440000000000000000815291505b5060200190565b6020808252810161053b81615211565b602981526000602082017f4552433732313a2061646472657373207a65726f206973206e6f7420612076618152683634b21037bbb732b960b91b60208201529150614fee565b6020808252810161053b81615258565b600d81526000602082016c1058d8d95cdcc819195b9a5959609a1b81529150615241565b6020808252810161053b816152ae565b805161053b816143cc565b60006020828403121561530257615302600080fd5b600061391484846152e2565b601f81526000602082017f596f752063616e27742072656e7420796f7572206f776e2070726f6a6563740081529150615241565b6020808252810161053b8161530e565b601581526000602082017450726f6a656374206973206e6f742061637469766560581b81529150615241565b6020808252810161053b81615352565b6016815260006020820175141c9bda9958dd081a5cdb89dd08199bdc881c995b9d60521b81529150615241565b6020808252810161053b8161538e565b601781526000602082017f52656e7420707269636520697320696e636f727265637400000000000000000081529150615241565b6020808252810161053b816153cb565b8082018082111561053b5761053b615085565b602381526000602082017f596f752063616e206f6e6c79206275726e20796f7572206f776e2070726f6a6581526263747360e81b60208201529150614fee565b6020808252810161053b81615422565b634e487b7160e01b600052601260045260246000fd5b60008261549757615497615472565b500490565b600081546154a981614f88565b8085526020850194506001821680156154c957600181146154df5761550d565b60ff19831686526020821515028601935061550d565b60008581526020902060005b83811015615507578154888201526001909101906020016154eb565b87019450505b50505092915050565b6000612bfd838361549c565b600061552c825490565b8084526020840193508360208202850161554c8560009081526020902090565b8060005b8581101561452b578484038952816155688582615516565b60209a909a019994505060019182019101615550565b6000612bfd8383615522565b6000615594825490565b808452602084019350836020820285016155b48560009081526020902090565b8060005b8581101561452b578484038952816155d0858261557e565b60209a909a0199945050600191820191016155b8565b61014081016155f5828d614477565b615602602083018c6144bd565b61560f604083018b614477565b61561c606083018a614477565b6156296080830189614477565b81810360a083015261563b818861558a565b905061564a60c0830187614477565b61565760e083018661440f565b61566561010083018561434d565b615673610120830184614477565b9b9a5050505050505050505050565b602d81526000602082017f4552433732313a2063616c6c6572206973206e6f7420746f6b656e206f776e6581526c1c881bdc88185c1c1c9bdd9959609a1b60208201529150614fee565b6020808252810161053b81615682565b602e81526000602082017f45524337323155524953746f726167653a2055524920736574206f66206e6f6e81526d32bc34b9ba32b73a103a37b5b2b760911b60208201529150614fee565b6020808252810161053b816156dc565b601981526000602082017f4552433732313a20617070726f766520746f2063616c6c65720000000000000081529150615241565b6020808252810161053b81615737565b6000615785825190565b615793818560208601614365565b9290920192915050565b60006157a9828561577b565b9150613914828461577b565b602581526000602082017f4552433732313a207472616e736665722066726f6d20696e636f72726563742081526437bbb732b960d91b60208201529150614fee565b6020808252810161053b816157b5565b602481526000602082017f4552433732313a207472616e7366657220746f20746865207a65726f206164648152637265737360e01b60208201529150614fee565b6020808252810161053b81615807565b603281526000602082017f4552433732313a207472616e7366657220746f206e6f6e20455243373231526581527131b2b4bb32b91034b6b83632b6b2b73a32b960711b60208201529150614fee565b6020808252810161053b81615858565b608081016158c5828761440f565b6158d2602083018661440f565b6158df6040830185614477565b81810360608301526158f18184614389565b9695505050505050565b805161053b8161430a565b60006020828403121561591b5761591b600080fd5b600061391484846158fb565b60208082527f4552433732313a206d696e7420746f20746865207a65726f206164647265737391019081526000615241565b6020808252810161053b81615927565b601c81526000602082017f4552433732313a20746f6b656e20616c7265616479206d696e7465640000000081529150615241565b6020808252810161053b8161596956fea2646970667358221220a710e47bf22423f6c72e6768e0197bcf0ec795ccc33d2595f277acbc7e9bffe464736f6c63430008110033",
	"devdoc": {
		"kind": "dev",
		"methods": {
			"approve(address,uint256)": {
				"details": "See {IERC721-approve}."
			},
			"balanceOf(address)": {
				"details": "See {IERC721-balanceOf}."
			},
			"getApproved(uint256)": {
				"details": "See {IERC721-getApproved}."
			},
			"isApprovedForAll(address,address)": {
				"details": "See {IERC721-isApprovedForAll}."
			},
			"name()": {
				"details": "See {IERC721Metadata-name}."
			},
			"ownerOf(uint256)": {
				"details": "See {IERC721-ownerOf}."
			},
			"setApprovalForAll(address,bool)": {
				"details": "See {IERC721-setApprovalForAll}."
			},
			"symbol()": {
				"details": "See {IERC721Metadata-symbol}."
			}
		},
		"version": 1
	},
	"userdoc": {
		"kind": "user",
		"methods": {},
		"version": 1
	},
	"storageLayout": {
		"storage": [
			{
				"astId": 53,
				"contract": "contracts/BIOrbit.sol:BIOrbit",
				"label": "_name",
				"offset": 0,
				"slot": "0",
				"type": "t_string_storage"
			},
			{
				"astId": 55,
				"contract": "contracts/BIOrbit.sol:BIOrbit",
				"label": "_symbol",
				"offset": 0,
				"slot": "1",
				"type": "t_string_storage"
			},
			{
				"astId": 59,
				"contract": "contracts/BIOrbit.sol:BIOrbit",
				"label": "_owners",
				"offset": 0,
				"slot": "2",
				"type": "t_mapping(t_uint256,t_address)"
			},
			{
				"astId": 63,
				"contract": "contracts/BIOrbit.sol:BIOrbit",
				"label": "_balances",
				"offset": 0,
				"slot": "3",
				"type": "t_mapping(t_address,t_uint256)"
			},
			{
				"astId": 67,
				"contract": "contracts/BIOrbit.sol:BIOrbit",
				"label": "_tokenApprovals",
				"offset": 0,
				"slot": "4",
				"type": "t_mapping(t_uint256,t_address)"
			},
			{
				"astId": 73,
				"contract": "contracts/BIOrbit.sol:BIOrbit",
				"label": "_operatorApprovals",
				"offset": 0,
				"slot": "5",
				"type": "t_mapping(t_address,t_mapping(t_address,t_bool))"
			},
			{
				"astId": 1104,
				"contract": "contracts/BIOrbit.sol:BIOrbit",
				"label": "_tokenURIs",
				"offset": 0,
				"slot": "6",
				"type": "t_mapping(t_uint256,t_string_storage)"
			},
			{
				"astId": 2956,
				"contract": "contracts/BIOrbit.sol:BIOrbit",
				"label": "projectIdCounter",
				"offset": 0,
				"slot": "7",
				"type": "t_struct(Counter)1629_storage"
			},
			{
				"astId": 2958,
				"contract": "contracts/BIOrbit.sol:BIOrbit",
				"label": "dataFeedsAddress",
				"offset": 0,
				"slot": "8",
				"type": "t_address"
			},
			{
				"astId": 2961,
				"contract": "contracts/BIOrbit.sol:BIOrbit",
				"label": "rentTime",
				"offset": 0,
				"slot": "9",
				"type": "t_uint256"
			},
			{
				"astId": 3049,
				"contract": "contracts/BIOrbit.sol:BIOrbit",
				"label": "Projects",
				"offset": 0,
				"slot": "10",
				"type": "t_mapping(t_uint256,t_struct(Project)3020_storage)"
			}
		],
		"types": {
			"t_address": {
				"encoding": "inplace",
				"label": "address",
				"numberOfBytes": "20"
			},
			"t_array(t_array(t_string_storage)dyn_storage)dyn_storage": {
				"base": "t_array(t_string_storage)dyn_storage",
				"encoding": "dynamic_array",
				"label": "string[][]",
				"numberOfBytes": "32"
			},
			"t_array(t_string_storage)dyn_storage": {
				"base": "t_string_storage",
				"encoding": "dynamic_array",
				"label": "string[]",
				"numberOfBytes": "32"
			},
			"t_array(t_struct(Monitoring)2976_storage)dyn_storage": {
				"base": "t_struct(Monitoring)2976_storage",
				"encoding": "dynamic_array",
				"label": "struct BIOrbit.Monitoring[]",
				"numberOfBytes": "32"
			},
			"t_array(t_struct(RentInfo)2971_storage)dyn_storage": {
				"base": "t_struct(RentInfo)2971_storage",
				"encoding": "dynamic_array",
				"label": "struct BIOrbit.RentInfo[]",
				"numberOfBytes": "32"
			},
			"t_bool": {
				"encoding": "inplace",
				"label": "bool",
				"numberOfBytes": "1"
			},
			"t_bytes32": {
				"encoding": "inplace",
				"label": "bytes32",
				"numberOfBytes": "32"
			},
			"t_enum(State)2966": {
				"encoding": "inplace",
				"label": "enum BIOrbit.State",
				"numberOfBytes": "1"
			},
			"t_mapping(t_address,t_bool)": {
				"encoding": "mapping",
				"key": "t_address",
				"label": "mapping(address => bool)",
				"numberOfBytes": "32",
				"value": "t_bool"
			},
			"t_mapping(t_address,t_mapping(t_address,t_bool))": {
				"encoding": "mapping",
				"key": "t_address",
				"label": "mapping(address => mapping(address => bool))",
				"numberOfBytes": "32",
				"value": "t_mapping(t_address,t_bool)"
			},
			"t_mapping(t_address,t_uint256)": {
				"encoding": "mapping",
				"key": "t_address",
				"label": "mapping(address => uint256)",
				"numberOfBytes": "32",
				"value": "t_uint256"
			},
			"t_mapping(t_uint256,t_address)": {
				"encoding": "mapping",
				"key": "t_uint256",
				"label": "mapping(uint256 => address)",
				"numberOfBytes": "32",
				"value": "t_address"
			},
			"t_mapping(t_uint256,t_string_storage)": {
				"encoding": "mapping",
				"key": "t_uint256",
				"label": "mapping(uint256 => string)",
				"numberOfBytes": "32",
				"value": "t_string_storage"
			},
			"t_mapping(t_uint256,t_struct(Project)3020_storage)": {
				"encoding": "mapping",
				"key": "t_uint256",
				"label": "mapping(uint256 => struct BIOrbit.Project)",
				"numberOfBytes": "32",
				"value": "t_struct(Project)3020_storage"
			},
			"t_string_storage": {
				"encoding": "bytes",
				"label": "string",
				"numberOfBytes": "32"
			},
			"t_struct(Counter)1629_storage": {
				"encoding": "inplace",
				"label": "struct Counters.Counter",
				"members": [
					{
						"astId": 1628,
						"contract": "contracts/BIOrbit.sol:BIOrbit",
						"label": "_value",
						"offset": 0,
						"slot": "0",
						"type": "t_uint256"
					}
				],
				"numberOfBytes": "32"
			},
			"t_struct(ImageTimeSeries)2983_storage": {
				"encoding": "inplace",
				"label": "struct BIOrbit.ImageTimeSeries",
				"members": [
					{
						"astId": 2979,
						"contract": "contracts/BIOrbit.sol:BIOrbit",
						"label": "detectionDate",
						"offset": 0,
						"slot": "0",
						"type": "t_array(t_string_storage)dyn_storage"
					},
					{
						"astId": 2982,
						"contract": "contracts/BIOrbit.sol:BIOrbit",
						"label": "forestCoverExtension",
						"offset": 0,
						"slot": "1",
						"type": "t_array(t_string_storage)dyn_storage"
					}
				],
				"numberOfBytes": "64"
			},
			"t_struct(Monitoring)2976_storage": {
				"encoding": "inplace",
				"label": "struct BIOrbit.Monitoring",
				"members": [
					{
						"astId": 2973,
						"contract": "contracts/BIOrbit.sol:BIOrbit",
						"label": "detectionDate",
						"offset": 0,
						"slot": "0",
						"type": "t_string_storage"
					},
					{
						"astId": 2975,
						"contract": "contracts/BIOrbit.sol:BIOrbit",
						"label": "forestCoverExtension",
						"offset": 0,
						"slot": "1",
						"type": "t_string_storage"
					}
				],
				"numberOfBytes": "64"
			},
			"t_struct(Project)3020_storage": {
				"encoding": "inplace",
				"label": "struct BIOrbit.Project",
				"members": [
					{
						"astId": 2985,
						"contract": "contracts/BIOrbit.sol:BIOrbit",
						"label": "id",
						"offset": 0,
						"slot": "0",
						"type": "t_uint256"
					},
					{
						"astId": 2987,
						"contract": "contracts/BIOrbit.sol:BIOrbit",
						"label": "uri",
						"offset": 0,
						"slot": "1",
						"type": "t_string_storage"
					},
					{
						"astId": 2990,
						"contract": "contracts/BIOrbit.sol:BIOrbit",
						"label": "state",
						"offset": 0,
						"slot": "2",
						"type": "t_enum(State)2966"
					},
					{
						"astId": 2992,
						"contract": "contracts/BIOrbit.sol:BIOrbit",
						"label": "name",
						"offset": 0,
						"slot": "3",
						"type": "t_bytes32"
					},
					{
						"astId": 2994,
						"contract": "contracts/BIOrbit.sol:BIOrbit",
						"label": "description",
						"offset": 0,
						"slot": "4",
						"type": "t_bytes32"
					},
					{
						"astId": 2996,
						"contract": "contracts/BIOrbit.sol:BIOrbit",
						"label": "extension",
						"offset": 0,
						"slot": "5",
						"type": "t_bytes32"
					},
					{
						"astId": 3000,
						"contract": "contracts/BIOrbit.sol:BIOrbit",
						"label": "footprint",
						"offset": 0,
						"slot": "6",
						"type": "t_array(t_array(t_string_storage)dyn_storage)dyn_storage"
					},
					{
						"astId": 3002,
						"contract": "contracts/BIOrbit.sol:BIOrbit",
						"label": "country",
						"offset": 0,
						"slot": "7",
						"type": "t_bytes32"
					},
					{
						"astId": 3004,
						"contract": "contracts/BIOrbit.sol:BIOrbit",
						"label": "owner",
						"offset": 0,
						"slot": "8",
						"type": "t_address"
					},
					{
						"astId": 3007,
						"contract": "contracts/BIOrbit.sol:BIOrbit",
						"label": "imageTimeSeries",
						"offset": 0,
						"slot": "9",
						"type": "t_struct(ImageTimeSeries)2983_storage"
					},
					{
						"astId": 3011,
						"contract": "contracts/BIOrbit.sol:BIOrbit",
						"label": "monitoring",
						"offset": 0,
						"slot": "11",
						"type": "t_array(t_struct(Monitoring)2976_storage)dyn_storage"
					},
					{
						"astId": 3013,
						"contract": "contracts/BIOrbit.sol:BIOrbit",
						"label": "isRent",
						"offset": 0,
						"slot": "12",
						"type": "t_bool"
					},
					{
						"astId": 3015,
						"contract": "contracts/BIOrbit.sol:BIOrbit",
						"label": "rentCost",
						"offset": 0,
						"slot": "13",
						"type": "t_uint256"
					},
					{
						"astId": 3019,
						"contract": "contracts/BIOrbit.sol:BIOrbit",
						"label": "rentInfo",
						"offset": 0,
						"slot": "14",
						"type": "t_array(t_struct(RentInfo)2971_storage)dyn_storage"
					}
				],
				"numberOfBytes": "480"
			},
			"t_struct(RentInfo)2971_storage": {
				"encoding": "inplace",
				"label": "struct BIOrbit.RentInfo",
				"members": [
					{
						"astId": 2968,
						"contract": "contracts/BIOrbit.sol:BIOrbit",
						"label": "renter",
						"offset": 0,
						"slot": "0",
						"type": "t_address"
					},
					{
						"astId": 2970,
						"contract": "contracts/BIOrbit.sol:BIOrbit",
						"label": "expiry",
						"offset": 0,
						"slot": "1",
						"type": "t_uint256"
					}
				],
				"numberOfBytes": "64"
			},
			"t_uint256": {
				"encoding": "inplace",
				"label": "uint256",
				"numberOfBytes": "32"
			}
		}
	}
}