{
	"address": "0x43676d4D522924764C38b5aA3068714124BE5214",
	"abi": [
		{
			"inputs": [],
			"stateMutability": "nonpayable",
			"type": "constructor"
		},
		{
			"anonymous": false,
			"inputs": [
				{
					"indexed": true,
					"internalType": "address",
					"name": "owner",
					"type": "address"
				},
				{
					"indexed": true,
					"internalType": "address",
					"name": "approved",
					"type": "address"
				},
				{
					"indexed": true,
					"internalType": "uint256",
					"name": "tokenId",
					"type": "uint256"
				}
			],
			"name": "Approval",
			"type": "event"
		},
		{
			"anonymous": false,
			"inputs": [
				{
					"indexed": true,
					"internalType": "address",
					"name": "owner",
					"type": "address"
				},
				{
					"indexed": true,
					"internalType": "address",
					"name": "operator",
					"type": "address"
				},
				{
					"indexed": false,
					"internalType": "bool",
					"name": "approved",
					"type": "bool"
				}
			],
			"name": "ApprovalForAll",
			"type": "event"
		},
		{
			"anonymous": false,
			"inputs": [
				{
					"indexed": false,
					"internalType": "uint256",
					"name": "_fromTokenId",
					"type": "uint256"
				},
				{
					"indexed": false,
					"internalType": "uint256",
					"name": "_toTokenId",
					"type": "uint256"
				}
			],
			"name": "BatchMetadataUpdate",
			"type": "event"
		},
		{
			"anonymous": false,
			"inputs": [
				{
					"indexed": false,
					"internalType": "uint256",
					"name": "_tokenId",
					"type": "uint256"
				}
			],
			"name": "MetadataUpdate",
			"type": "event"
		},
		{
			"anonymous": false,
			"inputs": [
				{
					"indexed": false,
					"internalType": "uint256",
					"name": "id",
					"type": "uint256"
				},
				{
					"indexed": false,
					"internalType": "enum BIOrbit.State",
					"name": "state",
					"type": "uint8"
				},
				{
					"indexed": false,
					"internalType": "string",
					"name": "name",
					"type": "string"
				},
				{
					"indexed": false,
					"internalType": "string",
					"name": "description",
					"type": "string"
				},
				{
					"indexed": false,
					"internalType": "string",
					"name": "extension",
					"type": "string"
				},
				{
					"indexed": false,
					"internalType": "string[][]",
					"name": "footprint",
					"type": "string[][]"
				},
				{
					"indexed": false,
					"internalType": "string",
					"name": "country",
					"type": "string"
				},
				{
					"indexed": false,
					"internalType": "address",
					"name": "owner",
					"type": "address"
				}
			],
			"name": "ProjectCreated",
			"type": "event"
		},
		{
			"anonymous": false,
			"inputs": [
				{
					"indexed": true,
					"internalType": "bytes32",
					"name": "role",
					"type": "bytes32"
				},
				{
					"indexed": true,
					"internalType": "bytes32",
					"name": "previousAdminRole",
					"type": "bytes32"
				},
				{
					"indexed": true,
					"internalType": "bytes32",
					"name": "newAdminRole",
					"type": "bytes32"
				}
			],
			"name": "RoleAdminChanged",
			"type": "event"
		},
		{
			"anonymous": false,
			"inputs": [
				{
					"indexed": true,
					"internalType": "bytes32",
					"name": "role",
					"type": "bytes32"
				},
				{
					"indexed": true,
					"internalType": "address",
					"name": "account",
					"type": "address"
				},
				{
					"indexed": true,
					"internalType": "address",
					"name": "sender",
					"type": "address"
				}
			],
			"name": "RoleGranted",
			"type": "event"
		},
		{
			"anonymous": false,
			"inputs": [
				{
					"indexed": true,
					"internalType": "bytes32",
					"name": "role",
					"type": "bytes32"
				},
				{
					"indexed": true,
					"internalType": "address",
					"name": "account",
					"type": "address"
				},
				{
					"indexed": true,
					"internalType": "address",
					"name": "sender",
					"type": "address"
				}
			],
			"name": "RoleRevoked",
			"type": "event"
		},
		{
			"anonymous": false,
			"inputs": [
				{
					"indexed": true,
					"internalType": "address",
					"name": "from",
					"type": "address"
				},
				{
					"indexed": true,
					"internalType": "address",
					"name": "to",
					"type": "address"
				},
				{
					"indexed": true,
					"internalType": "uint256",
					"name": "tokenId",
					"type": "uint256"
				}
			],
			"name": "Transfer",
			"type": "event"
		},
		{
			"inputs": [],
			"name": "ADMIN_ROLE",
			"outputs": [
				{
					"internalType": "bytes32",
					"name": "",
					"type": "bytes32"
				}
			],
			"stateMutability": "view",
			"type": "function"
		},
		{
			"inputs": [],
			"name": "DEFAULT_ADMIN_ROLE",
			"outputs": [
				{
					"internalType": "bytes32",
					"name": "",
					"type": "bytes32"
				}
			],
			"stateMutability": "view",
			"type": "function"
		},
		{
			"inputs": [
				{
					"internalType": "uint256",
					"name": "",
					"type": "uint256"
				}
			],
			"name": "Projects",
			"outputs": [
				{
					"internalType": "uint256",
					"name": "id",
					"type": "uint256"
				},
				{
					"internalType": "string",
					"name": "uri",
					"type": "string"
				},
				{
					"internalType": "enum BIOrbit.State",
					"name": "state",
					"type": "uint8"
				},
				{
					"internalType": "string",
					"name": "name",
					"type": "string"
				},
				{
					"internalType": "string",
					"name": "description",
					"type": "string"
				},
				{
					"internalType": "string",
					"name": "extension",
					"type": "string"
				},
				{
					"internalType": "string",
					"name": "country",
					"type": "string"
				},
				{
					"internalType": "address",
					"name": "owner",
					"type": "address"
				},
				{
					"components": [
						{
							"internalType": "string[]",
							"name": "detectionDate",
							"type": "string[]"
						},
						{
							"internalType": "string[]",
							"name": "forestCoverExtension",
							"type": "string[]"
						}
					],
					"internalType": "struct BIOrbit.ImageTimeSeries",
					"name": "imageTimeSeries",
					"type": "tuple"
				}
			],
			"stateMutability": "view",
			"type": "function"
		},
		{
			"inputs": [
				{
					"internalType": "address",
					"name": "to",
					"type": "address"
				},
				{
					"internalType": "uint256",
					"name": "tokenId",
					"type": "uint256"
				}
			],
			"name": "approve",
			"outputs": [],
			"stateMutability": "nonpayable",
			"type": "function"
		},
		{
			"inputs": [
				{
					"internalType": "address",
					"name": "owner",
					"type": "address"
				}
			],
			"name": "balanceOf",
			"outputs": [
				{
					"internalType": "uint256",
					"name": "",
					"type": "uint256"
				}
			],
			"stateMutability": "view",
			"type": "function"
		},
		{
			"inputs": [
				{
					"internalType": "uint256",
					"name": "tokenId",
					"type": "uint256"
				}
			],
			"name": "getApproved",
			"outputs": [
				{
					"internalType": "address",
					"name": "",
					"type": "address"
				}
			],
			"stateMutability": "view",
			"type": "function"
		},
		{
			"inputs": [
				{
					"internalType": "uint256",
					"name": "_projectId",
					"type": "uint256"
				}
			],
			"name": "getDetectionDatesAndForestCoverExtensionsByProjectId",
			"outputs": [
				{
					"internalType": "string[][]",
					"name": "",
					"type": "string[][]"
				}
			],
			"stateMutability": "view",
			"type": "function"
		},
		{
			"inputs": [],
			"name": "getProjects",
			"outputs": [
				{
					"components": [
						{
							"internalType": "uint256",
							"name": "id",
							"type": "uint256"
						},
						{
							"internalType": "string",
							"name": "uri",
							"type": "string"
						},
						{
							"internalType": "enum BIOrbit.State",
							"name": "state",
							"type": "uint8"
						},
						{
							"internalType": "string",
							"name": "name",
							"type": "string"
						},
						{
							"internalType": "string",
							"name": "description",
							"type": "string"
						},
						{
							"internalType": "string",
							"name": "extension",
							"type": "string"
						},
						{
							"internalType": "string[][]",
							"name": "footprint",
							"type": "string[][]"
						},
						{
							"internalType": "string",
							"name": "country",
							"type": "string"
						},
						{
							"internalType": "address",
							"name": "owner",
							"type": "address"
						},
						{
							"components": [
								{
									"internalType": "string[]",
									"name": "detectionDate",
									"type": "string[]"
								},
								{
									"internalType": "string[]",
									"name": "forestCoverExtension",
									"type": "string[]"
								}
							],
							"internalType": "struct BIOrbit.ImageTimeSeries",
							"name": "imageTimeSeries",
							"type": "tuple"
						},
						{
							"components": [
								{
									"internalType": "string",
									"name": "detectionDate",
									"type": "string"
								},
								{
									"internalType": "string",
									"name": "forestCoverExtension",
									"type": "string"
								}
							],
							"internalType": "struct BIOrbit.Monitoring[]",
							"name": "monitoring",
							"type": "tuple[]"
						}
					],
					"internalType": "struct BIOrbit.Project[]",
					"name": "",
					"type": "tuple[]"
				}
			],
			"stateMutability": "view",
			"type": "function"
		},
		{
			"inputs": [],
			"name": "getProjectsByOwner",
			"outputs": [
				{
					"components": [
						{
							"internalType": "uint256",
							"name": "id",
							"type": "uint256"
						},
						{
							"internalType": "string",
							"name": "uri",
							"type": "string"
						},
						{
							"internalType": "enum BIOrbit.State",
							"name": "state",
							"type": "uint8"
						},
						{
							"internalType": "string",
							"name": "name",
							"type": "string"
						},
						{
							"internalType": "string",
							"name": "description",
							"type": "string"
						},
						{
							"internalType": "string",
							"name": "extension",
							"type": "string"
						},
						{
							"internalType": "string[][]",
							"name": "footprint",
							"type": "string[][]"
						},
						{
							"internalType": "string",
							"name": "country",
							"type": "string"
						},
						{
							"internalType": "address",
							"name": "owner",
							"type": "address"
						},
						{
							"components": [
								{
									"internalType": "string[]",
									"name": "detectionDate",
									"type": "string[]"
								},
								{
									"internalType": "string[]",
									"name": "forestCoverExtension",
									"type": "string[]"
								}
							],
							"internalType": "struct BIOrbit.ImageTimeSeries",
							"name": "imageTimeSeries",
							"type": "tuple"
						},
						{
							"components": [
								{
									"internalType": "string",
									"name": "detectionDate",
									"type": "string"
								},
								{
									"internalType": "string",
									"name": "forestCoverExtension",
									"type": "string"
								}
							],
							"internalType": "struct BIOrbit.Monitoring[]",
							"name": "monitoring",
							"type": "tuple[]"
						}
					],
					"internalType": "struct BIOrbit.Project[]",
					"name": "",
					"type": "tuple[]"
				}
			],
			"stateMutability": "view",
			"type": "function"
		},
		{
			"inputs": [
				{
					"internalType": "bytes32",
					"name": "role",
					"type": "bytes32"
				}
			],
			"name": "getRoleAdmin",
			"outputs": [
				{
					"internalType": "bytes32",
					"name": "",
					"type": "bytes32"
				}
			],
			"stateMutability": "view",
			"type": "function"
		},
		{
			"inputs": [
				{
					"internalType": "bytes32",
					"name": "role",
					"type": "bytes32"
				},
				{
					"internalType": "address",
					"name": "account",
					"type": "address"
				}
			],
			"name": "grantRole",
			"outputs": [],
			"stateMutability": "nonpayable",
			"type": "function"
		},
		{
			"inputs": [
				{
					"internalType": "bytes32",
					"name": "role",
					"type": "bytes32"
				},
				{
					"internalType": "address",
					"name": "account",
					"type": "address"
				}
			],
			"name": "hasRole",
			"outputs": [
				{
					"internalType": "bool",
					"name": "",
					"type": "bool"
				}
			],
			"stateMutability": "view",
			"type": "function"
		},
		{
			"inputs": [
				{
					"internalType": "address",
					"name": "owner",
					"type": "address"
				},
				{
					"internalType": "address",
					"name": "operator",
					"type": "address"
				}
			],
			"name": "isApprovedForAll",
			"outputs": [
				{
					"internalType": "bool",
					"name": "",
					"type": "bool"
				}
			],
			"stateMutability": "view",
			"type": "function"
		},
		{
			"inputs": [
				{
					"internalType": "string",
					"name": "_name",
					"type": "string"
				},
				{
					"internalType": "string",
					"name": "_description",
					"type": "string"
				},
				{
					"internalType": "string",
					"name": "_extension",
					"type": "string"
				},
				{
					"internalType": "string[][]",
					"name": "_footprint",
					"type": "string[][]"
				},
				{
					"internalType": "string",
					"name": "_country",
					"type": "string"
				}
			],
			"name": "mintProject",
			"outputs": [],
			"stateMutability": "payable",
			"type": "function"
		},
		{
			"inputs": [],
			"name": "name",
			"outputs": [
				{
					"internalType": "string",
					"name": "",
					"type": "string"
				}
			],
			"stateMutability": "view",
			"type": "function"
		},
		{
			"inputs": [
				{
					"internalType": "uint256",
					"name": "tokenId",
					"type": "uint256"
				}
			],
			"name": "ownerOf",
			"outputs": [
				{
					"internalType": "address",
					"name": "",
					"type": "address"
				}
			],
			"stateMutability": "view",
			"type": "function"
		},
		{
			"inputs": [],
			"name": "projectIdCounter",
			"outputs": [
				{
					"internalType": "uint256",
					"name": "_value",
					"type": "uint256"
				}
			],
			"stateMutability": "view",
			"type": "function"
		},
		{
			"inputs": [
				{
					"internalType": "bytes32",
					"name": "role",
					"type": "bytes32"
				},
				{
					"internalType": "address",
					"name": "account",
					"type": "address"
				}
			],
			"name": "renounceRole",
			"outputs": [],
			"stateMutability": "nonpayable",
			"type": "function"
		},
		{
			"inputs": [
				{
					"internalType": "bytes32",
					"name": "role",
					"type": "bytes32"
				},
				{
					"internalType": "address",
					"name": "account",
					"type": "address"
				}
			],
			"name": "revokeRole",
			"outputs": [],
			"stateMutability": "nonpayable",
			"type": "function"
		},
		{
			"inputs": [
				{
					"internalType": "address",
					"name": "from",
					"type": "address"
				},
				{
					"internalType": "address",
					"name": "to",
					"type": "address"
				},
				{
					"internalType": "uint256",
					"name": "tokenId",
					"type": "uint256"
				}
			],
			"name": "safeTransferFrom",
			"outputs": [],
			"stateMutability": "nonpayable",
			"type": "function"
		},
		{
			"inputs": [
				{
					"internalType": "address",
					"name": "from",
					"type": "address"
				},
				{
					"internalType": "address",
					"name": "to",
					"type": "address"
				},
				{
					"internalType": "uint256",
					"name": "tokenId",
					"type": "uint256"
				},
				{
					"internalType": "bytes",
					"name": "_data",
					"type": "bytes"
				}
			],
			"name": "safeTransferFrom",
			"outputs": [],
			"stateMutability": "nonpayable",
			"type": "function"
		},
		{
			"inputs": [
				{
					"internalType": "address",
					"name": "operator",
					"type": "address"
				},
				{
					"internalType": "bool",
					"name": "approved",
					"type": "bool"
				}
			],
			"name": "setApprovalForAll",
			"outputs": [],
			"stateMutability": "nonpayable",
			"type": "function"
		},
		{
			"inputs": [
				{
					"internalType": "string[]",
					"name": "_detectionDate",
					"type": "string[]"
				},
				{
					"internalType": "string[]",
					"name": "_forestCoverExtension",
					"type": "string[]"
				},
				{
					"internalType": "uint256",
					"name": "_projectId",
					"type": "uint256"
				},
				{
					"internalType": "string",
					"name": "_tokenURI",
					"type": "string"
				}
			],
			"name": "setTokenURI",
			"outputs": [],
			"stateMutability": "nonpayable",
			"type": "function"
		},
		{
			"inputs": [
				{
					"internalType": "bytes4",
					"name": "interfaceId",
					"type": "bytes4"
				}
			],
			"name": "supportsInterface",
			"outputs": [
				{
					"internalType": "bool",
					"name": "",
					"type": "bool"
				}
			],
			"stateMutability": "view",
			"type": "function"
		},
		{
			"inputs": [],
			"name": "symbol",
			"outputs": [
				{
					"internalType": "string",
					"name": "",
					"type": "string"
				}
			],
			"stateMutability": "view",
			"type": "function"
		},
		{
			"inputs": [
				{
					"internalType": "uint256",
					"name": "tokenId",
					"type": "uint256"
				}
			],
			"name": "tokenURI",
			"outputs": [
				{
					"internalType": "string",
					"name": "",
					"type": "string"
				}
			],
			"stateMutability": "view",
			"type": "function"
		},
		{
			"inputs": [
				{
					"internalType": "address",
					"name": "from",
					"type": "address"
				},
				{
					"internalType": "address",
					"name": "to",
					"type": "address"
				},
				{
					"internalType": "uint256",
					"name": "tokenId",
					"type": "uint256"
				}
			],
			"name": "transferFrom",
			"outputs": [],
			"stateMutability": "nonpayable",
			"type": "function"
		}
	],
	"transactionHash": "0xf82ea4a5c5c5cf7983afbc229228c59e18746fe183e40276187ea30dff15ff57",
	"args": [],
	"numDeployments": 4,
	"solcInputHash": "a99062d1d82a52172d3a529a8aadc838",
	"bytecode": "0x60806040523480156200001157600080fd5b5060405180604001604052806007815260200166109253dc989a5d60ca1b8152506040518060400160405280600381526020016242494f60e81b81525081600090816200005f91906200027f565b5060016200006e82826200027f565b505050620000a37fa49807205ce4d355092ef5a8a18f56e8913cf4a201fbe287825b095693c2177533620000b660201b60201c565b620000b0600033620000b6565b6200034f565b620000c28282620000c6565b5050565b60008281526007602090815260408083206001600160a01b038516845290915290205460ff16620000c25760008281526007602090815260408083206001600160a01b03851684529091529020805460ff19166001179055620001263390565b6001600160a01b0316816001600160a01b0316837f2f8788117e7eff1d82e926ec794901d17c78024a50270940304540a733656f0d60405160405180910390a45050565b634e487b7160e01b600052604160045260246000fd5b634e487b7160e01b600052602260045260246000fd5b600281046001821680620001ab57607f821691505b602082108103620001c057620001c062000180565b50919050565b6000620001d7620001d48381565b90565b92915050565b620001e883620001c6565b81546008840282811b60001990911b908116901990911617825550505050565b600062000217818484620001dd565b505050565b81811015620000c2576200023260008262000208565b6001016200021c565b601f82111562000217576000818152602090206020601f85010481016020851015620002645750805b620002786020601f8601048301826200021c565b5050505050565b81516001600160401b038111156200029b576200029b6200016a565b620002a7825462000196565b620002b48282856200023b565b6020601f831160018114620002eb5760008415620002d25750858201515b600019600886021c198116600286021786555062000347565b600085815260208120601f198616915b828110156200031d5788850151825560209485019460019092019101620002fb565b868310156200033a5784890151600019601f89166008021c191682555b6001600288020188555050505b505050505050565b614b87806200035f6000396000f3fe60806040526004361061019c5760003560e01c80636352211e116100ec578063b88d4fde1161008a578063d547741f11610064578063d547741f146104c8578063d5977b5e146104e8578063dcc60128146104ff578063e985e9c51461051457600080fd5b8063b88d4fde1461045b578063bf8270fe1461047b578063c87b56dd146104a857600080fd5b806391d14854116100c657806391d14854146103f157806395d89b4114610411578063a217fddf14610426578063a22cb4651461043b57600080fd5b80636352211e1461038f57806370a08231146103af57806375b238fc146103cf57600080fd5b8063248a9ca3116101595780634082fc47116101335780634082fc471461031a57806342842e0e1461032d5780634aae5f4d1461034d57806359886b821461036f57600080fd5b8063248a9ca31461029d5780632f2ff15d146102da57806336568abe146102fa57600080fd5b806301ffc9a7146101a157806306fdde03146101d7578063081812fc146101f9578063095ea7b31461022657806321b2416c1461024857806323b872dd1461027d575b600080fd5b3480156101ad57600080fd5b506101c16101bc366004613662565b61055d565b6040516101ce919061368d565b60405180910390f35b3480156101e357600080fd5b506101ec61056e565b6040516101ce91906136f1565b34801561020557600080fd5b50610219610214366004613713565b610600565b6040516101ce919061374e565b34801561023257600080fd5b50610246610241366004613770565b610627565b005b34801561025457600080fd5b50610268610263366004613713565b6106b5565b6040516101ce999897969594939291906138a9565b34801561028957600080fd5b50610246610298366004613958565b610b6e565b3480156102a957600080fd5b506102cd6102b8366004613713565b60009081526007602052604090206001015490565b6040516101ce91906139a8565b3480156102e657600080fd5b506102466102f53660046139b6565b610bab565b34801561030657600080fd5b506102466103153660046139b6565b610bd0565b610246610328366004613c24565b610c06565b34801561033957600080fd5b50610246610348366004613958565b610cb5565b34801561035957600080fd5b50610362610cc0565b6040516101ce9190613f8d565b34801561037b57600080fd5b5061024661038a366004613f9e565b61153c565b34801561039b57600080fd5b506102196103aa366004613713565b6116ab565b3480156103bb57600080fd5b506102cd6103ca36600461404f565b6116e0565b3480156103db57600080fd5b506102cd600080516020614b3283398151915281565b3480156103fd57600080fd5b506101c161040c3660046139b6565b611724565b34801561041d57600080fd5b506101ec61174f565b34801561043257600080fd5b506102cd600081565b34801561044757600080fd5b50610246610456366004614083565b61175e565b34801561046757600080fd5b506102466104763660046140b6565b611769565b34801561048757600080fd5b5061049b610496366004613713565b6117a8565b6040516101ce9190614145565b3480156104b457600080fd5b506101ec6104c3366004613713565b611d09565b3480156104d457600080fd5b506102466104e33660046139b6565b611d14565b3480156104f457600080fd5b506008546102cd9081565b34801561050b57600080fd5b50610362611d39565b34801561052057600080fd5b506101c161052f366004614156565b6001600160a01b03918216600090815260056020908152604080832093909416825291909152205460ff1690565b6000610568826125c1565b92915050565b60606000805461057d9061418e565b80601f01602080910402602001604051908101604052809291908181526020018280546105a99061418e565b80156105f65780601f106105cb576101008083540402835291602001916105f6565b820191906000526020600020905b8154815290600101906020018083116105d957829003601f168201915b5050505050905090565b600061060b826125e6565b506000908152600460205260409020546001600160a01b031690565b6000610632826116ab565b9050806001600160a01b0316836001600160a01b03160361066e5760405162461bcd60e51b8152600401610665906141fb565b60405180910390fd5b336001600160a01b038216148061068a575061068a813361052f565b6106a65760405162461bcd60e51b815260040161066590614265565b6106b0838361261d565b505050565b600960205260009081526040902080546001820180549192916106d79061418e565b80601f01602080910402602001604051908101604052809291908181526020018280546107039061418e565b80156107505780601f1061072557610100808354040283529160200191610750565b820191906000526020600020905b81548152906001019060200180831161073357829003601f168201915b5050506002840154600385018054949560ff9092169491935091506107749061418e565b80601f01602080910402602001604051908101604052809291908181526020018280546107a09061418e565b80156107ed5780601f106107c2576101008083540402835291602001916107ed565b820191906000526020600020905b8154815290600101906020018083116107d057829003601f168201915b5050505050908060040180546108029061418e565b80601f016020809104026020016040519081016040528092919081815260200182805461082e9061418e565b801561087b5780601f106108505761010080835404028352916020019161087b565b820191906000526020600020905b81548152906001019060200180831161085e57829003601f168201915b5050505050908060050180546108909061418e565b80601f01602080910402602001604051908101604052809291908181526020018280546108bc9061418e565b80156109095780601f106108de57610100808354040283529160200191610909565b820191906000526020600020905b8154815290600101906020018083116108ec57829003601f168201915b50505050509080600701805461091e9061418e565b80601f016020809104026020016040519081016040528092919081815260200182805461094a9061418e565b80156109975780601f1061096c57610100808354040283529160200191610997565b820191906000526020600020905b81548152906001019060200180831161097a57829003601f168201915b50505060088401546040805160098701805460606020820284018101855293830181815297986001600160a01b03909516979496509194509284929091849160009085015b82821015610a885783829060005260206000200180546109fb9061418e565b80601f0160208091040260200160405190810160405280929190818152602001828054610a279061418e565b8015610a745780601f10610a4957610100808354040283529160200191610a74565b820191906000526020600020905b815481529060010190602001808311610a5757829003601f168201915b5050505050815260200190600101906109dc565b50505050815260200160018201805480602002602001604051908101604052809291908181526020016000905b82821015610b61578382906000526020600020018054610ad49061418e565b80601f0160208091040260200160405190810160405280929190818152602001828054610b009061418e565b8015610b4d5780601f10610b2257610100808354040283529160200191610b4d565b820191906000526020600020905b815481529060010190602001808311610b3057829003601f168201915b505050505081526020019060010190610ab5565b5050505081525050905089565b610b7983838361268b565b600090815260096020526040902060080180546001600160a01b0319166001600160a01b039290921691909117905550565b600082815260076020526040902060010154610bc6816126bc565b6106b083836126c6565b6001600160a01b0381163314610bf85760405162461bcd60e51b8152600401610665906142c1565b610c02828261274c565b5050565b6000610c106127b3565b60008181526009602052604090209091506001610c348284838b8b8b8b8b336127ce565b610c3e3384612876565b8154600283015460088401546040517f2f2cd3b0d05e41218db6e35c81868c1bdaebbdab5ffad8f07f6122a3f363f62093610ca393909260ff909116916003880191600489019160058a019160068b019160078c01916001600160a01b03169061441b565b60405180910390a15050505050505050565b610b79838383612890565b60606000610ccd60085490565b90506000816001600160401b03811115610ce957610ce96139e9565b604051908082528060200260200182016040528015610d2257816020015b610d0f613470565b815260200190600190039081610d075790505b509050600060015b8381116115335760008181526009602052604090206008810154336001600160a01b039091160361152057806040518061016001604052908160008201548152602001600182018054610d7c9061418e565b80601f0160208091040260200160405190810160405280929190818152602001828054610da89061418e565b8015610df55780601f10610dca57610100808354040283529160200191610df5565b820191906000526020600020905b815481529060010190602001808311610dd857829003601f168201915b5050509183525050600282015460209091019060ff166003811115610e1c57610e1c6137b3565b6003811115610e2d57610e2d6137b3565b8152602001600382018054610e419061418e565b80601f0160208091040260200160405190810160405280929190818152602001828054610e6d9061418e565b8015610eba5780601f10610e8f57610100808354040283529160200191610eba565b820191906000526020600020905b815481529060010190602001808311610e9d57829003601f168201915b50505050508152602001600482018054610ed39061418e565b80601f0160208091040260200160405190810160405280929190818152602001828054610eff9061418e565b8015610f4c5780601f10610f2157610100808354040283529160200191610f4c565b820191906000526020600020905b815481529060010190602001808311610f2f57829003601f168201915b50505050508152602001600582018054610f659061418e565b80601f0160208091040260200160405190810160405280929190818152602001828054610f919061418e565b8015610fde5780601f10610fb357610100808354040283529160200191610fde565b820191906000526020600020905b815481529060010190602001808311610fc157829003601f168201915b5050505050815260200160068201805480602002602001604051908101604052809291908181526020016000905b828210156110ff57838290600052602060002001805480602002602001604051908101604052809291908181526020016000905b828210156110ec57838290600052602060002001805461105f9061418e565b80601f016020809104026020016040519081016040528092919081815260200182805461108b9061418e565b80156110d85780601f106110ad576101008083540402835291602001916110d8565b820191906000526020600020905b8154815290600101906020018083116110bb57829003601f168201915b505050505081526020019060010190611040565b505050508152602001906001019061100c565b5050505081526020016007820180546111179061418e565b80601f01602080910402602001604051908101604052809291908181526020018280546111439061418e565b80156111905780601f1061116557610100808354040283529160200191611190565b820191906000526020600020905b81548152906001019060200180831161117357829003601f168201915b505050918352505060088201546001600160a01b03166020808301919091526040805160098501805460609481028301850184528284018181529390950194919390928492909184919060009085015b8282101561128c5783829060005260206000200180546111ff9061418e565b80601f016020809104026020016040519081016040528092919081815260200182805461122b9061418e565b80156112785780601f1061124d57610100808354040283529160200191611278565b820191906000526020600020905b81548152906001019060200180831161125b57829003601f168201915b5050505050815260200190600101906111e0565b50505050815260200160018201805480602002602001604051908101604052809291908181526020016000905b828210156113655783829060005260206000200180546112d89061418e565b80601f01602080910402602001604051908101604052809291908181526020018280546113049061418e565b80156113515780601f1061132657610100808354040283529160200191611351565b820191906000526020600020905b81548152906001019060200180831161133457829003601f168201915b5050505050815260200190600101906112b9565b50505050815250508152602001600b8201805480602002602001604051908101604052809291908181526020016000905b828210156114ec57838290600052602060002090600202016040518060400160405290816000820180546113c99061418e565b80601f01602080910402602001604051908101604052809291908181526020018280546113f59061418e565b80156114425780601f1061141757610100808354040283529160200191611442565b820191906000526020600020905b81548152906001019060200180831161142557829003601f168201915b5050505050815260200160018201805461145b9061418e565b80601f01602080910402602001604051908101604052809291908181526020018280546114879061418e565b80156114d45780601f106114a9576101008083540402835291602001916114d4565b820191906000526020600020905b8154815290600101906020018083116114b757829003601f168201915b50505050508152505081526020019060010190611396565b5050505081525050848481518110611506576115066144b5565b6020026020010181905250828061151c906144e1565b9350505b508061152b816144e1565b915050610d2a565b50815292915050565b600080516020614b32833981519152611554816126bc565b60008381526009602052604090206001600282015460ff16600381111561157d5761157d6137b3565b036115e65761158c84846128ab565b6040805180820190915286815260208082018790528751829160098501916115b9918391908c01906134ee565b5060208281015180516115d292600185019201906134ee565b50505050600201805460ff191690556116a4565b6000600282015460ff166003811115611601576116016137b3565b036116a2576000604051806040016040528088600081518110611626576116266144b5565b6020026020010151815260200187600081518110611646576116466144b5565b602090810291909101810151909152600b840180546001810182556000918252919020825192935083926002909202019081906116839082614594565b50602082015160018201906116989082614594565b50505050506116a4565b505b5050505050565b6000818152600260205260408120546001600160a01b0316806105685760405162461bcd60e51b81526004016106659061468d565b60006001600160a01b0382166117085760405162461bcd60e51b8152600401610665906146e3565b506001600160a01b031660009081526003602052604090205490565b60009182526007602090815260408084206001600160a01b0393909316845291905290205460ff1690565b60606001805461057d9061418e565b610c02338383612933565b611775848484846129d5565b50600090815260096020526040902060080180546001600160a01b0319166001600160a01b039290921691909117905550565b60008181526009602052604090206008810154606091906001600160a01b03163314806117e857506117e8600080516020614b3283398151915233611724565b6118045760405162461bcd60e51b815260040161066590614717565b60408051600280825260608201909252600091816020015b606081526020019060019003908161181c5750506009830180546040805160208084028201810190925282815293945060009084015b828210156118fe5783829060005260206000200180546118719061418e565b80601f016020809104026020016040519081016040528092919081815260200182805461189d9061418e565b80156118ea5780601f106118bf576101008083540402835291602001916118ea565b820191906000526020600020905b8154815290600101906020018083116118cd57829003601f168201915b505050505081526020019060010190611852565b5050505081600081518110611915576119156144b5565b602002602001018190525081600901600101805480602002602001604051908101604052809291908181526020016000905b828210156119f35783829060005260206000200180546119669061418e565b80601f01602080910402602001604051908101604052809291908181526020018280546119929061418e565b80156119df5780601f106119b4576101008083540402835291602001916119df565b820191906000526020600020905b8154815290600101906020018083116119c257829003601f168201915b505050505081526020019060010190611947565b5050505081600181518110611a0a57611a0a6144b5565b6020908102919091010152600b8201546000906001600160401b03811115611a3457611a346139e9565b604051908082528060200260200182016040528015611a6757816020015b6060815260200190600190039081611a525790505b50600b8401549091506000906001600160401b03811115611a8a57611a8a6139e9565b604051908082528060200260200182016040528015611abd57816020015b6060815260200190600190039081611aa85790505b50905060015b600b850154811015611c7a5784600b018181548110611ae457611ae46144b5565b90600052602060002090600202016000018054611b009061418e565b80601f0160208091040260200160405190810160405280929190818152602001828054611b2c9061418e565b8015611b795780601f10611b4e57610100808354040283529160200191611b79565b820191906000526020600020905b815481529060010190602001808311611b5c57829003601f168201915b5050505050838281518110611b9057611b906144b5565b602002602001018190525084600b018181548110611bb057611bb06144b5565b90600052602060002090600202016001018054611bcc9061418e565b80601f0160208091040260200160405190810160405280929190818152602001828054611bf89061418e565b8015611c455780601f10611c1a57610100808354040283529160200191611c45565b820191906000526020600020905b815481529060010190602001808311611c2857829003601f168201915b5050505050828281518110611c5c57611c5c6144b5565b60200260200101819052508080611c72906144e1565b915050611ac3565b50611c9f83600081518110611c9157611c916144b5565b602002602001015183612a0d565b83600081518110611cb257611cb26144b5565b6020026020010181905250611ce183600181518110611cd357611cd36144b5565b602002602001015182612a0d565b83600181518110611cf457611cf46144b5565b60209081029190910101525090949350505050565b606061056882612b2e565b600082815260076020526040902060010154611d2f816126bc565b6106b0838361274c565b6060600080516020614b32833981519152611d53816126bc565b6000611d5e60085490565b90506000816001600160401b03811115611d7a57611d7a6139e9565b604051908082528060200260200182016040528015611db357816020015b611da0613470565b815260200190600190039081611d985790505b5090506000805b8381116125b6576000600960008381526020019081526020016000209050806040518061016001604052908160008201548152602001600182018054611dff9061418e565b80601f0160208091040260200160405190810160405280929190818152602001828054611e2b9061418e565b8015611e785780601f10611e4d57610100808354040283529160200191611e78565b820191906000526020600020905b815481529060010190602001808311611e5b57829003601f168201915b5050509183525050600282015460209091019060ff166003811115611e9f57611e9f6137b3565b6003811115611eb057611eb06137b3565b8152602001600382018054611ec49061418e565b80601f0160208091040260200160405190810160405280929190818152602001828054611ef09061418e565b8015611f3d5780601f10611f1257610100808354040283529160200191611f3d565b820191906000526020600020905b815481529060010190602001808311611f2057829003601f168201915b50505050508152602001600482018054611f569061418e565b80601f0160208091040260200160405190810160405280929190818152602001828054611f829061418e565b8015611fcf5780601f10611fa457610100808354040283529160200191611fcf565b820191906000526020600020905b815481529060010190602001808311611fb257829003601f168201915b50505050508152602001600582018054611fe89061418e565b80601f01602080910402602001604051908101604052809291908181526020018280546120149061418e565b80156120615780601f1061203657610100808354040283529160200191612061565b820191906000526020600020905b81548152906001019060200180831161204457829003601f168201915b5050505050815260200160068201805480602002602001604051908101604052809291908181526020016000905b8282101561218257838290600052602060002001805480602002602001604051908101604052809291908181526020016000905b8282101561216f5783829060005260206000200180546120e29061418e565b80601f016020809104026020016040519081016040528092919081815260200182805461210e9061418e565b801561215b5780601f106121305761010080835404028352916020019161215b565b820191906000526020600020905b81548152906001019060200180831161213e57829003601f168201915b5050505050815260200190600101906120c3565b505050508152602001906001019061208f565b50505050815260200160078201805461219a9061418e565b80601f01602080910402602001604051908101604052809291908181526020018280546121c69061418e565b80156122135780601f106121e857610100808354040283529160200191612213565b820191906000526020600020905b8154815290600101906020018083116121f657829003601f168201915b505050918352505060088201546001600160a01b03166020808301919091526040805160098501805460609481028301850184528284018181529390950194919390928492909184919060009085015b8282101561230f5783829060005260206000200180546122829061418e565b80601f01602080910402602001604051908101604052809291908181526020018280546122ae9061418e565b80156122fb5780601f106122d0576101008083540402835291602001916122fb565b820191906000526020600020905b8154815290600101906020018083116122de57829003601f168201915b505050505081526020019060010190612263565b50505050815260200160018201805480602002602001604051908101604052809291908181526020016000905b828210156123e857838290600052602060002001805461235b9061418e565b80601f01602080910402602001604051908101604052809291908181526020018280546123879061418e565b80156123d45780601f106123a9576101008083540402835291602001916123d4565b820191906000526020600020905b8154815290600101906020018083116123b757829003601f168201915b50505050508152602001906001019061233c565b50505050815250508152602001600b8201805480602002602001604051908101604052809291908181526020016000905b8282101561256f578382906000526020600020906002020160405180604001604052908160008201805461244c9061418e565b80601f01602080910402602001604051908101604052809291908181526020018280546124789061418e565b80156124c55780601f1061249a576101008083540402835291602001916124c5565b820191906000526020600020905b8154815290600101906020018083116124a857829003601f168201915b505050505081526020016001820180546124de9061418e565b80601f016020809104026020016040519081016040528092919081815260200182805461250a9061418e565b80156125575780601f1061252c57610100808354040283529160200191612557565b820191906000526020600020905b81548152906001019060200180831161253a57829003601f168201915b50505050508152505081526020019060010190612419565b5050505081525050848481518110612589576125896144b5565b6020026020010181905250828061259f906144e1565b9350505080806125ae906144e1565b915050611dba565b5081529250505b5090565b60006001600160e01b03198216637965db0b60e01b1480610568575061056882612c3e565b6000818152600260205260409020546001600160a01b031661261a5760405162461bcd60e51b81526004016106659061468d565b50565b600081815260046020526040902080546001600160a01b0319166001600160a01b0384169081179091558190612652826116ab565b6001600160a01b03167f8c5be1e5ebec7d5bd14f71427d1e84f3dd0314c0f7b2291e5b200ac8c7c3b92560405160405180910390a45050565b6126953382612c63565b6126b15760405162461bcd60e51b815260040161066590614771565b6106b0838383612ce1565b61261a8133612e09565b6126d08282611724565b610c025760008281526007602090815260408083206001600160a01b03851684529091529020805460ff191660011790556127083390565b6001600160a01b0316816001600160a01b0316837f2f8788117e7eff1d82e926ec794901d17c78024a50270940304540a733656f0d60405160405180910390a45050565b6127568282611724565b15610c025760008281526007602090815260408083206001600160a01b0385168085529252808320805460ff1916905551339285917ff6391f5c32d9c69d2a47ea670b442974b53935d1edc7fd64eb21e047a839171b9190a45050565b60006127c3600880546001019055565b600061056860085490565b87895560028901805488919060ff191660018360038111156127f2576127f26137b3565b0217905550600389016128058782614594565b50600489016128148682614594565b50600589016128238582614594565b5082516128399060068b01906020860190613540565b50600789016128488382614594565b5060089890980180546001600160a01b0319166001600160a01b039099169890981790975550505050505050565b610c02828260405180602001604052806000815250612e62565b6106b083838360405180602001604052806000815250611769565b6000828152600260205260409020546001600160a01b03166128df5760405162461bcd60e51b8152600401610665906147cc565b60008281526006602052604090206128f78282614594565b507ff8e1a15aba9398e019f0b49df1a4fde98ee17ae345cb5f6b5e2c27f5033e8ce78260405161292791906139a8565b60405180910390a15050565b816001600160a01b0316836001600160a01b0316036129645760405162461bcd60e51b815260040161066590614810565b6001600160a01b0383811660008181526005602090815260408083209487168084529490915290819020805460ff1916851515179055517f17307eab39ab6107e8899845ad3d59bd9653f200f220920489ca2b5937696c31906129c890859061368d565b60405180910390a3505050565b6129df3383612c63565b6129fb5760405162461bcd60e51b815260040161066590614771565b612a0784848484612e95565b50505050565b6060600082518451612a1f9190614820565b6001600160401b03811115612a3657612a366139e9565b604051908082528060200260200182016040528015612a6957816020015b6060815260200190600190039081612a545790505b50905060005b8451811015612ac257848181518110612a8a57612a8a6144b5565b6020026020010151828281518110612aa457612aa46144b5565b60200260200101819052508080612aba906144e1565b915050612a6f565b60005b8451811015612b2457848181518110612ae057612ae06144b5565b6020026020010151838380612af4906144e1565b945081518110612b0657612b066144b5565b60200260200101819052508080612b1c906144e1565b915050612ac5565b5090949350505050565b6060612b39826125e6565b60008281526006602052604081208054612b529061418e565b80601f0160208091040260200160405190810160405280929190818152602001828054612b7e9061418e565b8015612bcb5780601f10612ba057610100808354040283529160200191612bcb565b820191906000526020600020905b815481529060010190602001808311612bae57829003601f168201915b505050505090506000612be960408051602081019091526000815290565b90508051600003612bfb575092915050565b815115612c2d578082604051602001612c15929190614855565b60405160208183030381529060405292505050919050565b612c3684612ec8565b949350505050565b60006001600160e01b03198216632483248360e11b1480610568575061056882612f3c565b600080612c6f836116ab565b9050806001600160a01b0316846001600160a01b03161480612cb657506001600160a01b0380821660009081526005602090815260408083209388168352929052205460ff165b80612c365750836001600160a01b0316612ccf84610600565b6001600160a01b031614949350505050565b826001600160a01b0316612cf4826116ab565b6001600160a01b031614612d1a5760405162461bcd60e51b8152600401610665906148af565b6001600160a01b038216612d405760405162461bcd60e51b815260040161066590614900565b826001600160a01b0316612d53826116ab565b6001600160a01b031614612d795760405162461bcd60e51b8152600401610665906148af565b600081815260046020908152604080832080546001600160a01b03199081169091556001600160a01b0387811680865260038552838620805460001901905590871680865283862080546001019055868652600290945282852080549092168417909155905184937fddf252ad1be2c89b69c2b068fc378daa952ba7f163c4a11628f55a4df523b3ef91a4505050565b612e138282611724565b610c0257612e2081612f8c565b612e2b836020612f9e565b604051602001612e3c929190614910565b60408051601f198184030181529082905262461bcd60e51b8252610665916004016136f1565b612e6c8383613109565b612e796000848484613204565b6106b05760405162461bcd60e51b8152600401610665906149b3565b612ea0848484612ce1565b612eac84848484613204565b612a075760405162461bcd60e51b8152600401610665906149b3565b6060612ed3826125e6565b6000612eea60408051602081019091526000815290565b90506000815111612f0a5760405180602001604052806000815250612f35565b80612f1484613305565b604051602001612f25929190614855565b6040516020818303038152906040525b9392505050565b60006001600160e01b031982166380ac58cd60e01b1480612f6d57506001600160e01b03198216635b5e139f60e01b145b8061056857506301ffc9a760e01b6001600160e01b0319831614610568565b60606105686001600160a01b03831660145b60606000612fad8360026149c3565b612fb8906002614820565b6001600160401b03811115612fcf57612fcf6139e9565b6040519080825280601f01601f191660200182016040528015612ff9576020820181803683370190505b509050600360fc1b81600081518110613014576130146144b5565b60200101906001600160f81b031916908160001a905350600f60fb1b81600181518110613043576130436144b5565b60200101906001600160f81b031916908160001a90535060006130678460026149c3565b613072906001614820565b90505b60018111156130ea576f181899199a1a9b1b9c1cb0b131b232b360811b85600f16601081106130a6576130a66144b5565b1a60f81b8282815181106130bc576130bc6144b5565b60200101906001600160f81b031916908160001a90535060049490941c936130e3816149e2565b9050613075565b508315612f355760405162461bcd60e51b815260040161066590614a2b565b6001600160a01b03821661312f5760405162461bcd60e51b815260040161066590614a6d565b6000818152600260205260409020546001600160a01b0316156131645760405162461bcd60e51b815260040161066590614ab1565b6000818152600260205260409020546001600160a01b0316156131995760405162461bcd60e51b815260040161066590614ab1565b6001600160a01b038216600081815260036020908152604080832080546001019055848352600290915280822080546001600160a01b0319168417905551839291907fddf252ad1be2c89b69c2b068fc378daa952ba7f163c4a11628f55a4df523b3ef908290a45050565b60006001600160a01b0384163b156132fa57604051630a85bd0160e11b81526001600160a01b0385169063150b7a0290613248903390899088908890600401614ac1565b6020604051808303816000875af1925050508015613283575060408051601f3d908101601f1916820190925261328091810190614b10565b60015b6132e0573d8080156132b1576040519150601f19603f3d011682016040523d82523d6000602084013e6132b6565b606091505b5080516000036132d85760405162461bcd60e51b8152600401610665906149b3565b805181602001fd5b6001600160e01b031916630a85bd0160e11b149050612c36565b506001949350505050565b6060600061331283613398565b60010190506000816001600160401b03811115613331576133316139e9565b6040519080825280601f01601f19166020018201604052801561335b576020820181803683370190505b5090508181016020015b600019016f181899199a1a9b1b9c1cb0b131b232b360811b600a86061a8153600a8504945084613365575b509392505050565b60008072184f03e93ff9f4daa797ed6e38ed64bf6a1f0160401b83106133d75772184f03e93ff9f4daa797ed6e38ed64bf6a1f0160401b830492506040015b6d04ee2d6d415b85acef81000000008310613403576d04ee2d6d415b85acef8100000000830492506020015b662386f26fc10000831061342157662386f26fc10000830492506010015b6305f5e1008310613439576305f5e100830492506008015b612710831061344d57612710830492506004015b6064831061345f576064830492506002015b600a83106105685760010192915050565b604080516101608101825260008082526060602083015290918201908152602001606081526020016060815260200160608152602001606081526020016060815260200160006001600160a01b031681526020016134e1604051806040016040528060608152602001606081525090565b8152602001606081525090565b828054828255906000526020600020908101928215613534579160200282015b8281111561353457825182906135249082614594565b509160200191906001019061350e565b506125bd929150613599565b82805482825590600052602060002090810192821561358d579160200282015b8281111561358d578251805161357d9184916020909101906134ee565b5091602001919060010190613560565b506125bd9291506135b6565b808211156125bd5760006135ad82826135d3565b50600101613599565b808211156125bd5760006135ca828261360d565b506001016135b6565b5080546135df9061418e565b6000825580601f106135ef575050565b601f01602090049060005260206000209081019061261a919061362b565b508054600082559060005260206000209081019061261a9190613599565b5b808211156125bd576000815560010161362c565b6001600160e01b031981165b811461261a57600080fd5b803561056881613640565b60006020828403121561367757613677600080fd5b6000612c368484613657565b8015155b82525050565b602081016105688284613683565b60005b838110156136b657818101518382015260200161369e565b50506000910152565b60006136c9825190565b8084526020840193506136e081856020860161369b565b601f01601f19169290920192915050565b60208082528101612f3581846136bf565b8061364c565b803561056881613702565b60006020828403121561372857613728600080fd5b6000612c368484613708565b60006001600160a01b038216610568565b61368781613734565b602081016105688284613745565b61364c81613734565b80356105688161375c565b6000806040838503121561378657613786600080fd5b60006137928585613765565b92505060206137a385828601613708565b9150509250929050565b80613687565b634e487b7160e01b600052602160045260246000fd5b6004811061261a5761261a6137b3565b806137e3816137c9565b919050565b6000610568826137d9565b613687816137e8565b6000612f3583836136bf565b6000613812825190565b8084526020840193508360208202850161382c8560200190565b8060005b85811015613861578484038952815161384985826137fc565b94506020830160209a909a0199925050600101613830565b5091979650505050505050565b80516040808452600091908401906138868282613808565b915050602083015184820360208601526138a08282613808565b95945050505050565b61012081016138b8828c6137ad565b81810360208301526138ca818b6136bf565b90506138d9604083018a6137f3565b81810360608301526138eb81896136bf565b905081810360808301526138ff81886136bf565b905081810360a083015261391381876136bf565b905081810360c083015261392781866136bf565b905061393660e0830185613745565b818103610100830152613949818461386e565b9b9a5050505050505050505050565b60008060006060848603121561397057613970600080fd5b600061397c8686613765565b935050602061398d86828701613765565b925050604061399e86828701613708565b9150509250925092565b6020810161056882846137ad565b600080604083850312156139cc576139cc600080fd5b60006139d88585613708565b92505060206137a385828601613765565b634e487b7160e01b600052604160045260246000fd5b601f19601f83011681018181106001600160401b0382111715613a2457613a246139e9565b6040525050565b6000613a3660405190565b90506137e382826139ff565b60006001600160401b03821115613a5b57613a5b6139e9565b601f19601f83011660200192915050565b82818337506000910152565b6000613a8b613a8684613a42565b613a2b565b905082815260208101848484011115613aa657613aa6600080fd5b613390848285613a6c565b600082601f830112613ac557613ac5600080fd5b8135612c36848260208601613a78565b60006001600160401b03821115613aee57613aee6139e9565b5060209081020190565b6000613b06613a8684613ad5565b83815290506020808201908402830185811115613b2557613b25600080fd5b835b81811015613b655780356001600160401b03811115613b4857613b48600080fd5b808601613b558982613ab1565b8552505060209283019201613b27565b5050509392505050565b600082601f830112613b8357613b83600080fd5b8135612c36848260208601613af8565b6000613ba1613a8684613ad5565b83815290506020808201908402830185811115613bc057613bc0600080fd5b835b81811015613b655780356001600160401b03811115613be357613be3600080fd5b808601613bf08982613b6f565b8552505060209283019201613bc2565b600082601f830112613c1457613c14600080fd5b8135612c36848260208601613b93565b600080600080600060a08688031215613c3f57613c3f600080fd5b85356001600160401b03811115613c5857613c58600080fd5b613c6488828901613ab1565b95505060208601356001600160401b03811115613c8357613c83600080fd5b613c8f88828901613ab1565b94505060408601356001600160401b03811115613cae57613cae600080fd5b613cba88828901613ab1565b93505060608601356001600160401b03811115613cd957613cd9600080fd5b613ce588828901613c00565b92505060808601356001600160401b03811115613d0457613d04600080fd5b613d1088828901613ab1565b9150509295509295909350565b6000612f358383613808565b6000613d33825190565b80845260208401935083602082028501613d4d8560200190565b8060005b858110156138615784840389528151613d6a8582613d1d565b94506020830160209a909a0199925050600101613d51565b8051604080845260009190840190613d9a82826136bf565b915050602083015184820360208601526138a082826136bf565b6000612f358383613d82565b6000613dca825190565b80845260208401935083602082028501613de48560200190565b8060005b858110156138615784840389528151613e018582613db4565b94506020830160209a909a0199925050600101613de8565b8051600090610160840190613e2e85826137ad565b5060208301518482036020860152613e4682826136bf565b9150506040830151613e5b60408601826137f3565b5060608301518482036060860152613e7382826136bf565b91505060808301518482036080860152613e8d82826136bf565b91505060a083015184820360a0860152613ea782826136bf565b91505060c083015184820360c0860152613ec18282613d29565b91505060e083015184820360e0860152613edb82826136bf565b915050610100830151613ef2610100860182613745565b50610120830151848203610120860152613f0c828261386e565b9150506101408301518482036101408601526138a08282613dc0565b6000612f358383613e19565b6000613f3e825190565b80845260208401935083602082028501613f588560200190565b8060005b858110156138615784840389528151613f758582613f28565b94506020830160209a909a0199925050600101613f5c565b60208082528101612f358184613f34565b60008060008060808587031215613fb757613fb7600080fd5b84356001600160401b03811115613fd057613fd0600080fd5b613fdc87828801613b6f565b94505060208501356001600160401b03811115613ffb57613ffb600080fd5b61400787828801613b6f565b935050604061401887828801613708565b92505060608501356001600160401b0381111561403757614037600080fd5b61404387828801613ab1565b91505092959194509250565b60006020828403121561406457614064600080fd5b6000612c368484613765565b80151561364c565b803561056881614070565b6000806040838503121561409957614099600080fd5b60006140a58585613765565b92505060206137a385828601614078565b600080600080608085870312156140cf576140cf600080fd5b60006140db8787613765565b945050602061400787828801613765565b60006140f6825190565b808452602084019350836020820285016141108560200190565b8060005b85811015613861578484038952815161412d8582613d1d565b94506020830160209a909a0199925050600101614114565b60208082528101612f3581846140ec565b6000806040838503121561416c5761416c600080fd5b60006139d88585613765565b634e487b7160e01b600052602260045260246000fd5b6002810460018216806141a257607f821691505b6020821081036141b4576141b4614178565b50919050565b602181526000602082017f4552433732313a20617070726f76616c20746f2063757272656e74206f776e658152603960f91b602082015291505b5060400190565b60208082528101610568816141ba565b603d81526000602082017f4552433732313a20617070726f76652063616c6c6572206973206e6f7420746f81527f6b656e206f776e6572206f7220617070726f76656420666f7220616c6c000000602082015291506141f4565b602080825281016105688161420b565b602f81526000602082017f416363657373436f6e74726f6c3a2063616e206f6e6c792072656e6f756e636581526e103937b632b9903337b91039b2b63360891b602082015291506141f4565b6020808252810161056881614275565b600081546142de8161418e565b8085526020850194506001821680156142fe576001811461431457614342565b60ff198316865260208215150286019350614342565b60008581526020902060005b8381101561433c57815488820152600190910190602001614320565b87019450505b50505092915050565b6000612f3583836142d1565b6000614361825490565b808452602084019350836020820285016143818560009081526020902090565b8060005b858110156138615784840389528161439d858261434b565b60209a909a019994505060019182019101614385565b6000612f358383614357565b60006143c9825490565b808452602084019350836020820285016143e98560009081526020902090565b8060005b858110156138615784840389528161440585826143b3565b60209a909a0199945050600191820191016143ed565b610100810161442a828b6137ad565b614437602083018a6137f3565b818103604083015261444981896142d1565b9050818103606083015261445d81886142d1565b9050818103608083015261447181876142d1565b905081810360a083015261448581866143bf565b905081810360c083015261449981856142d1565b90506144a860e0830184613745565b9998505050505050505050565b634e487b7160e01b600052603260045260246000fd5b634e487b7160e01b600052601160045260246000fd5b600060001982036144f4576144f46144cb565b5060010190565b60006105686145078381565b90565b614513836144fb565b81546008840282811b60001990911b908116901990911617825550505050565b60006106b081848461450a565b81811015610c0257614553600082614533565b600101614540565b601f8211156106b0576000818152602090206020601f850104810160208510156145825750805b6116a46020601f860104830182614540565b81516001600160401b038111156145ad576145ad6139e9565b6145b7825461418e565b6145c282828561455b565b6020601f8311600181146145f657600084156145de5750858201515b600019600886021c19811660028602178655506116a2565b600085815260208120601f198616915b828110156146265788850151825560209485019460019092019101614606565b868310156146425784890151600019601f89166008021c191682555b600160028802018855505050505050505050565b601881526000602082017f4552433732313a20696e76616c696420746f6b656e2049440000000000000000815291505b5060200190565b6020808252810161056881614656565b602981526000602082017f4552433732313a2061646472657373207a65726f206973206e6f7420612076618152683634b21037bbb732b960b91b602082015291506141f4565b602080825281016105688161469d565b600d81526000602082016c1058d8d95cdcc819195b9a5959609a1b81529150614686565b60208082528101610568816146f3565b602d81526000602082017f4552433732313a2063616c6c6572206973206e6f7420746f6b656e206f776e6581526c1c881bdc88185c1c1c9bdd9959609a1b602082015291506141f4565b6020808252810161056881614727565b602e81526000602082017f45524337323155524953746f726167653a2055524920736574206f66206e6f6e81526d32bc34b9ba32b73a103a37b5b2b760911b602082015291506141f4565b6020808252810161056881614781565b601981526000602082017f4552433732313a20617070726f766520746f2063616c6c65720000000000000081529150614686565b60208082528101610568816147dc565b80820180821115610568576105686144cb565b600061483d825190565b61484b81856020860161369b565b9290920192915050565b60006148618285614833565b9150612c368284614833565b602581526000602082017f4552433732313a207472616e736665722066726f6d20696e636f72726563742081526437bbb732b960d91b602082015291506141f4565b602080825281016105688161486d565b602481526000602082017f4552433732313a207472616e7366657220746f20746865207a65726f206164648152637265737360e01b602082015291506141f4565b60208082528101610568816148bf565b7f416363657373436f6e74726f6c3a206163636f756e7420000000000000000000815260170160006149428285614833565b7001034b99036b4b9b9b4b733903937b6329607d1b8152915060118201614861565b603281526000602082017f4552433732313a207472616e7366657220746f206e6f6e20455243373231526581527131b2b4bb32b91034b6b83632b6b2b73a32b960711b602082015291506141f4565b6020808252810161056881614964565b8181028082158382048514176149db576149db6144cb565b5092915050565b6000816149f1576149f16144cb565b506000190190565b60208082527f537472696e67733a20686578206c656e67746820696e73756666696369656e7491019081526000614686565b60208082528101610568816149f9565b60208082527f4552433732313a206d696e7420746f20746865207a65726f206164647265737391019081526000614686565b6020808252810161056881614a3b565b601c81526000602082017f4552433732313a20746f6b656e20616c7265616479206d696e7465640000000081529150614686565b6020808252810161056881614a7d565b60808101614acf8287613745565b614adc6020830186613745565b614ae960408301856137ad565b8181036060830152614afb81846136bf565b9695505050505050565b805161056881613640565b600060208284031215614b2557614b25600080fd5b6000612c368484614b0556fea49807205ce4d355092ef5a8a18f56e8913cf4a201fbe287825b095693c21775a26469706673582212202ef038bf4fe428eea2bb55759bb92ace9bfffae115aac444a2728e27dbb9fa7f64736f6c63430008110033",
	"devdoc": {
		"kind": "dev",
		"methods": {
			"approve(address,uint256)": {
				"details": "See {IERC721-approve}."
			},
			"balanceOf(address)": {
				"details": "See {IERC721-balanceOf}."
			},
			"getApproved(uint256)": {
				"details": "See {IERC721-getApproved}."
			},
			"getRoleAdmin(bytes32)": {
				"details": "Returns the admin role that controls `role`. See {grantRole} and {revokeRole}. To change a role's admin, use {_setRoleAdmin}."
			},
			"grantRole(bytes32,address)": {
				"details": "Grants `role` to `account`. If `account` had not been already granted `role`, emits a {RoleGranted} event. Requirements: - the caller must have ``role``'s admin role. May emit a {RoleGranted} event."
			},
			"hasRole(bytes32,address)": {
				"details": "Returns `true` if `account` has been granted `role`."
			},
			"isApprovedForAll(address,address)": {
				"details": "See {IERC721-isApprovedForAll}."
			},
			"name()": {
				"details": "See {IERC721Metadata-name}."
			},
			"ownerOf(uint256)": {
				"details": "See {IERC721-ownerOf}."
			},
			"renounceRole(bytes32,address)": {
				"details": "Revokes `role` from the calling account. Roles are often managed via {grantRole} and {revokeRole}: this function's purpose is to provide a mechanism for accounts to lose their privileges if they are compromised (such as when a trusted device is misplaced). If the calling account had been revoked `role`, emits a {RoleRevoked} event. Requirements: - the caller must be `account`. May emit a {RoleRevoked} event."
			},
			"revokeRole(bytes32,address)": {
				"details": "Revokes `role` from `account`. If `account` had been granted `role`, emits a {RoleRevoked} event. Requirements: - the caller must have ``role``'s admin role. May emit a {RoleRevoked} event."
			},
			"setApprovalForAll(address,bool)": {
				"details": "See {IERC721-setApprovalForAll}."
			},
			"symbol()": {
				"details": "See {IERC721Metadata-symbol}."
			}
		},
		"title": "BIOrbit  NOTE: BIOrbit is a blockchain-based platform that enables monitoring and protection of Earth's natural resources  through satellite imagery and community engagement. Users can contribute to the platform by donating to monitor  protected areas and purchasing satellite images, ultimately fostering sustainable development and environmental conservation.",
		"version": 1
	},
	"userdoc": {
		"kind": "user",
		"methods": {},
		"version": 1
	},
	"storageLayout": {
		"storage": [
			{
				"astId": 442,
				"contract": "contracts/BIOrbit.sol:BIOrbit",
				"label": "_name",
				"offset": 0,
				"slot": "0",
				"type": "t_string_storage"
			},
			{
				"astId": 444,
				"contract": "contracts/BIOrbit.sol:BIOrbit",
				"label": "_symbol",
				"offset": 0,
				"slot": "1",
				"type": "t_string_storage"
			},
			{
				"astId": 448,
				"contract": "contracts/BIOrbit.sol:BIOrbit",
				"label": "_owners",
				"offset": 0,
				"slot": "2",
				"type": "t_mapping(t_uint256,t_address)"
			},
			{
				"astId": 452,
				"contract": "contracts/BIOrbit.sol:BIOrbit",
				"label": "_balances",
				"offset": 0,
				"slot": "3",
				"type": "t_mapping(t_address,t_uint256)"
			},
			{
				"astId": 456,
				"contract": "contracts/BIOrbit.sol:BIOrbit",
				"label": "_tokenApprovals",
				"offset": 0,
				"slot": "4",
				"type": "t_mapping(t_uint256,t_address)"
			},
			{
				"astId": 462,
				"contract": "contracts/BIOrbit.sol:BIOrbit",
				"label": "_operatorApprovals",
				"offset": 0,
				"slot": "5",
				"type": "t_mapping(t_address,t_mapping(t_address,t_bool))"
			},
			{
				"astId": 1493,
				"contract": "contracts/BIOrbit.sol:BIOrbit",
				"label": "_tokenURIs",
				"offset": 0,
				"slot": "6",
				"type": "t_mapping(t_uint256,t_string_storage)"
			},
			{
				"astId": 24,
				"contract": "contracts/BIOrbit.sol:BIOrbit",
				"label": "_roles",
				"offset": 0,
				"slot": "7",
				"type": "t_mapping(t_bytes32,t_struct(RoleData)19_storage)"
			},
			{
				"astId": 3347,
				"contract": "contracts/BIOrbit.sol:BIOrbit",
				"label": "projectIdCounter",
				"offset": 0,
				"slot": "8",
				"type": "t_struct(Counter)2018_storage"
			},
			{
				"astId": 3398,
				"contract": "contracts/BIOrbit.sol:BIOrbit",
				"label": "Projects",
				"offset": 0,
				"slot": "9",
				"type": "t_mapping(t_uint256,t_struct(Project)3393_storage)"
			}
		],
		"types": {
			"t_address": {
				"encoding": "inplace",
				"label": "address",
				"numberOfBytes": "20"
			},
			"t_array(t_array(t_string_storage)dyn_storage)dyn_storage": {
				"base": "t_array(t_string_storage)dyn_storage",
				"encoding": "dynamic_array",
				"label": "string[][]",
				"numberOfBytes": "32"
			},
			"t_array(t_string_storage)dyn_storage": {
				"base": "t_string_storage",
				"encoding": "dynamic_array",
				"label": "string[]",
				"numberOfBytes": "32"
			},
			"t_array(t_struct(Monitoring)3357_storage)dyn_storage": {
				"base": "t_struct(Monitoring)3357_storage",
				"encoding": "dynamic_array",
				"label": "struct BIOrbit.Monitoring[]",
				"numberOfBytes": "32"
			},
			"t_bool": {
				"encoding": "inplace",
				"label": "bool",
				"numberOfBytes": "1"
			},
			"t_bytes32": {
				"encoding": "inplace",
				"label": "bytes32",
				"numberOfBytes": "32"
			},
			"t_enum(State)3352": {
				"encoding": "inplace",
				"label": "enum BIOrbit.State",
				"numberOfBytes": "1"
			},
			"t_mapping(t_address,t_bool)": {
				"encoding": "mapping",
				"key": "t_address",
				"label": "mapping(address => bool)",
				"numberOfBytes": "32",
				"value": "t_bool"
			},
			"t_mapping(t_address,t_mapping(t_address,t_bool))": {
				"encoding": "mapping",
				"key": "t_address",
				"label": "mapping(address => mapping(address => bool))",
				"numberOfBytes": "32",
				"value": "t_mapping(t_address,t_bool)"
			},
			"t_mapping(t_address,t_uint256)": {
				"encoding": "mapping",
				"key": "t_address",
				"label": "mapping(address => uint256)",
				"numberOfBytes": "32",
				"value": "t_uint256"
			},
			"t_mapping(t_bytes32,t_struct(RoleData)19_storage)": {
				"encoding": "mapping",
				"key": "t_bytes32",
				"label": "mapping(bytes32 => struct AccessControl.RoleData)",
				"numberOfBytes": "32",
				"value": "t_struct(RoleData)19_storage"
			},
			"t_mapping(t_uint256,t_address)": {
				"encoding": "mapping",
				"key": "t_uint256",
				"label": "mapping(uint256 => address)",
				"numberOfBytes": "32",
				"value": "t_address"
			},
			"t_mapping(t_uint256,t_string_storage)": {
				"encoding": "mapping",
				"key": "t_uint256",
				"label": "mapping(uint256 => string)",
				"numberOfBytes": "32",
				"value": "t_string_storage"
			},
			"t_mapping(t_uint256,t_struct(Project)3393_storage)": {
				"encoding": "mapping",
				"key": "t_uint256",
				"label": "mapping(uint256 => struct BIOrbit.Project)",
				"numberOfBytes": "32",
				"value": "t_struct(Project)3393_storage"
			},
			"t_string_storage": {
				"encoding": "bytes",
				"label": "string",
				"numberOfBytes": "32"
			},
			"t_struct(Counter)2018_storage": {
				"encoding": "inplace",
				"label": "struct Counters.Counter",
				"members": [
					{
						"astId": 2017,
						"contract": "contracts/BIOrbit.sol:BIOrbit",
						"label": "_value",
						"offset": 0,
						"slot": "0",
						"type": "t_uint256"
					}
				],
				"numberOfBytes": "32"
			},
			"t_struct(ImageTimeSeries)3364_storage": {
				"encoding": "inplace",
				"label": "struct BIOrbit.ImageTimeSeries",
				"members": [
					{
						"astId": 3360,
						"contract": "contracts/BIOrbit.sol:BIOrbit",
						"label": "detectionDate",
						"offset": 0,
						"slot": "0",
						"type": "t_array(t_string_storage)dyn_storage"
					},
					{
						"astId": 3363,
						"contract": "contracts/BIOrbit.sol:BIOrbit",
						"label": "forestCoverExtension",
						"offset": 0,
						"slot": "1",
						"type": "t_array(t_string_storage)dyn_storage"
					}
				],
				"numberOfBytes": "64"
			},
			"t_struct(Monitoring)3357_storage": {
				"encoding": "inplace",
				"label": "struct BIOrbit.Monitoring",
				"members": [
					{
						"astId": 3354,
						"contract": "contracts/BIOrbit.sol:BIOrbit",
						"label": "detectionDate",
						"offset": 0,
						"slot": "0",
						"type": "t_string_storage"
					},
					{
						"astId": 3356,
						"contract": "contracts/BIOrbit.sol:BIOrbit",
						"label": "forestCoverExtension",
						"offset": 0,
						"slot": "1",
						"type": "t_string_storage"
					}
				],
				"numberOfBytes": "64"
			},
			"t_struct(Project)3393_storage": {
				"encoding": "inplace",
				"label": "struct BIOrbit.Project",
				"members": [
					{
						"astId": 3366,
						"contract": "contracts/BIOrbit.sol:BIOrbit",
						"label": "id",
						"offset": 0,
						"slot": "0",
						"type": "t_uint256"
					},
					{
						"astId": 3368,
						"contract": "contracts/BIOrbit.sol:BIOrbit",
						"label": "uri",
						"offset": 0,
						"slot": "1",
						"type": "t_string_storage"
					},
					{
						"astId": 3371,
						"contract": "contracts/BIOrbit.sol:BIOrbit",
						"label": "state",
						"offset": 0,
						"slot": "2",
						"type": "t_enum(State)3352"
					},
					{
						"astId": 3373,
						"contract": "contracts/BIOrbit.sol:BIOrbit",
						"label": "name",
						"offset": 0,
						"slot": "3",
						"type": "t_string_storage"
					},
					{
						"astId": 3375,
						"contract": "contracts/BIOrbit.sol:BIOrbit",
						"label": "description",
						"offset": 0,
						"slot": "4",
						"type": "t_string_storage"
					},
					{
						"astId": 3377,
						"contract": "contracts/BIOrbit.sol:BIOrbit",
						"label": "extension",
						"offset": 0,
						"slot": "5",
						"type": "t_string_storage"
					},
					{
						"astId": 3381,
						"contract": "contracts/BIOrbit.sol:BIOrbit",
						"label": "footprint",
						"offset": 0,
						"slot": "6",
						"type": "t_array(t_array(t_string_storage)dyn_storage)dyn_storage"
					},
					{
						"astId": 3383,
						"contract": "contracts/BIOrbit.sol:BIOrbit",
						"label": "country",
						"offset": 0,
						"slot": "7",
						"type": "t_string_storage"
					},
					{
						"astId": 3385,
						"contract": "contracts/BIOrbit.sol:BIOrbit",
						"label": "owner",
						"offset": 0,
						"slot": "8",
						"type": "t_address"
					},
					{
						"astId": 3388,
						"contract": "contracts/BIOrbit.sol:BIOrbit",
						"label": "imageTimeSeries",
						"offset": 0,
						"slot": "9",
						"type": "t_struct(ImageTimeSeries)3364_storage"
					},
					{
						"astId": 3392,
						"contract": "contracts/BIOrbit.sol:BIOrbit",
						"label": "monitoring",
						"offset": 0,
						"slot": "11",
						"type": "t_array(t_struct(Monitoring)3357_storage)dyn_storage"
					}
				],
				"numberOfBytes": "384"
			},
			"t_struct(RoleData)19_storage": {
				"encoding": "inplace",
				"label": "struct AccessControl.RoleData",
				"members": [
					{
						"astId": 16,
						"contract": "contracts/BIOrbit.sol:BIOrbit",
						"label": "members",
						"offset": 0,
						"slot": "0",
						"type": "t_mapping(t_address,t_bool)"
					},
					{
						"astId": 18,
						"contract": "contracts/BIOrbit.sol:BIOrbit",
						"label": "adminRole",
						"offset": 0,
						"slot": "1",
						"type": "t_bytes32"
					}
				],
				"numberOfBytes": "64"
			},
			"t_uint256": {
				"encoding": "inplace",
				"label": "uint256",
				"numberOfBytes": "32"
			}
		}
	}
}