{
	"address": "0xb8685e0467736A88eD06e822765031c9372BC8BB",
	"abi": [
		{
			"inputs": [],
			"stateMutability": "nonpayable",
			"type": "constructor"
		},
		{
			"anonymous": false,
			"inputs": [
				{
					"indexed": true,
					"internalType": "address",
					"name": "owner",
					"type": "address"
				},
				{
					"indexed": true,
					"internalType": "address",
					"name": "approved",
					"type": "address"
				},
				{
					"indexed": true,
					"internalType": "uint256",
					"name": "tokenId",
					"type": "uint256"
				}
			],
			"name": "Approval",
			"type": "event"
		},
		{
			"anonymous": false,
			"inputs": [
				{
					"indexed": true,
					"internalType": "address",
					"name": "owner",
					"type": "address"
				},
				{
					"indexed": true,
					"internalType": "address",
					"name": "operator",
					"type": "address"
				},
				{
					"indexed": false,
					"internalType": "bool",
					"name": "approved",
					"type": "bool"
				}
			],
			"name": "ApprovalForAll",
			"type": "event"
		},
		{
			"anonymous": false,
			"inputs": [
				{
					"indexed": false,
					"internalType": "uint256",
					"name": "_fromTokenId",
					"type": "uint256"
				},
				{
					"indexed": false,
					"internalType": "uint256",
					"name": "_toTokenId",
					"type": "uint256"
				}
			],
			"name": "BatchMetadataUpdate",
			"type": "event"
		},
		{
			"anonymous": false,
			"inputs": [
				{
					"indexed": false,
					"internalType": "uint256",
					"name": "_tokenId",
					"type": "uint256"
				}
			],
			"name": "MetadataUpdate",
			"type": "event"
		},
		{
			"anonymous": false,
			"inputs": [
				{
					"indexed": false,
					"internalType": "uint256",
					"name": "id",
					"type": "uint256"
				},
				{
					"indexed": false,
					"internalType": "enum BIOrbit.State",
					"name": "state",
					"type": "uint8"
				},
				{
					"indexed": false,
					"internalType": "string",
					"name": "name",
					"type": "string"
				},
				{
					"indexed": false,
					"internalType": "string",
					"name": "description",
					"type": "string"
				},
				{
					"indexed": false,
					"internalType": "string",
					"name": "extension",
					"type": "string"
				},
				{
					"indexed": false,
					"internalType": "string[][]",
					"name": "footprint",
					"type": "string[][]"
				},
				{
					"indexed": false,
					"internalType": "string",
					"name": "country",
					"type": "string"
				},
				{
					"indexed": false,
					"internalType": "address",
					"name": "owner",
					"type": "address"
				}
			],
			"name": "ProjectCreated",
			"type": "event"
		},
		{
			"anonymous": false,
			"inputs": [
				{
					"indexed": true,
					"internalType": "bytes32",
					"name": "role",
					"type": "bytes32"
				},
				{
					"indexed": true,
					"internalType": "bytes32",
					"name": "previousAdminRole",
					"type": "bytes32"
				},
				{
					"indexed": true,
					"internalType": "bytes32",
					"name": "newAdminRole",
					"type": "bytes32"
				}
			],
			"name": "RoleAdminChanged",
			"type": "event"
		},
		{
			"anonymous": false,
			"inputs": [
				{
					"indexed": true,
					"internalType": "bytes32",
					"name": "role",
					"type": "bytes32"
				},
				{
					"indexed": true,
					"internalType": "address",
					"name": "account",
					"type": "address"
				},
				{
					"indexed": true,
					"internalType": "address",
					"name": "sender",
					"type": "address"
				}
			],
			"name": "RoleGranted",
			"type": "event"
		},
		{
			"anonymous": false,
			"inputs": [
				{
					"indexed": true,
					"internalType": "bytes32",
					"name": "role",
					"type": "bytes32"
				},
				{
					"indexed": true,
					"internalType": "address",
					"name": "account",
					"type": "address"
				},
				{
					"indexed": true,
					"internalType": "address",
					"name": "sender",
					"type": "address"
				}
			],
			"name": "RoleRevoked",
			"type": "event"
		},
		{
			"anonymous": false,
			"inputs": [
				{
					"indexed": true,
					"internalType": "address",
					"name": "from",
					"type": "address"
				},
				{
					"indexed": true,
					"internalType": "address",
					"name": "to",
					"type": "address"
				},
				{
					"indexed": true,
					"internalType": "uint256",
					"name": "tokenId",
					"type": "uint256"
				}
			],
			"name": "Transfer",
			"type": "event"
		},
		{
			"inputs": [],
			"name": "ADMIN_ROLE",
			"outputs": [
				{
					"internalType": "bytes32",
					"name": "",
					"type": "bytes32"
				}
			],
			"stateMutability": "view",
			"type": "function"
		},
		{
			"inputs": [],
			"name": "DEFAULT_ADMIN_ROLE",
			"outputs": [
				{
					"internalType": "bytes32",
					"name": "",
					"type": "bytes32"
				}
			],
			"stateMutability": "view",
			"type": "function"
		},
		{
			"inputs": [
				{
					"internalType": "uint256",
					"name": "",
					"type": "uint256"
				}
			],
			"name": "Projects",
			"outputs": [
				{
					"internalType": "uint256",
					"name": "id",
					"type": "uint256"
				},
				{
					"internalType": "string",
					"name": "uri",
					"type": "string"
				},
				{
					"internalType": "enum BIOrbit.State",
					"name": "state",
					"type": "uint8"
				},
				{
					"internalType": "string",
					"name": "name",
					"type": "string"
				},
				{
					"internalType": "string",
					"name": "description",
					"type": "string"
				},
				{
					"internalType": "string",
					"name": "extension",
					"type": "string"
				},
				{
					"internalType": "string",
					"name": "country",
					"type": "string"
				},
				{
					"internalType": "address",
					"name": "owner",
					"type": "address"
				},
				{
					"components": [
						{
							"internalType": "string[]",
							"name": "detectionDate",
							"type": "string[]"
						},
						{
							"internalType": "string[]",
							"name": "forestCoverExtension",
							"type": "string[]"
						}
					],
					"internalType": "struct BIOrbit.ImageTimeSeries",
					"name": "imageTimeSeries",
					"type": "tuple"
				}
			],
			"stateMutability": "view",
			"type": "function"
		},
		{
			"inputs": [
				{
					"internalType": "address",
					"name": "to",
					"type": "address"
				},
				{
					"internalType": "uint256",
					"name": "tokenId",
					"type": "uint256"
				}
			],
			"name": "approve",
			"outputs": [],
			"stateMutability": "nonpayable",
			"type": "function"
		},
		{
			"inputs": [
				{
					"internalType": "address",
					"name": "owner",
					"type": "address"
				}
			],
			"name": "balanceOf",
			"outputs": [
				{
					"internalType": "uint256",
					"name": "",
					"type": "uint256"
				}
			],
			"stateMutability": "view",
			"type": "function"
		},
		{
			"inputs": [
				{
					"internalType": "uint256",
					"name": "tokenId",
					"type": "uint256"
				}
			],
			"name": "getApproved",
			"outputs": [
				{
					"internalType": "address",
					"name": "",
					"type": "address"
				}
			],
			"stateMutability": "view",
			"type": "function"
		},
		{
			"inputs": [
				{
					"internalType": "uint256",
					"name": "_projectId",
					"type": "uint256"
				}
			],
			"name": "getDetectionDatesAndForestCoverExtensionsByProjectId",
			"outputs": [
				{
					"internalType": "string[][]",
					"name": "",
					"type": "string[][]"
				}
			],
			"stateMutability": "view",
			"type": "function"
		},
		{
			"inputs": [],
			"name": "getProjects",
			"outputs": [
				{
					"components": [
						{
							"internalType": "uint256",
							"name": "id",
							"type": "uint256"
						},
						{
							"internalType": "string",
							"name": "uri",
							"type": "string"
						},
						{
							"internalType": "enum BIOrbit.State",
							"name": "state",
							"type": "uint8"
						},
						{
							"internalType": "string",
							"name": "name",
							"type": "string"
						},
						{
							"internalType": "string",
							"name": "description",
							"type": "string"
						},
						{
							"internalType": "string",
							"name": "extension",
							"type": "string"
						},
						{
							"internalType": "string[][]",
							"name": "footprint",
							"type": "string[][]"
						},
						{
							"internalType": "string",
							"name": "country",
							"type": "string"
						},
						{
							"internalType": "address",
							"name": "owner",
							"type": "address"
						},
						{
							"components": [
								{
									"internalType": "string[]",
									"name": "detectionDate",
									"type": "string[]"
								},
								{
									"internalType": "string[]",
									"name": "forestCoverExtension",
									"type": "string[]"
								}
							],
							"internalType": "struct BIOrbit.ImageTimeSeries",
							"name": "imageTimeSeries",
							"type": "tuple"
						},
						{
							"components": [
								{
									"internalType": "string",
									"name": "detectionDate",
									"type": "string"
								},
								{
									"internalType": "string",
									"name": "forestCoverExtension",
									"type": "string"
								}
							],
							"internalType": "struct BIOrbit.Monitoring[]",
							"name": "monitoring",
							"type": "tuple[]"
						}
					],
					"internalType": "struct BIOrbit.Project[]",
					"name": "",
					"type": "tuple[]"
				}
			],
			"stateMutability": "view",
			"type": "function"
		},
		{
			"inputs": [],
			"name": "getProjectsByOwner",
			"outputs": [
				{
					"components": [
						{
							"internalType": "uint256",
							"name": "id",
							"type": "uint256"
						},
						{
							"internalType": "string",
							"name": "uri",
							"type": "string"
						},
						{
							"internalType": "enum BIOrbit.State",
							"name": "state",
							"type": "uint8"
						},
						{
							"internalType": "string",
							"name": "name",
							"type": "string"
						},
						{
							"internalType": "string",
							"name": "description",
							"type": "string"
						},
						{
							"internalType": "string",
							"name": "extension",
							"type": "string"
						},
						{
							"internalType": "string[][]",
							"name": "footprint",
							"type": "string[][]"
						},
						{
							"internalType": "string",
							"name": "country",
							"type": "string"
						},
						{
							"internalType": "address",
							"name": "owner",
							"type": "address"
						},
						{
							"components": [
								{
									"internalType": "string[]",
									"name": "detectionDate",
									"type": "string[]"
								},
								{
									"internalType": "string[]",
									"name": "forestCoverExtension",
									"type": "string[]"
								}
							],
							"internalType": "struct BIOrbit.ImageTimeSeries",
							"name": "imageTimeSeries",
							"type": "tuple"
						},
						{
							"components": [
								{
									"internalType": "string",
									"name": "detectionDate",
									"type": "string"
								},
								{
									"internalType": "string",
									"name": "forestCoverExtension",
									"type": "string"
								}
							],
							"internalType": "struct BIOrbit.Monitoring[]",
							"name": "monitoring",
							"type": "tuple[]"
						}
					],
					"internalType": "struct BIOrbit.Project[]",
					"name": "",
					"type": "tuple[]"
				}
			],
			"stateMutability": "view",
			"type": "function"
		},
		{
			"inputs": [
				{
					"internalType": "bytes32",
					"name": "role",
					"type": "bytes32"
				}
			],
			"name": "getRoleAdmin",
			"outputs": [
				{
					"internalType": "bytes32",
					"name": "",
					"type": "bytes32"
				}
			],
			"stateMutability": "view",
			"type": "function"
		},
		{
			"inputs": [
				{
					"internalType": "bytes32",
					"name": "role",
					"type": "bytes32"
				},
				{
					"internalType": "address",
					"name": "account",
					"type": "address"
				}
			],
			"name": "grantRole",
			"outputs": [],
			"stateMutability": "nonpayable",
			"type": "function"
		},
		{
			"inputs": [
				{
					"internalType": "bytes32",
					"name": "role",
					"type": "bytes32"
				},
				{
					"internalType": "address",
					"name": "account",
					"type": "address"
				}
			],
			"name": "hasRole",
			"outputs": [
				{
					"internalType": "bool",
					"name": "",
					"type": "bool"
				}
			],
			"stateMutability": "view",
			"type": "function"
		},
		{
			"inputs": [
				{
					"internalType": "address",
					"name": "owner",
					"type": "address"
				},
				{
					"internalType": "address",
					"name": "operator",
					"type": "address"
				}
			],
			"name": "isApprovedForAll",
			"outputs": [
				{
					"internalType": "bool",
					"name": "",
					"type": "bool"
				}
			],
			"stateMutability": "view",
			"type": "function"
		},
		{
			"inputs": [
				{
					"internalType": "string",
					"name": "_name",
					"type": "string"
				},
				{
					"internalType": "string",
					"name": "_description",
					"type": "string"
				},
				{
					"internalType": "string",
					"name": "_extension",
					"type": "string"
				},
				{
					"internalType": "string[][]",
					"name": "_footprint",
					"type": "string[][]"
				},
				{
					"internalType": "string",
					"name": "_country",
					"type": "string"
				}
			],
			"name": "mintProject",
			"outputs": [],
			"stateMutability": "payable",
			"type": "function"
		},
		{
			"inputs": [],
			"name": "name",
			"outputs": [
				{
					"internalType": "string",
					"name": "",
					"type": "string"
				}
			],
			"stateMutability": "view",
			"type": "function"
		},
		{
			"inputs": [
				{
					"internalType": "uint256",
					"name": "tokenId",
					"type": "uint256"
				}
			],
			"name": "ownerOf",
			"outputs": [
				{
					"internalType": "address",
					"name": "",
					"type": "address"
				}
			],
			"stateMutability": "view",
			"type": "function"
		},
		{
			"inputs": [],
			"name": "projectIdCounter",
			"outputs": [
				{
					"internalType": "uint256",
					"name": "_value",
					"type": "uint256"
				}
			],
			"stateMutability": "view",
			"type": "function"
		},
		{
			"inputs": [
				{
					"internalType": "bytes32",
					"name": "role",
					"type": "bytes32"
				},
				{
					"internalType": "address",
					"name": "account",
					"type": "address"
				}
			],
			"name": "renounceRole",
			"outputs": [],
			"stateMutability": "nonpayable",
			"type": "function"
		},
		{
			"inputs": [
				{
					"internalType": "bytes32",
					"name": "role",
					"type": "bytes32"
				},
				{
					"internalType": "address",
					"name": "account",
					"type": "address"
				}
			],
			"name": "revokeRole",
			"outputs": [],
			"stateMutability": "nonpayable",
			"type": "function"
		},
		{
			"inputs": [
				{
					"internalType": "address",
					"name": "from",
					"type": "address"
				},
				{
					"internalType": "address",
					"name": "to",
					"type": "address"
				},
				{
					"internalType": "uint256",
					"name": "tokenId",
					"type": "uint256"
				}
			],
			"name": "safeTransferFrom",
			"outputs": [],
			"stateMutability": "nonpayable",
			"type": "function"
		},
		{
			"inputs": [
				{
					"internalType": "address",
					"name": "from",
					"type": "address"
				},
				{
					"internalType": "address",
					"name": "to",
					"type": "address"
				},
				{
					"internalType": "uint256",
					"name": "tokenId",
					"type": "uint256"
				},
				{
					"internalType": "bytes",
					"name": "_data",
					"type": "bytes"
				}
			],
			"name": "safeTransferFrom",
			"outputs": [],
			"stateMutability": "nonpayable",
			"type": "function"
		},
		{
			"inputs": [
				{
					"internalType": "address",
					"name": "operator",
					"type": "address"
				},
				{
					"internalType": "bool",
					"name": "approved",
					"type": "bool"
				}
			],
			"name": "setApprovalForAll",
			"outputs": [],
			"stateMutability": "nonpayable",
			"type": "function"
		},
		{
			"inputs": [
				{
					"internalType": "string[]",
					"name": "_detectionDate",
					"type": "string[]"
				},
				{
					"internalType": "string[]",
					"name": "_forestCoverExtension",
					"type": "string[]"
				},
				{
					"internalType": "uint256",
					"name": "_projectId",
					"type": "uint256"
				},
				{
					"internalType": "string",
					"name": "_tokenURI",
					"type": "string"
				}
			],
			"name": "setTokenURI",
			"outputs": [],
			"stateMutability": "nonpayable",
			"type": "function"
		},
		{
			"inputs": [
				{
					"internalType": "bytes4",
					"name": "interfaceId",
					"type": "bytes4"
				}
			],
			"name": "supportsInterface",
			"outputs": [
				{
					"internalType": "bool",
					"name": "",
					"type": "bool"
				}
			],
			"stateMutability": "view",
			"type": "function"
		},
		{
			"inputs": [],
			"name": "symbol",
			"outputs": [
				{
					"internalType": "string",
					"name": "",
					"type": "string"
				}
			],
			"stateMutability": "view",
			"type": "function"
		},
		{
			"inputs": [
				{
					"internalType": "uint256",
					"name": "tokenId",
					"type": "uint256"
				}
			],
			"name": "tokenURI",
			"outputs": [
				{
					"internalType": "string",
					"name": "",
					"type": "string"
				}
			],
			"stateMutability": "view",
			"type": "function"
		},
		{
			"inputs": [
				{
					"internalType": "address",
					"name": "from",
					"type": "address"
				},
				{
					"internalType": "address",
					"name": "to",
					"type": "address"
				},
				{
					"internalType": "uint256",
					"name": "tokenId",
					"type": "uint256"
				}
			],
			"name": "transferFrom",
			"outputs": [],
			"stateMutability": "nonpayable",
			"type": "function"
		}
	],
	"transactionHash": "0xb34fa8544d6b3b2dbfb9ee2db79c985a074b629990ee747345a651ce1118d6b4",
	"args": [],
	"numDeployments": 5,
	"solcInputHash": "6fb1121240f010791e1602a4c01748ef",
	"bytecode": "0x60806040523480156200001157600080fd5b5060405180604001604052806007815260200166109253dc989a5d60ca1b8152506040518060400160405280600381526020016242494f60e81b81525081600090816200005f91906200027f565b5060016200006e82826200027f565b505050620000a37fa49807205ce4d355092ef5a8a18f56e8913cf4a201fbe287825b095693c2177533620000b660201b60201c565b620000b0600033620000b6565b6200034f565b620000c28282620000c6565b5050565b60008281526007602090815260408083206001600160a01b038516845290915290205460ff16620000c25760008281526007602090815260408083206001600160a01b03851684529091529020805460ff19166001179055620001263390565b6001600160a01b0316816001600160a01b0316837f2f8788117e7eff1d82e926ec794901d17c78024a50270940304540a733656f0d60405160405180910390a45050565b634e487b7160e01b600052604160045260246000fd5b634e487b7160e01b600052602260045260246000fd5b600281046001821680620001ab57607f821691505b602082108103620001c057620001c062000180565b50919050565b6000620001d7620001d48381565b90565b92915050565b620001e883620001c6565b81546008840282811b60001990911b908116901990911617825550505050565b600062000217818484620001dd565b505050565b81811015620000c2576200023260008262000208565b6001016200021c565b601f82111562000217576000818152602090206020601f85010481016020851015620002645750805b620002786020601f8601048301826200021c565b5050505050565b81516001600160401b038111156200029b576200029b6200016a565b620002a7825462000196565b620002b48282856200023b565b6020601f831160018114620002eb5760008415620002d25750858201515b600019600886021c198116600286021786555062000347565b600085815260208120601f198616915b828110156200031d5788850151825560209485019460019092019101620002fb565b868310156200033a5784890151600019601f89166008021c191682555b6001600288020188555050505b505050505050565b614b9f806200035f6000396000f3fe60806040526004361061019c5760003560e01c80636352211e116100ec578063b88d4fde1161008a578063d547741f11610064578063d547741f146104c8578063d5977b5e146104e8578063dcc60128146104ff578063e985e9c51461051457600080fd5b8063b88d4fde1461045b578063bf8270fe1461047b578063c87b56dd146104a857600080fd5b806391d14854116100c657806391d14854146103f157806395d89b4114610411578063a217fddf14610426578063a22cb4651461043b57600080fd5b80636352211e1461038f57806370a08231146103af57806375b238fc146103cf57600080fd5b8063248a9ca3116101595780634082fc47116101335780634082fc471461031a57806342842e0e1461032d5780634aae5f4d1461034d57806359886b821461036f57600080fd5b8063248a9ca31461029d5780632f2ff15d146102da57806336568abe146102fa57600080fd5b806301ffc9a7146101a157806306fdde03146101d7578063081812fc146101f9578063095ea7b31461022657806321b2416c1461024857806323b872dd1461027d575b600080fd5b3480156101ad57600080fd5b506101c16101bc36600461367a565b61055d565b6040516101ce91906136a5565b60405180910390f35b3480156101e357600080fd5b506101ec61056e565b6040516101ce9190613709565b34801561020557600080fd5b5061021961021436600461372b565b610600565b6040516101ce9190613766565b34801561023257600080fd5b50610246610241366004613788565b610627565b005b34801561025457600080fd5b5061026861026336600461372b565b6106b5565b6040516101ce999897969594939291906138c1565b34801561028957600080fd5b50610246610298366004613970565b610b6e565b3480156102a957600080fd5b506102cd6102b836600461372b565b60009081526007602052604090206001015490565b6040516101ce91906139c0565b3480156102e657600080fd5b506102466102f53660046139ce565b610bab565b34801561030657600080fd5b506102466103153660046139ce565b610bd0565b610246610328366004613c3c565b610c06565b34801561033957600080fd5b50610246610348366004613970565b610cb5565b34801561035957600080fd5b50610362610cc0565b6040516101ce9190613fa5565b34801561037b57600080fd5b5061024661038a366004613fb6565b61153c565b34801561039b57600080fd5b506102196103aa36600461372b565b6116c3565b3480156103bb57600080fd5b506102cd6103ca366004614067565b6116f8565b3480156103db57600080fd5b506102cd600080516020614b4a83398151915281565b3480156103fd57600080fd5b506101c161040c3660046139ce565b61173c565b34801561041d57600080fd5b506101ec611767565b34801561043257600080fd5b506102cd600081565b34801561044757600080fd5b5061024661045636600461409b565b611776565b34801561046757600080fd5b506102466104763660046140ce565b611781565b34801561048757600080fd5b5061049b61049636600461372b565b6117c0565b6040516101ce919061415d565b3480156104b457600080fd5b506101ec6104c336600461372b565b611d21565b3480156104d457600080fd5b506102466104e33660046139ce565b611d2c565b3480156104f457600080fd5b506008546102cd9081565b34801561050b57600080fd5b50610362611d51565b34801561052057600080fd5b506101c161052f36600461416e565b6001600160a01b03918216600090815260056020908152604080832093909416825291909152205460ff1690565b6000610568826125d9565b92915050565b60606000805461057d906141a6565b80601f01602080910402602001604051908101604052809291908181526020018280546105a9906141a6565b80156105f65780601f106105cb576101008083540402835291602001916105f6565b820191906000526020600020905b8154815290600101906020018083116105d957829003601f168201915b5050505050905090565b600061060b826125fe565b506000908152600460205260409020546001600160a01b031690565b6000610632826116c3565b9050806001600160a01b0316836001600160a01b03160361066e5760405162461bcd60e51b815260040161066590614213565b60405180910390fd5b336001600160a01b038216148061068a575061068a813361052f565b6106a65760405162461bcd60e51b81526004016106659061427d565b6106b08383612635565b505050565b600960205260009081526040902080546001820180549192916106d7906141a6565b80601f0160208091040260200160405190810160405280929190818152602001828054610703906141a6565b80156107505780601f1061072557610100808354040283529160200191610750565b820191906000526020600020905b81548152906001019060200180831161073357829003601f168201915b5050506002840154600385018054949560ff909216949193509150610774906141a6565b80601f01602080910402602001604051908101604052809291908181526020018280546107a0906141a6565b80156107ed5780601f106107c2576101008083540402835291602001916107ed565b820191906000526020600020905b8154815290600101906020018083116107d057829003601f168201915b505050505090806004018054610802906141a6565b80601f016020809104026020016040519081016040528092919081815260200182805461082e906141a6565b801561087b5780601f106108505761010080835404028352916020019161087b565b820191906000526020600020905b81548152906001019060200180831161085e57829003601f168201915b505050505090806005018054610890906141a6565b80601f01602080910402602001604051908101604052809291908181526020018280546108bc906141a6565b80156109095780601f106108de57610100808354040283529160200191610909565b820191906000526020600020905b8154815290600101906020018083116108ec57829003601f168201915b50505050509080600701805461091e906141a6565b80601f016020809104026020016040519081016040528092919081815260200182805461094a906141a6565b80156109975780601f1061096c57610100808354040283529160200191610997565b820191906000526020600020905b81548152906001019060200180831161097a57829003601f168201915b50505060088401546040805160098701805460606020820284018101855293830181815297986001600160a01b03909516979496509194509284929091849160009085015b82821015610a885783829060005260206000200180546109fb906141a6565b80601f0160208091040260200160405190810160405280929190818152602001828054610a27906141a6565b8015610a745780601f10610a4957610100808354040283529160200191610a74565b820191906000526020600020905b815481529060010190602001808311610a5757829003601f168201915b5050505050815260200190600101906109dc565b50505050815260200160018201805480602002602001604051908101604052809291908181526020016000905b82821015610b61578382906000526020600020018054610ad4906141a6565b80601f0160208091040260200160405190810160405280929190818152602001828054610b00906141a6565b8015610b4d5780601f10610b2257610100808354040283529160200191610b4d565b820191906000526020600020905b815481529060010190602001808311610b3057829003601f168201915b505050505081526020019060010190610ab5565b5050505081525050905089565b610b798383836126a3565b600090815260096020526040902060080180546001600160a01b0319166001600160a01b039290921691909117905550565b600082815260076020526040902060010154610bc6816126d4565b6106b083836126de565b6001600160a01b0381163314610bf85760405162461bcd60e51b8152600401610665906142d9565b610c028282612764565b5050565b6000610c106127cb565b60008181526009602052604090209091506001610c348284838b8b8b8b8b336127e6565b610c3e338461288e565b8154600283015460088401546040517f2f2cd3b0d05e41218db6e35c81868c1bdaebbdab5ffad8f07f6122a3f363f62093610ca393909260ff909116916003880191600489019160058a019160068b019160078c01916001600160a01b031690614433565b60405180910390a15050505050505050565b610b798383836128a8565b60606000610ccd60085490565b90506000816001600160401b03811115610ce957610ce9613a01565b604051908082528060200260200182016040528015610d2257816020015b610d0f613488565b815260200190600190039081610d075790505b509050600060015b8381116115335760008181526009602052604090206008810154336001600160a01b039091160361152057806040518061016001604052908160008201548152602001600182018054610d7c906141a6565b80601f0160208091040260200160405190810160405280929190818152602001828054610da8906141a6565b8015610df55780601f10610dca57610100808354040283529160200191610df5565b820191906000526020600020905b815481529060010190602001808311610dd857829003601f168201915b5050509183525050600282015460209091019060ff166003811115610e1c57610e1c6137cb565b6003811115610e2d57610e2d6137cb565b8152602001600382018054610e41906141a6565b80601f0160208091040260200160405190810160405280929190818152602001828054610e6d906141a6565b8015610eba5780601f10610e8f57610100808354040283529160200191610eba565b820191906000526020600020905b815481529060010190602001808311610e9d57829003601f168201915b50505050508152602001600482018054610ed3906141a6565b80601f0160208091040260200160405190810160405280929190818152602001828054610eff906141a6565b8015610f4c5780601f10610f2157610100808354040283529160200191610f4c565b820191906000526020600020905b815481529060010190602001808311610f2f57829003601f168201915b50505050508152602001600582018054610f65906141a6565b80601f0160208091040260200160405190810160405280929190818152602001828054610f91906141a6565b8015610fde5780601f10610fb357610100808354040283529160200191610fde565b820191906000526020600020905b815481529060010190602001808311610fc157829003601f168201915b5050505050815260200160068201805480602002602001604051908101604052809291908181526020016000905b828210156110ff57838290600052602060002001805480602002602001604051908101604052809291908181526020016000905b828210156110ec57838290600052602060002001805461105f906141a6565b80601f016020809104026020016040519081016040528092919081815260200182805461108b906141a6565b80156110d85780601f106110ad576101008083540402835291602001916110d8565b820191906000526020600020905b8154815290600101906020018083116110bb57829003601f168201915b505050505081526020019060010190611040565b505050508152602001906001019061100c565b505050508152602001600782018054611117906141a6565b80601f0160208091040260200160405190810160405280929190818152602001828054611143906141a6565b80156111905780601f1061116557610100808354040283529160200191611190565b820191906000526020600020905b81548152906001019060200180831161117357829003601f168201915b505050918352505060088201546001600160a01b03166020808301919091526040805160098501805460609481028301850184528284018181529390950194919390928492909184919060009085015b8282101561128c5783829060005260206000200180546111ff906141a6565b80601f016020809104026020016040519081016040528092919081815260200182805461122b906141a6565b80156112785780601f1061124d57610100808354040283529160200191611278565b820191906000526020600020905b81548152906001019060200180831161125b57829003601f168201915b5050505050815260200190600101906111e0565b50505050815260200160018201805480602002602001604051908101604052809291908181526020016000905b828210156113655783829060005260206000200180546112d8906141a6565b80601f0160208091040260200160405190810160405280929190818152602001828054611304906141a6565b80156113515780601f1061132657610100808354040283529160200191611351565b820191906000526020600020905b81548152906001019060200180831161133457829003601f168201915b5050505050815260200190600101906112b9565b50505050815250508152602001600b8201805480602002602001604051908101604052809291908181526020016000905b828210156114ec57838290600052602060002090600202016040518060400160405290816000820180546113c9906141a6565b80601f01602080910402602001604051908101604052809291908181526020018280546113f5906141a6565b80156114425780601f1061141757610100808354040283529160200191611442565b820191906000526020600020905b81548152906001019060200180831161142557829003601f168201915b5050505050815260200160018201805461145b906141a6565b80601f0160208091040260200160405190810160405280929190818152602001828054611487906141a6565b80156114d45780601f106114a9576101008083540402835291602001916114d4565b820191906000526020600020905b8154815290600101906020018083116114b757829003601f168201915b50505050508152505081526020019060010190611396565b5050505081525050848481518110611506576115066144cd565b6020026020010181905250828061151c906144f9565b9350505b508061152b816144f9565b915050610d2a565b50815292915050565b600080516020614b4a833981519152611554816126d4565b60008381526009602052604090206001600282015460ff16600381111561157d5761157d6137cb565b036115f75761158c84846128c3565b6040805180820190915286815260208082018790528751829160098501916115b9918391908c0190613506565b5060208281015180516115d29260018501920190613506565b50505060028201805460ff19169055600182016115ef85826145ac565b5050506116bc565b6000600282015460ff166003811115611612576116126137cb565b036116ba576000604051806040016040528088600081518110611637576116376144cd565b6020026020010151815260200187600081518110611657576116576144cd565b602090810291909101810151909152600b8401805460018101825560009182529190208251929350839260029092020190819061169490826145ac565b50602082015160018201906116a990826145ac565b505050600182016115ef85826145ac565b505b5050505050565b6000818152600260205260408120546001600160a01b0316806105685760405162461bcd60e51b8152600401610665906146a5565b60006001600160a01b0382166117205760405162461bcd60e51b8152600401610665906146fb565b506001600160a01b031660009081526003602052604090205490565b60009182526007602090815260408084206001600160a01b0393909316845291905290205460ff1690565b60606001805461057d906141a6565b610c0233838361294b565b61178d848484846129ed565b50600090815260096020526040902060080180546001600160a01b0319166001600160a01b039290921691909117905550565b60008181526009602052604090206008810154606091906001600160a01b03163314806118005750611800600080516020614b4a8339815191523361173c565b61181c5760405162461bcd60e51b81526004016106659061472f565b60408051600280825260608201909252600091816020015b60608152602001906001900390816118345750506009830180546040805160208084028201810190925282815293945060009084015b82821015611916578382906000526020600020018054611889906141a6565b80601f01602080910402602001604051908101604052809291908181526020018280546118b5906141a6565b80156119025780601f106118d757610100808354040283529160200191611902565b820191906000526020600020905b8154815290600101906020018083116118e557829003601f168201915b50505050508152602001906001019061186a565b505050508160008151811061192d5761192d6144cd565b602002602001018190525081600901600101805480602002602001604051908101604052809291908181526020016000905b82821015611a0b57838290600052602060002001805461197e906141a6565b80601f01602080910402602001604051908101604052809291908181526020018280546119aa906141a6565b80156119f75780601f106119cc576101008083540402835291602001916119f7565b820191906000526020600020905b8154815290600101906020018083116119da57829003601f168201915b50505050508152602001906001019061195f565b5050505081600181518110611a2257611a226144cd565b6020908102919091010152600b8201546000906001600160401b03811115611a4c57611a4c613a01565b604051908082528060200260200182016040528015611a7f57816020015b6060815260200190600190039081611a6a5790505b50600b8401549091506000906001600160401b03811115611aa257611aa2613a01565b604051908082528060200260200182016040528015611ad557816020015b6060815260200190600190039081611ac05790505b50905060015b600b850154811015611c925784600b018181548110611afc57611afc6144cd565b90600052602060002090600202016000018054611b18906141a6565b80601f0160208091040260200160405190810160405280929190818152602001828054611b44906141a6565b8015611b915780601f10611b6657610100808354040283529160200191611b91565b820191906000526020600020905b815481529060010190602001808311611b7457829003601f168201915b5050505050838281518110611ba857611ba86144cd565b602002602001018190525084600b018181548110611bc857611bc86144cd565b90600052602060002090600202016001018054611be4906141a6565b80601f0160208091040260200160405190810160405280929190818152602001828054611c10906141a6565b8015611c5d5780601f10611c3257610100808354040283529160200191611c5d565b820191906000526020600020905b815481529060010190602001808311611c4057829003601f168201915b5050505050828281518110611c7457611c746144cd565b60200260200101819052508080611c8a906144f9565b915050611adb565b50611cb783600081518110611ca957611ca96144cd565b602002602001015183612a25565b83600081518110611cca57611cca6144cd565b6020026020010181905250611cf983600181518110611ceb57611ceb6144cd565b602002602001015182612a25565b83600181518110611d0c57611d0c6144cd565b60209081029190910101525090949350505050565b606061056882612b46565b600082815260076020526040902060010154611d47816126d4565b6106b08383612764565b6060600080516020614b4a833981519152611d6b816126d4565b6000611d7660085490565b90506000816001600160401b03811115611d9257611d92613a01565b604051908082528060200260200182016040528015611dcb57816020015b611db8613488565b815260200190600190039081611db05790505b5090506000805b8381116125ce576000600960008381526020019081526020016000209050806040518061016001604052908160008201548152602001600182018054611e17906141a6565b80601f0160208091040260200160405190810160405280929190818152602001828054611e43906141a6565b8015611e905780601f10611e6557610100808354040283529160200191611e90565b820191906000526020600020905b815481529060010190602001808311611e7357829003601f168201915b5050509183525050600282015460209091019060ff166003811115611eb757611eb76137cb565b6003811115611ec857611ec86137cb565b8152602001600382018054611edc906141a6565b80601f0160208091040260200160405190810160405280929190818152602001828054611f08906141a6565b8015611f555780601f10611f2a57610100808354040283529160200191611f55565b820191906000526020600020905b815481529060010190602001808311611f3857829003601f168201915b50505050508152602001600482018054611f6e906141a6565b80601f0160208091040260200160405190810160405280929190818152602001828054611f9a906141a6565b8015611fe75780601f10611fbc57610100808354040283529160200191611fe7565b820191906000526020600020905b815481529060010190602001808311611fca57829003601f168201915b50505050508152602001600582018054612000906141a6565b80601f016020809104026020016040519081016040528092919081815260200182805461202c906141a6565b80156120795780601f1061204e57610100808354040283529160200191612079565b820191906000526020600020905b81548152906001019060200180831161205c57829003601f168201915b5050505050815260200160068201805480602002602001604051908101604052809291908181526020016000905b8282101561219a57838290600052602060002001805480602002602001604051908101604052809291908181526020016000905b828210156121875783829060005260206000200180546120fa906141a6565b80601f0160208091040260200160405190810160405280929190818152602001828054612126906141a6565b80156121735780601f1061214857610100808354040283529160200191612173565b820191906000526020600020905b81548152906001019060200180831161215657829003601f168201915b5050505050815260200190600101906120db565b50505050815260200190600101906120a7565b5050505081526020016007820180546121b2906141a6565b80601f01602080910402602001604051908101604052809291908181526020018280546121de906141a6565b801561222b5780601f106122005761010080835404028352916020019161222b565b820191906000526020600020905b81548152906001019060200180831161220e57829003601f168201915b505050918352505060088201546001600160a01b03166020808301919091526040805160098501805460609481028301850184528284018181529390950194919390928492909184919060009085015b8282101561232757838290600052602060002001805461229a906141a6565b80601f01602080910402602001604051908101604052809291908181526020018280546122c6906141a6565b80156123135780601f106122e857610100808354040283529160200191612313565b820191906000526020600020905b8154815290600101906020018083116122f657829003601f168201915b50505050508152602001906001019061227b565b50505050815260200160018201805480602002602001604051908101604052809291908181526020016000905b82821015612400578382906000526020600020018054612373906141a6565b80601f016020809104026020016040519081016040528092919081815260200182805461239f906141a6565b80156123ec5780601f106123c1576101008083540402835291602001916123ec565b820191906000526020600020905b8154815290600101906020018083116123cf57829003601f168201915b505050505081526020019060010190612354565b50505050815250508152602001600b8201805480602002602001604051908101604052809291908181526020016000905b828210156125875783829060005260206000209060020201604051806040016040529081600082018054612464906141a6565b80601f0160208091040260200160405190810160405280929190818152602001828054612490906141a6565b80156124dd5780601f106124b2576101008083540402835291602001916124dd565b820191906000526020600020905b8154815290600101906020018083116124c057829003601f168201915b505050505081526020016001820180546124f6906141a6565b80601f0160208091040260200160405190810160405280929190818152602001828054612522906141a6565b801561256f5780601f106125445761010080835404028352916020019161256f565b820191906000526020600020905b81548152906001019060200180831161255257829003601f168201915b50505050508152505081526020019060010190612431565b50505050815250508484815181106125a1576125a16144cd565b602002602001018190525082806125b7906144f9565b9350505080806125c6906144f9565b915050611dd2565b5081529250505b5090565b60006001600160e01b03198216637965db0b60e01b1480610568575061056882612c56565b6000818152600260205260409020546001600160a01b03166126325760405162461bcd60e51b8152600401610665906146a5565b50565b600081815260046020526040902080546001600160a01b0319166001600160a01b038416908117909155819061266a826116c3565b6001600160a01b03167f8c5be1e5ebec7d5bd14f71427d1e84f3dd0314c0f7b2291e5b200ac8c7c3b92560405160405180910390a45050565b6126ad3382612c7b565b6126c95760405162461bcd60e51b815260040161066590614789565b6106b0838383612cf9565b6126328133612e21565b6126e8828261173c565b610c025760008281526007602090815260408083206001600160a01b03851684529091529020805460ff191660011790556127203390565b6001600160a01b0316816001600160a01b0316837f2f8788117e7eff1d82e926ec794901d17c78024a50270940304540a733656f0d60405160405180910390a45050565b61276e828261173c565b15610c025760008281526007602090815260408083206001600160a01b0385168085529252808320805460ff1916905551339285917ff6391f5c32d9c69d2a47ea670b442974b53935d1edc7fd64eb21e047a839171b9190a45050565b60006127db600880546001019055565b600061056860085490565b87895560028901805488919060ff1916600183600381111561280a5761280a6137cb565b02179055506003890161281d87826145ac565b506004890161282c86826145ac565b506005890161283b85826145ac565b5082516128519060068b01906020860190613558565b506007890161286083826145ac565b5060089890980180546001600160a01b0319166001600160a01b039099169890981790975550505050505050565b610c02828260405180602001604052806000815250612e7a565b6106b083838360405180602001604052806000815250611781565b6000828152600260205260409020546001600160a01b03166128f75760405162461bcd60e51b8152600401610665906147e4565b600082815260066020526040902061290f82826145ac565b507ff8e1a15aba9398e019f0b49df1a4fde98ee17ae345cb5f6b5e2c27f5033e8ce78260405161293f91906139c0565b60405180910390a15050565b816001600160a01b0316836001600160a01b03160361297c5760405162461bcd60e51b815260040161066590614828565b6001600160a01b0383811660008181526005602090815260408083209487168084529490915290819020805460ff1916851515179055517f17307eab39ab6107e8899845ad3d59bd9653f200f220920489ca2b5937696c31906129e09085906136a5565b60405180910390a3505050565b6129f73383612c7b565b612a135760405162461bcd60e51b815260040161066590614789565b612a1f84848484612ead565b50505050565b6060600082518451612a379190614838565b6001600160401b03811115612a4e57612a4e613a01565b604051908082528060200260200182016040528015612a8157816020015b6060815260200190600190039081612a6c5790505b50905060005b8451811015612ada57848181518110612aa257612aa26144cd565b6020026020010151828281518110612abc57612abc6144cd565b60200260200101819052508080612ad2906144f9565b915050612a87565b60005b8451811015612b3c57848181518110612af857612af86144cd565b6020026020010151838380612b0c906144f9565b945081518110612b1e57612b1e6144cd565b60200260200101819052508080612b34906144f9565b915050612add565b5090949350505050565b6060612b51826125fe565b60008281526006602052604081208054612b6a906141a6565b80601f0160208091040260200160405190810160405280929190818152602001828054612b96906141a6565b8015612be35780601f10612bb857610100808354040283529160200191612be3565b820191906000526020600020905b815481529060010190602001808311612bc657829003601f168201915b505050505090506000612c0160408051602081019091526000815290565b90508051600003612c13575092915050565b815115612c45578082604051602001612c2d92919061486d565b60405160208183030381529060405292505050919050565b612c4e84612ee0565b949350505050565b60006001600160e01b03198216632483248360e11b1480610568575061056882612f54565b600080612c87836116c3565b9050806001600160a01b0316846001600160a01b03161480612cce57506001600160a01b0380821660009081526005602090815260408083209388168352929052205460ff165b80612c4e5750836001600160a01b0316612ce784610600565b6001600160a01b031614949350505050565b826001600160a01b0316612d0c826116c3565b6001600160a01b031614612d325760405162461bcd60e51b8152600401610665906148c7565b6001600160a01b038216612d585760405162461bcd60e51b815260040161066590614918565b826001600160a01b0316612d6b826116c3565b6001600160a01b031614612d915760405162461bcd60e51b8152600401610665906148c7565b600081815260046020908152604080832080546001600160a01b03199081169091556001600160a01b0387811680865260038552838620805460001901905590871680865283862080546001019055868652600290945282852080549092168417909155905184937fddf252ad1be2c89b69c2b068fc378daa952ba7f163c4a11628f55a4df523b3ef91a4505050565b612e2b828261173c565b610c0257612e3881612fa4565b612e43836020612fb6565b604051602001612e54929190614928565b60408051601f198184030181529082905262461bcd60e51b825261066591600401613709565b612e848383613121565b612e91600084848461321c565b6106b05760405162461bcd60e51b8152600401610665906149cb565b612eb8848484612cf9565b612ec48484848461321c565b612a1f5760405162461bcd60e51b8152600401610665906149cb565b6060612eeb826125fe565b6000612f0260408051602081019091526000815290565b90506000815111612f225760405180602001604052806000815250612f4d565b80612f2c8461331d565b604051602001612f3d92919061486d565b6040516020818303038152906040525b9392505050565b60006001600160e01b031982166380ac58cd60e01b1480612f8557506001600160e01b03198216635b5e139f60e01b145b8061056857506301ffc9a760e01b6001600160e01b0319831614610568565b60606105686001600160a01b03831660145b60606000612fc58360026149db565b612fd0906002614838565b6001600160401b03811115612fe757612fe7613a01565b6040519080825280601f01601f191660200182016040528015613011576020820181803683370190505b509050600360fc1b8160008151811061302c5761302c6144cd565b60200101906001600160f81b031916908160001a905350600f60fb1b8160018151811061305b5761305b6144cd565b60200101906001600160f81b031916908160001a905350600061307f8460026149db565b61308a906001614838565b90505b6001811115613102576f181899199a1a9b1b9c1cb0b131b232b360811b85600f16601081106130be576130be6144cd565b1a60f81b8282815181106130d4576130d46144cd565b60200101906001600160f81b031916908160001a90535060049490941c936130fb816149fa565b905061308d565b508315612f4d5760405162461bcd60e51b815260040161066590614a43565b6001600160a01b0382166131475760405162461bcd60e51b815260040161066590614a85565b6000818152600260205260409020546001600160a01b03161561317c5760405162461bcd60e51b815260040161066590614ac9565b6000818152600260205260409020546001600160a01b0316156131b15760405162461bcd60e51b815260040161066590614ac9565b6001600160a01b038216600081815260036020908152604080832080546001019055848352600290915280822080546001600160a01b0319168417905551839291907fddf252ad1be2c89b69c2b068fc378daa952ba7f163c4a11628f55a4df523b3ef908290a45050565b60006001600160a01b0384163b1561331257604051630a85bd0160e11b81526001600160a01b0385169063150b7a0290613260903390899088908890600401614ad9565b6020604051808303816000875af192505050801561329b575060408051601f3d908101601f1916820190925261329891810190614b28565b60015b6132f8573d8080156132c9576040519150601f19603f3d011682016040523d82523d6000602084013e6132ce565b606091505b5080516000036132f05760405162461bcd60e51b8152600401610665906149cb565b805181602001fd5b6001600160e01b031916630a85bd0160e11b149050612c4e565b506001949350505050565b6060600061332a836133b0565b60010190506000816001600160401b0381111561334957613349613a01565b6040519080825280601f01601f191660200182016040528015613373576020820181803683370190505b5090508181016020015b600019016f181899199a1a9b1b9c1cb0b131b232b360811b600a86061a8153600a850494508461337d575b509392505050565b60008072184f03e93ff9f4daa797ed6e38ed64bf6a1f0160401b83106133ef5772184f03e93ff9f4daa797ed6e38ed64bf6a1f0160401b830492506040015b6d04ee2d6d415b85acef8100000000831061341b576d04ee2d6d415b85acef8100000000830492506020015b662386f26fc10000831061343957662386f26fc10000830492506010015b6305f5e1008310613451576305f5e100830492506008015b612710831061346557612710830492506004015b60648310613477576064830492506002015b600a83106105685760010192915050565b604080516101608101825260008082526060602083015290918201908152602001606081526020016060815260200160608152602001606081526020016060815260200160006001600160a01b031681526020016134f9604051806040016040528060608152602001606081525090565b8152602001606081525090565b82805482825590600052602060002090810192821561354c579160200282015b8281111561354c578251829061353c90826145ac565b5091602001919060010190613526565b506125d59291506135b1565b8280548282559060005260206000209081019282156135a5579160200282015b828111156135a55782518051613595918491602090910190613506565b5091602001919060010190613578565b506125d59291506135ce565b808211156125d55760006135c582826135eb565b506001016135b1565b808211156125d55760006135e28282613625565b506001016135ce565b5080546135f7906141a6565b6000825580601f10613607575050565b601f0160209004906000526020600020908101906126329190613643565b508054600082559060005260206000209081019061263291906135b1565b5b808211156125d55760008155600101613644565b6001600160e01b031981165b811461263257600080fd5b803561056881613658565b60006020828403121561368f5761368f600080fd5b6000612c4e848461366f565b8015155b82525050565b60208101610568828461369b565b60005b838110156136ce5781810151838201526020016136b6565b50506000910152565b60006136e1825190565b8084526020840193506136f88185602086016136b3565b601f01601f19169290920192915050565b60208082528101612f4d81846136d7565b80613664565b80356105688161371a565b60006020828403121561374057613740600080fd5b6000612c4e8484613720565b60006001600160a01b038216610568565b61369f8161374c565b60208101610568828461375d565b6136648161374c565b803561056881613774565b6000806040838503121561379e5761379e600080fd5b60006137aa858561377d565b92505060206137bb85828601613720565b9150509250929050565b8061369f565b634e487b7160e01b600052602160045260246000fd5b60048110612632576126326137cb565b806137fb816137e1565b919050565b6000610568826137f1565b61369f81613800565b6000612f4d83836136d7565b600061382a825190565b808452602084019350836020820285016138448560200190565b8060005b8581101561387957848403895281516138618582613814565b94506020830160209a909a0199925050600101613848565b5091979650505050505050565b805160408084526000919084019061389e8282613820565b915050602083015184820360208601526138b88282613820565b95945050505050565b61012081016138d0828c6137c5565b81810360208301526138e2818b6136d7565b90506138f1604083018a61380b565b818103606083015261390381896136d7565b9050818103608083015261391781886136d7565b905081810360a083015261392b81876136d7565b905081810360c083015261393f81866136d7565b905061394e60e083018561375d565b8181036101008301526139618184613886565b9b9a5050505050505050505050565b60008060006060848603121561398857613988600080fd5b6000613994868661377d565b93505060206139a58682870161377d565b92505060406139b686828701613720565b9150509250925092565b6020810161056882846137c5565b600080604083850312156139e4576139e4600080fd5b60006139f08585613720565b92505060206137bb8582860161377d565b634e487b7160e01b600052604160045260246000fd5b601f19601f83011681018181106001600160401b0382111715613a3c57613a3c613a01565b6040525050565b6000613a4e60405190565b90506137fb8282613a17565b60006001600160401b03821115613a7357613a73613a01565b601f19601f83011660200192915050565b82818337506000910152565b6000613aa3613a9e84613a5a565b613a43565b905082815260208101848484011115613abe57613abe600080fd5b6133a8848285613a84565b600082601f830112613add57613add600080fd5b8135612c4e848260208601613a90565b60006001600160401b03821115613b0657613b06613a01565b5060209081020190565b6000613b1e613a9e84613aed565b83815290506020808201908402830185811115613b3d57613b3d600080fd5b835b81811015613b7d5780356001600160401b03811115613b6057613b60600080fd5b808601613b6d8982613ac9565b8552505060209283019201613b3f565b5050509392505050565b600082601f830112613b9b57613b9b600080fd5b8135612c4e848260208601613b10565b6000613bb9613a9e84613aed565b83815290506020808201908402830185811115613bd857613bd8600080fd5b835b81811015613b7d5780356001600160401b03811115613bfb57613bfb600080fd5b808601613c088982613b87565b8552505060209283019201613bda565b600082601f830112613c2c57613c2c600080fd5b8135612c4e848260208601613bab565b600080600080600060a08688031215613c5757613c57600080fd5b85356001600160401b03811115613c7057613c70600080fd5b613c7c88828901613ac9565b95505060208601356001600160401b03811115613c9b57613c9b600080fd5b613ca788828901613ac9565b94505060408601356001600160401b03811115613cc657613cc6600080fd5b613cd288828901613ac9565b93505060608601356001600160401b03811115613cf157613cf1600080fd5b613cfd88828901613c18565b92505060808601356001600160401b03811115613d1c57613d1c600080fd5b613d2888828901613ac9565b9150509295509295909350565b6000612f4d8383613820565b6000613d4b825190565b80845260208401935083602082028501613d658560200190565b8060005b858110156138795784840389528151613d828582613d35565b94506020830160209a909a0199925050600101613d69565b8051604080845260009190840190613db282826136d7565b915050602083015184820360208601526138b882826136d7565b6000612f4d8383613d9a565b6000613de2825190565b80845260208401935083602082028501613dfc8560200190565b8060005b858110156138795784840389528151613e198582613dcc565b94506020830160209a909a0199925050600101613e00565b8051600090610160840190613e4685826137c5565b5060208301518482036020860152613e5e82826136d7565b9150506040830151613e73604086018261380b565b5060608301518482036060860152613e8b82826136d7565b91505060808301518482036080860152613ea582826136d7565b91505060a083015184820360a0860152613ebf82826136d7565b91505060c083015184820360c0860152613ed98282613d41565b91505060e083015184820360e0860152613ef382826136d7565b915050610100830151613f0a61010086018261375d565b50610120830151848203610120860152613f248282613886565b9150506101408301518482036101408601526138b88282613dd8565b6000612f4d8383613e31565b6000613f56825190565b80845260208401935083602082028501613f708560200190565b8060005b858110156138795784840389528151613f8d8582613f40565b94506020830160209a909a0199925050600101613f74565b60208082528101612f4d8184613f4c565b60008060008060808587031215613fcf57613fcf600080fd5b84356001600160401b03811115613fe857613fe8600080fd5b613ff487828801613b87565b94505060208501356001600160401b0381111561401357614013600080fd5b61401f87828801613b87565b935050604061403087828801613720565b92505060608501356001600160401b0381111561404f5761404f600080fd5b61405b87828801613ac9565b91505092959194509250565b60006020828403121561407c5761407c600080fd5b6000612c4e848461377d565b801515613664565b803561056881614088565b600080604083850312156140b1576140b1600080fd5b60006140bd858561377d565b92505060206137bb85828601614090565b600080600080608085870312156140e7576140e7600080fd5b60006140f3878761377d565b945050602061401f8782880161377d565b600061410e825190565b808452602084019350836020820285016141288560200190565b8060005b8581101561387957848403895281516141458582613d35565b94506020830160209a909a019992505060010161412c565b60208082528101612f4d8184614104565b6000806040838503121561418457614184600080fd5b60006139f0858561377d565b634e487b7160e01b600052602260045260246000fd5b6002810460018216806141ba57607f821691505b6020821081036141cc576141cc614190565b50919050565b602181526000602082017f4552433732313a20617070726f76616c20746f2063757272656e74206f776e658152603960f91b602082015291505b5060400190565b60208082528101610568816141d2565b603d81526000602082017f4552433732313a20617070726f76652063616c6c6572206973206e6f7420746f81527f6b656e206f776e6572206f7220617070726f76656420666f7220616c6c0000006020820152915061420c565b6020808252810161056881614223565b602f81526000602082017f416363657373436f6e74726f6c3a2063616e206f6e6c792072656e6f756e636581526e103937b632b9903337b91039b2b63360891b6020820152915061420c565b602080825281016105688161428d565b600081546142f6816141a6565b808552602085019450600182168015614316576001811461432c5761435a565b60ff19831686526020821515028601935061435a565b60008581526020902060005b8381101561435457815488820152600190910190602001614338565b87019450505b50505092915050565b6000612f4d83836142e9565b6000614379825490565b808452602084019350836020820285016143998560009081526020902090565b8060005b85811015613879578484038952816143b58582614363565b60209a909a01999450506001918201910161439d565b6000612f4d838361436f565b60006143e1825490565b808452602084019350836020820285016144018560009081526020902090565b8060005b858110156138795784840389528161441d85826143cb565b60209a909a019994505060019182019101614405565b6101008101614442828b6137c5565b61444f602083018a61380b565b818103604083015261446181896142e9565b9050818103606083015261447581886142e9565b9050818103608083015261448981876142e9565b905081810360a083015261449d81866143d7565b905081810360c08301526144b181856142e9565b90506144c060e083018461375d565b9998505050505050505050565b634e487b7160e01b600052603260045260246000fd5b634e487b7160e01b600052601160045260246000fd5b6000600019820361450c5761450c6144e3565b5060010190565b600061056861451f8381565b90565b61452b83614513565b81546008840282811b60001990911b908116901990911617825550505050565b60006106b0818484614522565b81811015610c025761456b60008261454b565b600101614558565b601f8211156106b0576000818152602090206020601f8501048101602085101561459a5750805b6116bc6020601f860104830182614558565b81516001600160401b038111156145c5576145c5613a01565b6145cf82546141a6565b6145da828285614573565b6020601f83116001811461460e57600084156145f65750858201515b600019600886021c19811660028602178655506116ba565b600085815260208120601f198616915b8281101561463e578885015182556020948501946001909201910161461e565b8683101561465a5784890151600019601f89166008021c191682555b600160028802018855505050505050505050565b601881526000602082017f4552433732313a20696e76616c696420746f6b656e2049440000000000000000815291505b5060200190565b602080825281016105688161466e565b602981526000602082017f4552433732313a2061646472657373207a65726f206973206e6f7420612076618152683634b21037bbb732b960b91b6020820152915061420c565b60208082528101610568816146b5565b600d81526000602082016c1058d8d95cdcc819195b9a5959609a1b8152915061469e565b602080825281016105688161470b565b602d81526000602082017f4552433732313a2063616c6c6572206973206e6f7420746f6b656e206f776e6581526c1c881bdc88185c1c1c9bdd9959609a1b6020820152915061420c565b602080825281016105688161473f565b602e81526000602082017f45524337323155524953746f726167653a2055524920736574206f66206e6f6e81526d32bc34b9ba32b73a103a37b5b2b760911b6020820152915061420c565b6020808252810161056881614799565b601981526000602082017f4552433732313a20617070726f766520746f2063616c6c6572000000000000008152915061469e565b60208082528101610568816147f4565b80820180821115610568576105686144e3565b6000614855825190565b6148638185602086016136b3565b9290920192915050565b6000614879828561484b565b9150612c4e828461484b565b602581526000602082017f4552433732313a207472616e736665722066726f6d20696e636f72726563742081526437bbb732b960d91b6020820152915061420c565b6020808252810161056881614885565b602481526000602082017f4552433732313a207472616e7366657220746f20746865207a65726f206164648152637265737360e01b6020820152915061420c565b60208082528101610568816148d7565b7f416363657373436f6e74726f6c3a206163636f756e74200000000000000000008152601701600061495a828561484b565b7001034b99036b4b9b9b4b733903937b6329607d1b8152915060118201614879565b603281526000602082017f4552433732313a207472616e7366657220746f206e6f6e20455243373231526581527131b2b4bb32b91034b6b83632b6b2b73a32b960711b6020820152915061420c565b602080825281016105688161497c565b8181028082158382048514176149f3576149f36144e3565b5092915050565b600081614a0957614a096144e3565b506000190190565b60208082527f537472696e67733a20686578206c656e67746820696e73756666696369656e749101908152600061469e565b6020808252810161056881614a11565b60208082527f4552433732313a206d696e7420746f20746865207a65726f20616464726573739101908152600061469e565b6020808252810161056881614a53565b601c81526000602082017f4552433732313a20746f6b656e20616c7265616479206d696e746564000000008152915061469e565b6020808252810161056881614a95565b60808101614ae7828761375d565b614af4602083018661375d565b614b0160408301856137c5565b8181036060830152614b1381846136d7565b9695505050505050565b805161056881613658565b600060208284031215614b3d57614b3d600080fd5b6000612c4e8484614b1d56fea49807205ce4d355092ef5a8a18f56e8913cf4a201fbe287825b095693c21775a2646970667358221220041d7b0c2dbe18cbcf59cb9121b9de76c933958642a3557170b8f17c9bd37f1364736f6c63430008110033",
	"devdoc": {
		"kind": "dev",
		"methods": {
			"approve(address,uint256)": {
				"details": "See {IERC721-approve}."
			},
			"balanceOf(address)": {
				"details": "See {IERC721-balanceOf}."
			},
			"getApproved(uint256)": {
				"details": "See {IERC721-getApproved}."
			},
			"getRoleAdmin(bytes32)": {
				"details": "Returns the admin role that controls `role`. See {grantRole} and {revokeRole}. To change a role's admin, use {_setRoleAdmin}."
			},
			"grantRole(bytes32,address)": {
				"details": "Grants `role` to `account`. If `account` had not been already granted `role`, emits a {RoleGranted} event. Requirements: - the caller must have ``role``'s admin role. May emit a {RoleGranted} event."
			},
			"hasRole(bytes32,address)": {
				"details": "Returns `true` if `account` has been granted `role`."
			},
			"isApprovedForAll(address,address)": {
				"details": "See {IERC721-isApprovedForAll}."
			},
			"name()": {
				"details": "See {IERC721Metadata-name}."
			},
			"ownerOf(uint256)": {
				"details": "See {IERC721-ownerOf}."
			},
			"renounceRole(bytes32,address)": {
				"details": "Revokes `role` from the calling account. Roles are often managed via {grantRole} and {revokeRole}: this function's purpose is to provide a mechanism for accounts to lose their privileges if they are compromised (such as when a trusted device is misplaced). If the calling account had been revoked `role`, emits a {RoleRevoked} event. Requirements: - the caller must be `account`. May emit a {RoleRevoked} event."
			},
			"revokeRole(bytes32,address)": {
				"details": "Revokes `role` from `account`. If `account` had been granted `role`, emits a {RoleRevoked} event. Requirements: - the caller must have ``role``'s admin role. May emit a {RoleRevoked} event."
			},
			"setApprovalForAll(address,bool)": {
				"details": "See {IERC721-setApprovalForAll}."
			},
			"symbol()": {
				"details": "See {IERC721Metadata-symbol}."
			}
		},
		"title": "BIOrbit  NOTE: BIOrbit is a blockchain-based platform that enables monitoring and protection of Earth's natural resources  through satellite imagery and community engagement. Users can contribute to the platform by donating to monitor  protected areas and purchasing satellite images, ultimately fostering sustainable development and environmental conservation.",
		"version": 1
	},
	"userdoc": {
		"kind": "user",
		"methods": {},
		"version": 1
	},
	"storageLayout": {
		"storage": [
			{
				"astId": 442,
				"contract": "contracts/BIOrbit.sol:BIOrbit",
				"label": "_name",
				"offset": 0,
				"slot": "0",
				"type": "t_string_storage"
			},
			{
				"astId": 444,
				"contract": "contracts/BIOrbit.sol:BIOrbit",
				"label": "_symbol",
				"offset": 0,
				"slot": "1",
				"type": "t_string_storage"
			},
			{
				"astId": 448,
				"contract": "contracts/BIOrbit.sol:BIOrbit",
				"label": "_owners",
				"offset": 0,
				"slot": "2",
				"type": "t_mapping(t_uint256,t_address)"
			},
			{
				"astId": 452,
				"contract": "contracts/BIOrbit.sol:BIOrbit",
				"label": "_balances",
				"offset": 0,
				"slot": "3",
				"type": "t_mapping(t_address,t_uint256)"
			},
			{
				"astId": 456,
				"contract": "contracts/BIOrbit.sol:BIOrbit",
				"label": "_tokenApprovals",
				"offset": 0,
				"slot": "4",
				"type": "t_mapping(t_uint256,t_address)"
			},
			{
				"astId": 462,
				"contract": "contracts/BIOrbit.sol:BIOrbit",
				"label": "_operatorApprovals",
				"offset": 0,
				"slot": "5",
				"type": "t_mapping(t_address,t_mapping(t_address,t_bool))"
			},
			{
				"astId": 1493,
				"contract": "contracts/BIOrbit.sol:BIOrbit",
				"label": "_tokenURIs",
				"offset": 0,
				"slot": "6",
				"type": "t_mapping(t_uint256,t_string_storage)"
			},
			{
				"astId": 24,
				"contract": "contracts/BIOrbit.sol:BIOrbit",
				"label": "_roles",
				"offset": 0,
				"slot": "7",
				"type": "t_mapping(t_bytes32,t_struct(RoleData)19_storage)"
			},
			{
				"astId": 3347,
				"contract": "contracts/BIOrbit.sol:BIOrbit",
				"label": "projectIdCounter",
				"offset": 0,
				"slot": "8",
				"type": "t_struct(Counter)2018_storage"
			},
			{
				"astId": 3398,
				"contract": "contracts/BIOrbit.sol:BIOrbit",
				"label": "Projects",
				"offset": 0,
				"slot": "9",
				"type": "t_mapping(t_uint256,t_struct(Project)3393_storage)"
			}
		],
		"types": {
			"t_address": {
				"encoding": "inplace",
				"label": "address",
				"numberOfBytes": "20"
			},
			"t_array(t_array(t_string_storage)dyn_storage)dyn_storage": {
				"base": "t_array(t_string_storage)dyn_storage",
				"encoding": "dynamic_array",
				"label": "string[][]",
				"numberOfBytes": "32"
			},
			"t_array(t_string_storage)dyn_storage": {
				"base": "t_string_storage",
				"encoding": "dynamic_array",
				"label": "string[]",
				"numberOfBytes": "32"
			},
			"t_array(t_struct(Monitoring)3357_storage)dyn_storage": {
				"base": "t_struct(Monitoring)3357_storage",
				"encoding": "dynamic_array",
				"label": "struct BIOrbit.Monitoring[]",
				"numberOfBytes": "32"
			},
			"t_bool": {
				"encoding": "inplace",
				"label": "bool",
				"numberOfBytes": "1"
			},
			"t_bytes32": {
				"encoding": "inplace",
				"label": "bytes32",
				"numberOfBytes": "32"
			},
			"t_enum(State)3352": {
				"encoding": "inplace",
				"label": "enum BIOrbit.State",
				"numberOfBytes": "1"
			},
			"t_mapping(t_address,t_bool)": {
				"encoding": "mapping",
				"key": "t_address",
				"label": "mapping(address => bool)",
				"numberOfBytes": "32",
				"value": "t_bool"
			},
			"t_mapping(t_address,t_mapping(t_address,t_bool))": {
				"encoding": "mapping",
				"key": "t_address",
				"label": "mapping(address => mapping(address => bool))",
				"numberOfBytes": "32",
				"value": "t_mapping(t_address,t_bool)"
			},
			"t_mapping(t_address,t_uint256)": {
				"encoding": "mapping",
				"key": "t_address",
				"label": "mapping(address => uint256)",
				"numberOfBytes": "32",
				"value": "t_uint256"
			},
			"t_mapping(t_bytes32,t_struct(RoleData)19_storage)": {
				"encoding": "mapping",
				"key": "t_bytes32",
				"label": "mapping(bytes32 => struct AccessControl.RoleData)",
				"numberOfBytes": "32",
				"value": "t_struct(RoleData)19_storage"
			},
			"t_mapping(t_uint256,t_address)": {
				"encoding": "mapping",
				"key": "t_uint256",
				"label": "mapping(uint256 => address)",
				"numberOfBytes": "32",
				"value": "t_address"
			},
			"t_mapping(t_uint256,t_string_storage)": {
				"encoding": "mapping",
				"key": "t_uint256",
				"label": "mapping(uint256 => string)",
				"numberOfBytes": "32",
				"value": "t_string_storage"
			},
			"t_mapping(t_uint256,t_struct(Project)3393_storage)": {
				"encoding": "mapping",
				"key": "t_uint256",
				"label": "mapping(uint256 => struct BIOrbit.Project)",
				"numberOfBytes": "32",
				"value": "t_struct(Project)3393_storage"
			},
			"t_string_storage": {
				"encoding": "bytes",
				"label": "string",
				"numberOfBytes": "32"
			},
			"t_struct(Counter)2018_storage": {
				"encoding": "inplace",
				"label": "struct Counters.Counter",
				"members": [
					{
						"astId": 2017,
						"contract": "contracts/BIOrbit.sol:BIOrbit",
						"label": "_value",
						"offset": 0,
						"slot": "0",
						"type": "t_uint256"
					}
				],
				"numberOfBytes": "32"
			},
			"t_struct(ImageTimeSeries)3364_storage": {
				"encoding": "inplace",
				"label": "struct BIOrbit.ImageTimeSeries",
				"members": [
					{
						"astId": 3360,
						"contract": "contracts/BIOrbit.sol:BIOrbit",
						"label": "detectionDate",
						"offset": 0,
						"slot": "0",
						"type": "t_array(t_string_storage)dyn_storage"
					},
					{
						"astId": 3363,
						"contract": "contracts/BIOrbit.sol:BIOrbit",
						"label": "forestCoverExtension",
						"offset": 0,
						"slot": "1",
						"type": "t_array(t_string_storage)dyn_storage"
					}
				],
				"numberOfBytes": "64"
			},
			"t_struct(Monitoring)3357_storage": {
				"encoding": "inplace",
				"label": "struct BIOrbit.Monitoring",
				"members": [
					{
						"astId": 3354,
						"contract": "contracts/BIOrbit.sol:BIOrbit",
						"label": "detectionDate",
						"offset": 0,
						"slot": "0",
						"type": "t_string_storage"
					},
					{
						"astId": 3356,
						"contract": "contracts/BIOrbit.sol:BIOrbit",
						"label": "forestCoverExtension",
						"offset": 0,
						"slot": "1",
						"type": "t_string_storage"
					}
				],
				"numberOfBytes": "64"
			},
			"t_struct(Project)3393_storage": {
				"encoding": "inplace",
				"label": "struct BIOrbit.Project",
				"members": [
					{
						"astId": 3366,
						"contract": "contracts/BIOrbit.sol:BIOrbit",
						"label": "id",
						"offset": 0,
						"slot": "0",
						"type": "t_uint256"
					},
					{
						"astId": 3368,
						"contract": "contracts/BIOrbit.sol:BIOrbit",
						"label": "uri",
						"offset": 0,
						"slot": "1",
						"type": "t_string_storage"
					},
					{
						"astId": 3371,
						"contract": "contracts/BIOrbit.sol:BIOrbit",
						"label": "state",
						"offset": 0,
						"slot": "2",
						"type": "t_enum(State)3352"
					},
					{
						"astId": 3373,
						"contract": "contracts/BIOrbit.sol:BIOrbit",
						"label": "name",
						"offset": 0,
						"slot": "3",
						"type": "t_string_storage"
					},
					{
						"astId": 3375,
						"contract": "contracts/BIOrbit.sol:BIOrbit",
						"label": "description",
						"offset": 0,
						"slot": "4",
						"type": "t_string_storage"
					},
					{
						"astId": 3377,
						"contract": "contracts/BIOrbit.sol:BIOrbit",
						"label": "extension",
						"offset": 0,
						"slot": "5",
						"type": "t_string_storage"
					},
					{
						"astId": 3381,
						"contract": "contracts/BIOrbit.sol:BIOrbit",
						"label": "footprint",
						"offset": 0,
						"slot": "6",
						"type": "t_array(t_array(t_string_storage)dyn_storage)dyn_storage"
					},
					{
						"astId": 3383,
						"contract": "contracts/BIOrbit.sol:BIOrbit",
						"label": "country",
						"offset": 0,
						"slot": "7",
						"type": "t_string_storage"
					},
					{
						"astId": 3385,
						"contract": "contracts/BIOrbit.sol:BIOrbit",
						"label": "owner",
						"offset": 0,
						"slot": "8",
						"type": "t_address"
					},
					{
						"astId": 3388,
						"contract": "contracts/BIOrbit.sol:BIOrbit",
						"label": "imageTimeSeries",
						"offset": 0,
						"slot": "9",
						"type": "t_struct(ImageTimeSeries)3364_storage"
					},
					{
						"astId": 3392,
						"contract": "contracts/BIOrbit.sol:BIOrbit",
						"label": "monitoring",
						"offset": 0,
						"slot": "11",
						"type": "t_array(t_struct(Monitoring)3357_storage)dyn_storage"
					}
				],
				"numberOfBytes": "384"
			},
			"t_struct(RoleData)19_storage": {
				"encoding": "inplace",
				"label": "struct AccessControl.RoleData",
				"members": [
					{
						"astId": 16,
						"contract": "contracts/BIOrbit.sol:BIOrbit",
						"label": "members",
						"offset": 0,
						"slot": "0",
						"type": "t_mapping(t_address,t_bool)"
					},
					{
						"astId": 18,
						"contract": "contracts/BIOrbit.sol:BIOrbit",
						"label": "adminRole",
						"offset": 0,
						"slot": "1",
						"type": "t_bytes32"
					}
				],
				"numberOfBytes": "64"
			},
			"t_uint256": {
				"encoding": "inplace",
				"label": "uint256",
				"numberOfBytes": "32"
			}
		}
	}
}