{
  "address": "0x012e0755d8Bf8C65ad1452DCe43361AABD53C65B",
  "abi": [
    {
      "inputs": [],
      "stateMutability": "nonpayable",
      "type": "constructor"
    },
    {
      "anonymous": false,
      "inputs": [
        {
          "indexed": true,
          "internalType": "address",
          "name": "owner",
          "type": "address"
        },
        {
          "indexed": true,
          "internalType": "address",
          "name": "approved",
          "type": "address"
        },
        {
          "indexed": true,
          "internalType": "uint256",
          "name": "tokenId",
          "type": "uint256"
        }
      ],
      "name": "Approval",
      "type": "event"
    },
    {
      "anonymous": false,
      "inputs": [
        {
          "indexed": true,
          "internalType": "address",
          "name": "owner",
          "type": "address"
        },
        {
          "indexed": true,
          "internalType": "address",
          "name": "operator",
          "type": "address"
        },
        {
          "indexed": false,
          "internalType": "bool",
          "name": "approved",
          "type": "bool"
        }
      ],
      "name": "ApprovalForAll",
      "type": "event"
    },
    {
      "anonymous": false,
      "inputs": [
        {
          "indexed": false,
          "internalType": "uint256",
          "name": "_fromTokenId",
          "type": "uint256"
        },
        {
          "indexed": false,
          "internalType": "uint256",
          "name": "_toTokenId",
          "type": "uint256"
        }
      ],
      "name": "BatchMetadataUpdate",
      "type": "event"
    },
    {
      "anonymous": false,
      "inputs": [
        {
          "indexed": false,
          "internalType": "uint256",
          "name": "_tokenId",
          "type": "uint256"
        }
      ],
      "name": "MetadataUpdate",
      "type": "event"
    },
    {
      "anonymous": false,
      "inputs": [
        {
          "indexed": false,
          "internalType": "uint256",
          "name": "id",
          "type": "uint256"
        },
        {
          "indexed": false,
          "internalType": "enum BIOrbit.State",
          "name": "state",
          "type": "uint8"
        },
        {
          "indexed": false,
          "internalType": "string",
          "name": "name",
          "type": "string"
        },
        {
          "indexed": false,
          "internalType": "string",
          "name": "description",
          "type": "string"
        },
        {
          "indexed": false,
          "internalType": "string",
          "name": "extension",
          "type": "string"
        },
        {
          "indexed": false,
          "internalType": "string[][]",
          "name": "footprint",
          "type": "string[][]"
        },
        {
          "indexed": false,
          "internalType": "string",
          "name": "country",
          "type": "string"
        },
        {
          "indexed": false,
          "internalType": "address",
          "name": "owner",
          "type": "address"
        }
      ],
      "name": "ProjectCreated",
      "type": "event"
    },
    {
      "anonymous": false,
      "inputs": [
        {
          "indexed": true,
          "internalType": "bytes32",
          "name": "role",
          "type": "bytes32"
        },
        {
          "indexed": true,
          "internalType": "bytes32",
          "name": "previousAdminRole",
          "type": "bytes32"
        },
        {
          "indexed": true,
          "internalType": "bytes32",
          "name": "newAdminRole",
          "type": "bytes32"
        }
      ],
      "name": "RoleAdminChanged",
      "type": "event"
    },
    {
      "anonymous": false,
      "inputs": [
        {
          "indexed": true,
          "internalType": "bytes32",
          "name": "role",
          "type": "bytes32"
        },
        {
          "indexed": true,
          "internalType": "address",
          "name": "account",
          "type": "address"
        },
        {
          "indexed": true,
          "internalType": "address",
          "name": "sender",
          "type": "address"
        }
      ],
      "name": "RoleGranted",
      "type": "event"
    },
    {
      "anonymous": false,
      "inputs": [
        {
          "indexed": true,
          "internalType": "bytes32",
          "name": "role",
          "type": "bytes32"
        },
        {
          "indexed": true,
          "internalType": "address",
          "name": "account",
          "type": "address"
        },
        {
          "indexed": true,
          "internalType": "address",
          "name": "sender",
          "type": "address"
        }
      ],
      "name": "RoleRevoked",
      "type": "event"
    },
    {
      "anonymous": false,
      "inputs": [
        {
          "indexed": true,
          "internalType": "address",
          "name": "from",
          "type": "address"
        },
        {
          "indexed": true,
          "internalType": "address",
          "name": "to",
          "type": "address"
        },
        {
          "indexed": true,
          "internalType": "uint256",
          "name": "tokenId",
          "type": "uint256"
        }
      ],
      "name": "Transfer",
      "type": "event"
    },
    {
      "inputs": [],
      "name": "ADMIN_ROLE",
      "outputs": [
        {
          "internalType": "bytes32",
          "name": "",
          "type": "bytes32"
        }
      ],
      "stateMutability": "view",
      "type": "function"
    },
    {
      "inputs": [],
      "name": "DEFAULT_ADMIN_ROLE",
      "outputs": [
        {
          "internalType": "bytes32",
          "name": "",
          "type": "bytes32"
        }
      ],
      "stateMutability": "view",
      "type": "function"
    },
    {
      "inputs": [
        {
          "internalType": "address",
          "name": "to",
          "type": "address"
        },
        {
          "internalType": "uint256",
          "name": "tokenId",
          "type": "uint256"
        }
      ],
      "name": "approve",
      "outputs": [],
      "stateMutability": "nonpayable",
      "type": "function"
    },
    {
      "inputs": [
        {
          "internalType": "address",
          "name": "owner",
          "type": "address"
        }
      ],
      "name": "balanceOf",
      "outputs": [
        {
          "internalType": "uint256",
          "name": "",
          "type": "uint256"
        }
      ],
      "stateMutability": "view",
      "type": "function"
    },
    {
      "inputs": [
        {
          "internalType": "uint256",
          "name": "tokenId",
          "type": "uint256"
        }
      ],
      "name": "getApproved",
      "outputs": [
        {
          "internalType": "address",
          "name": "",
          "type": "address"
        }
      ],
      "stateMutability": "view",
      "type": "function"
    },
    {
      "inputs": [
        {
          "internalType": "uint256",
          "name": "_projectId",
          "type": "uint256"
        }
      ],
      "name": "getDetectionDatesAndForestCoverExtensionsByProjectId",
      "outputs": [
        {
          "internalType": "string[][]",
          "name": "",
          "type": "string[][]"
        }
      ],
      "stateMutability": "view",
      "type": "function"
    },
    {
      "inputs": [],
      "name": "getProjects",
      "outputs": [
        {
          "components": [
            {
              "internalType": "uint256",
              "name": "id",
              "type": "uint256"
            },
            {
              "internalType": "string",
              "name": "uri",
              "type": "string"
            },
            {
              "internalType": "contract IERC721",
              "name": "nft",
              "type": "address"
            },
            {
              "internalType": "enum BIOrbit.State",
              "name": "state",
              "type": "uint8"
            },
            {
              "internalType": "string",
              "name": "name",
              "type": "string"
            },
            {
              "internalType": "string",
              "name": "description",
              "type": "string"
            },
            {
              "internalType": "string",
              "name": "extension",
              "type": "string"
            },
            {
              "internalType": "string[][]",
              "name": "footprint",
              "type": "string[][]"
            },
            {
              "internalType": "string",
              "name": "country",
              "type": "string"
            },
            {
              "internalType": "address",
              "name": "owner",
              "type": "address"
            },
            {
              "components": [
                {
                  "internalType": "string[]",
                  "name": "detectionDate",
                  "type": "string[]"
                },
                {
                  "internalType": "string[]",
                  "name": "forestCoverExtension",
                  "type": "string[]"
                }
              ],
              "internalType": "struct BIOrbit.ImageTimeSeries",
              "name": "imageTimeSeries",
              "type": "tuple"
            },
            {
              "components": [
                {
                  "internalType": "string",
                  "name": "detectionDate",
                  "type": "string"
                },
                {
                  "internalType": "string",
                  "name": "forestCoverExtension",
                  "type": "string"
                }
              ],
              "internalType": "struct BIOrbit.Monitoring[]",
              "name": "monitoring",
              "type": "tuple[]"
            }
          ],
          "internalType": "struct BIOrbit.Project[]",
          "name": "",
          "type": "tuple[]"
        }
      ],
      "stateMutability": "view",
      "type": "function"
    },
    {
      "inputs": [],
      "name": "getProjectsByOwner",
      "outputs": [
        {
          "components": [
            {
              "internalType": "uint256",
              "name": "id",
              "type": "uint256"
            },
            {
              "internalType": "string",
              "name": "uri",
              "type": "string"
            },
            {
              "internalType": "contract IERC721",
              "name": "nft",
              "type": "address"
            },
            {
              "internalType": "enum BIOrbit.State",
              "name": "state",
              "type": "uint8"
            },
            {
              "internalType": "string",
              "name": "name",
              "type": "string"
            },
            {
              "internalType": "string",
              "name": "description",
              "type": "string"
            },
            {
              "internalType": "string",
              "name": "extension",
              "type": "string"
            },
            {
              "internalType": "string[][]",
              "name": "footprint",
              "type": "string[][]"
            },
            {
              "internalType": "string",
              "name": "country",
              "type": "string"
            },
            {
              "internalType": "address",
              "name": "owner",
              "type": "address"
            },
            {
              "components": [
                {
                  "internalType": "string[]",
                  "name": "detectionDate",
                  "type": "string[]"
                },
                {
                  "internalType": "string[]",
                  "name": "forestCoverExtension",
                  "type": "string[]"
                }
              ],
              "internalType": "struct BIOrbit.ImageTimeSeries",
              "name": "imageTimeSeries",
              "type": "tuple"
            },
            {
              "components": [
                {
                  "internalType": "string",
                  "name": "detectionDate",
                  "type": "string"
                },
                {
                  "internalType": "string",
                  "name": "forestCoverExtension",
                  "type": "string"
                }
              ],
              "internalType": "struct BIOrbit.Monitoring[]",
              "name": "monitoring",
              "type": "tuple[]"
            }
          ],
          "internalType": "struct BIOrbit.Project[]",
          "name": "",
          "type": "tuple[]"
        }
      ],
      "stateMutability": "view",
      "type": "function"
    },
    {
      "inputs": [
        {
          "internalType": "bytes32",
          "name": "role",
          "type": "bytes32"
        }
      ],
      "name": "getRoleAdmin",
      "outputs": [
        {
          "internalType": "bytes32",
          "name": "",
          "type": "bytes32"
        }
      ],
      "stateMutability": "view",
      "type": "function"
    },
    {
      "inputs": [
        {
          "internalType": "bytes32",
          "name": "role",
          "type": "bytes32"
        },
        {
          "internalType": "address",
          "name": "account",
          "type": "address"
        }
      ],
      "name": "grantRole",
      "outputs": [],
      "stateMutability": "nonpayable",
      "type": "function"
    },
    {
      "inputs": [
        {
          "internalType": "bytes32",
          "name": "role",
          "type": "bytes32"
        },
        {
          "internalType": "address",
          "name": "account",
          "type": "address"
        }
      ],
      "name": "hasRole",
      "outputs": [
        {
          "internalType": "bool",
          "name": "",
          "type": "bool"
        }
      ],
      "stateMutability": "view",
      "type": "function"
    },
    {
      "inputs": [
        {
          "internalType": "address",
          "name": "owner",
          "type": "address"
        },
        {
          "internalType": "address",
          "name": "operator",
          "type": "address"
        }
      ],
      "name": "isApprovedForAll",
      "outputs": [
        {
          "internalType": "bool",
          "name": "",
          "type": "bool"
        }
      ],
      "stateMutability": "view",
      "type": "function"
    },
    {
      "inputs": [
        {
          "internalType": "string",
          "name": "_name",
          "type": "string"
        },
        {
          "internalType": "string",
          "name": "_description",
          "type": "string"
        },
        {
          "internalType": "string",
          "name": "_extension",
          "type": "string"
        },
        {
          "internalType": "string[][]",
          "name": "_footprint",
          "type": "string[][]"
        },
        {
          "internalType": "string",
          "name": "_country",
          "type": "string"
        }
      ],
      "name": "mintProject",
      "outputs": [],
      "stateMutability": "payable",
      "type": "function"
    },
    {
      "inputs": [],
      "name": "name",
      "outputs": [
        {
          "internalType": "string",
          "name": "",
          "type": "string"
        }
      ],
      "stateMutability": "view",
      "type": "function"
    },
    {
      "inputs": [
        {
          "internalType": "uint256",
          "name": "tokenId",
          "type": "uint256"
        }
      ],
      "name": "ownerOf",
      "outputs": [
        {
          "internalType": "address",
          "name": "",
          "type": "address"
        }
      ],
      "stateMutability": "view",
      "type": "function"
    },
    {
      "inputs": [],
      "name": "projectIdCounter",
      "outputs": [
        {
          "internalType": "uint256",
          "name": "_value",
          "type": "uint256"
        }
      ],
      "stateMutability": "view",
      "type": "function"
    },
    {
      "inputs": [
        {
          "internalType": "bytes32",
          "name": "role",
          "type": "bytes32"
        },
        {
          "internalType": "address",
          "name": "account",
          "type": "address"
        }
      ],
      "name": "renounceRole",
      "outputs": [],
      "stateMutability": "nonpayable",
      "type": "function"
    },
    {
      "inputs": [
        {
          "internalType": "bytes32",
          "name": "role",
          "type": "bytes32"
        },
        {
          "internalType": "address",
          "name": "account",
          "type": "address"
        }
      ],
      "name": "revokeRole",
      "outputs": [],
      "stateMutability": "nonpayable",
      "type": "function"
    },
    {
      "inputs": [
        {
          "internalType": "address",
          "name": "from",
          "type": "address"
        },
        {
          "internalType": "address",
          "name": "to",
          "type": "address"
        },
        {
          "internalType": "uint256",
          "name": "tokenId",
          "type": "uint256"
        }
      ],
      "name": "safeTransferFrom",
      "outputs": [],
      "stateMutability": "nonpayable",
      "type": "function"
    },
    {
      "inputs": [
        {
          "internalType": "address",
          "name": "from",
          "type": "address"
        },
        {
          "internalType": "address",
          "name": "to",
          "type": "address"
        },
        {
          "internalType": "uint256",
          "name": "tokenId",
          "type": "uint256"
        },
        {
          "internalType": "bytes",
          "name": "_data",
          "type": "bytes"
        }
      ],
      "name": "safeTransferFrom",
      "outputs": [],
      "stateMutability": "nonpayable",
      "type": "function"
    },
    {
      "inputs": [
        {
          "internalType": "address",
          "name": "operator",
          "type": "address"
        },
        {
          "internalType": "bool",
          "name": "approved",
          "type": "bool"
        }
      ],
      "name": "setApprovalForAll",
      "outputs": [],
      "stateMutability": "nonpayable",
      "type": "function"
    },
    {
      "inputs": [
        {
          "internalType": "string[]",
          "name": "_detectionDate",
          "type": "string[]"
        },
        {
          "internalType": "string[]",
          "name": "_forestCoverExtension",
          "type": "string[]"
        },
        {
          "internalType": "uint256",
          "name": "_projectId",
          "type": "uint256"
        },
        {
          "internalType": "string",
          "name": "_tokenURI",
          "type": "string"
        }
      ],
      "name": "setTokenURI",
      "outputs": [],
      "stateMutability": "nonpayable",
      "type": "function"
    },
    {
      "inputs": [
        {
          "internalType": "bytes4",
          "name": "interfaceId",
          "type": "bytes4"
        }
      ],
      "name": "supportsInterface",
      "outputs": [
        {
          "internalType": "bool",
          "name": "",
          "type": "bool"
        }
      ],
      "stateMutability": "view",
      "type": "function"
    },
    {
      "inputs": [],
      "name": "symbol",
      "outputs": [
        {
          "internalType": "string",
          "name": "",
          "type": "string"
        }
      ],
      "stateMutability": "view",
      "type": "function"
    },
    {
      "inputs": [
        {
          "internalType": "uint256",
          "name": "tokenId",
          "type": "uint256"
        }
      ],
      "name": "tokenURI",
      "outputs": [
        {
          "internalType": "string",
          "name": "",
          "type": "string"
        }
      ],
      "stateMutability": "view",
      "type": "function"
    },
    {
      "inputs": [
        {
          "internalType": "address",
          "name": "from",
          "type": "address"
        },
        {
          "internalType": "address",
          "name": "to",
          "type": "address"
        },
        {
          "internalType": "uint256",
          "name": "tokenId",
          "type": "uint256"
        }
      ],
      "name": "transferFrom",
      "outputs": [],
      "stateMutability": "nonpayable",
      "type": "function"
    }
  ],
  "transactionHash": "0x03c3fb2d86400e77ee45928ac8e9a8944f72bcd8d03e0833de4693edb00fcf7a",
  "args": [],
  "numDeployments": 2,
  "solcInputHash": "b3c5ee745780f72ee1fc3c643ccca405",
  "bytecode": "0x60806040523480156200001157600080fd5b5060405180604001604052806007815260200166109253dc989a5d60ca1b8152506040518060400160405280600381526020016242494f60e81b81525081600090816200005f919062000279565b5060016200006e828262000279565b505060016008555062000083600033620000b5565b620000af7fa49807205ce4d355092ef5a8a18f56e8913cf4a201fbe287825b095693c2177533620000b5565b62000349565b620000c18282620000c5565b5050565b60008281526007602090815260408083206001600160a01b038516845290915290205460ff16620000c15760008281526007602090815260408083206001600160a01b03851684529091529020805460ff19166001179055620001253390565b6001600160a01b0316816001600160a01b0316837f2f8788117e7eff1d82e926ec794901d17c78024a50270940304540a733656f0d60405160405180910390a45050565b634e487b7160e01b600052604160045260246000fd5b634e487b7160e01b600052602260045260246000fd5b600281046001821680620001aa57607f821691505b602082108103620001bf57620001bf6200017f565b50919050565b6000620001d6620001d38381565b90565b92915050565b620001e783620001c5565b815460001960089490940293841b1916921b91909117905550565b600062000211818484620001dc565b505050565b81811015620000c1576200022c60008262000202565b60010162000216565b601f82111562000211576000818152602090206020601f850104810160208510156200025e5750805b620002726020601f86010483018262000216565b5050505050565b81516001600160401b0381111562000295576200029562000169565b620002a1825462000195565b620002ae82828562000235565b6020601f831160018114620002e55760008415620002cc5750858201515b600019600886021c198116600286021786555062000341565b600085815260208120601f198616915b82811015620003175788850151825560209485019460019092019101620002f5565b86831015620003345784890151600019601f89166008021c191682555b6001600288020188555050505b505050505050565b61468a80620003596000396000f3fe6080604052600436106101815760003560e01c806370a08231116100d1578063b88d4fde1161008a578063d547741f11610064578063d547741f14610478578063d5977b5e14610498578063dcc60128146104af578063e985e9c5146104c457600080fd5b8063b88d4fde1461040b578063bf8270fe1461042b578063c87b56dd1461045857600080fd5b806370a082311461035f57806375b238fc1461037f57806391d14854146103a157806395d89b41146103c1578063a217fddf146103d6578063a22cb465146103eb57600080fd5b80632f2ff15d1161013e57806342842e0e1161011857806342842e0e146102dd5780634aae5f4d146102fd57806359886b821461031f5780636352211e1461033f57600080fd5b80632f2ff15d1461028a57806336568abe146102aa5780634082fc47146102ca57600080fd5b806301ffc9a71461018657806306fdde03146101bc578063081812fc146101de578063095ea7b31461020b57806323b872dd1461022d578063248a9ca31461024d575b600080fd5b34801561019257600080fd5b506101a66101a13660046131ca565b61050d565b6040516101b391906131f5565b60405180910390f35b3480156101c857600080fd5b506101d161051e565b6040516101b39190613259565b3480156101ea57600080fd5b506101fe6101f936600461327b565b6105b0565b6040516101b391906132b6565b34801561021757600080fd5b5061022b6102263660046132d8565b6105d7565b005b34801561023957600080fd5b5061022b610248366004613315565b610665565b34801561025957600080fd5b5061027d61026836600461327b565b60009081526007602052604090206001015490565b6040516101b3919061336b565b34801561029657600080fd5b5061022b6102a5366004613379565b6106a2565b3480156102b657600080fd5b5061022b6102c5366004613379565b6106c7565b61022b6102d83660046135e7565b6106fd565b3480156102e957600080fd5b5061022b6102f8366004613315565b6107b2565b34801561030957600080fd5b506103126107bd565b6040516101b39190613a98565b34801561032b57600080fd5b5061022b61033a366004613aa9565b61104f565b34801561034b57600080fd5b506101fe61035a36600461327b565b6111cf565b34801561036b57600080fd5b5061027d61037a366004613b5a565b611204565b34801561038b57600080fd5b5061027d60008051602061463583398151915281565b3480156103ad57600080fd5b506101a66103bc366004613379565b611248565b3480156103cd57600080fd5b506101d1611273565b3480156103e257600080fd5b5061027d600081565b3480156103f757600080fd5b5061022b610406366004613b8e565b611282565b34801561041757600080fd5b5061022b610426366004613bc1565b61128d565b34801561043757600080fd5b5061044b61044636600461327b565b6112cc565b6040516101b39190613c50565b34801561046457600080fd5b506101d161047336600461327b565b61182d565b34801561048457600080fd5b5061022b610493366004613379565b611838565b3480156104a457600080fd5b5060095461027d9081565b3480156104bb57600080fd5b5061031261185d565b3480156104d057600080fd5b506101a66104df366004613c61565b6001600160a01b03918216600090815260056020908152604080832093909416825291909152205460ff1690565b6000610518826120fc565b92915050565b60606000805461052d90613c99565b80601f016020809104026020016040519081016040528092919081815260200182805461055990613c99565b80156105a65780601f1061057b576101008083540402835291602001916105a6565b820191906000526020600020905b81548152906001019060200180831161058957829003601f168201915b5050505050905090565b60006105bb82612121565b506000908152600460205260409020546001600160a01b031690565b60006105e2826111cf565b9050806001600160a01b0316836001600160a01b03160361061e5760405162461bcd60e51b815260040161061590613d06565b60405180910390fd5b336001600160a01b038216148061063a575061063a81336104df565b6106565760405162461bcd60e51b815260040161061590613d70565b6106608383612158565b505050565b6106708383836121c6565b6000908152600a6020526040902060080180546001600160a01b0319166001600160a01b039290921691909117905550565b6000828152600760205260409020600101546106bd816121f7565b6106608383612201565b6001600160a01b03811633146106ef5760405162461bcd60e51b815260040161061590613dcc565b6106f98282612287565b5050565b60006107076122ee565b6000818152600a60205260409020909150600161072b8284838b8b8b8b8b3361230f565b61073533846123bd565b8154600283015460088401546040517f2f2cd3b0d05e41218db6e35c81868c1bdaebbdab5ffad8f07f6122a3f363f620936107a0939092600160a01b90910460ff16916003880191600489019160058a019160068b019160078c01916001600160a01b031690613f26565b60405180910390a15050505050505050565b6106708383836123d7565b606060006107ca60095490565b90506000816001600160401b038111156107e6576107e66133ac565b60405190808252806020026020018201604052801561081f57816020015b61080c612fb7565b8152602001906001900390816108045790505b509050600060015b838111611046576000818152600a602052604090206008810154336001600160a01b03909116036110335780604051806101800160405290816000820154815260200160018201805461087990613c99565b80601f01602080910402602001604051908101604052809291908181526020018280546108a590613c99565b80156108f25780601f106108c7576101008083540402835291602001916108f2565b820191906000526020600020905b8154815290600101906020018083116108d557829003601f168201915b505050918352505060028201546001600160a01b0381166020830152604090910190600160a01b900460ff16600381111561092f5761092f613722565b600381111561094057610940613722565b815260200160038201805461095490613c99565b80601f016020809104026020016040519081016040528092919081815260200182805461098090613c99565b80156109cd5780601f106109a2576101008083540402835291602001916109cd565b820191906000526020600020905b8154815290600101906020018083116109b057829003601f168201915b505050505081526020016004820180546109e690613c99565b80601f0160208091040260200160405190810160405280929190818152602001828054610a1290613c99565b8015610a5f5780601f10610a3457610100808354040283529160200191610a5f565b820191906000526020600020905b815481529060010190602001808311610a4257829003601f168201915b50505050508152602001600582018054610a7890613c99565b80601f0160208091040260200160405190810160405280929190818152602001828054610aa490613c99565b8015610af15780601f10610ac657610100808354040283529160200191610af1565b820191906000526020600020905b815481529060010190602001808311610ad457829003601f168201915b5050505050815260200160068201805480602002602001604051908101604052809291908181526020016000905b82821015610c1257838290600052602060002001805480602002602001604051908101604052809291908181526020016000905b82821015610bff578382906000526020600020018054610b7290613c99565b80601f0160208091040260200160405190810160405280929190818152602001828054610b9e90613c99565b8015610beb5780601f10610bc057610100808354040283529160200191610beb565b820191906000526020600020905b815481529060010190602001808311610bce57829003601f168201915b505050505081526020019060010190610b53565b5050505081526020019060010190610b1f565b505050508152602001600782018054610c2a90613c99565b80601f0160208091040260200160405190810160405280929190818152602001828054610c5690613c99565b8015610ca35780601f10610c7857610100808354040283529160200191610ca3565b820191906000526020600020905b815481529060010190602001808311610c8657829003601f168201915b505050918352505060088201546001600160a01b03166020808301919091526040805160098501805460609481028301850184528284018181529390950194919390928492909184919060009085015b82821015610d9f578382906000526020600020018054610d1290613c99565b80601f0160208091040260200160405190810160405280929190818152602001828054610d3e90613c99565b8015610d8b5780601f10610d6057610100808354040283529160200191610d8b565b820191906000526020600020905b815481529060010190602001808311610d6e57829003601f168201915b505050505081526020019060010190610cf3565b50505050815260200160018201805480602002602001604051908101604052809291908181526020016000905b82821015610e78578382906000526020600020018054610deb90613c99565b80601f0160208091040260200160405190810160405280929190818152602001828054610e1790613c99565b8015610e645780601f10610e3957610100808354040283529160200191610e64565b820191906000526020600020905b815481529060010190602001808311610e4757829003601f168201915b505050505081526020019060010190610dcc565b50505050815250508152602001600b8201805480602002602001604051908101604052809291908181526020016000905b82821015610fff5783829060005260206000209060020201604051806040016040529081600082018054610edc90613c99565b80601f0160208091040260200160405190810160405280929190818152602001828054610f0890613c99565b8015610f555780601f10610f2a57610100808354040283529160200191610f55565b820191906000526020600020905b815481529060010190602001808311610f3857829003601f168201915b50505050508152602001600182018054610f6e90613c99565b80601f0160208091040260200160405190810160405280929190818152602001828054610f9a90613c99565b8015610fe75780601f10610fbc57610100808354040283529160200191610fe7565b820191906000526020600020905b815481529060010190602001808311610fca57829003601f168201915b50505050508152505081526020019060010190610ea9565b505050508152505084848151811061101957611019613fc0565b6020026020010181905250828061102f90613fec565b9350505b508061103e81613fec565b915050610827565b50815292915050565b600080516020614635833981519152611067816121f7565b6000838152600a6020526040902060016002820154600160a01b900460ff16600381111561109757611097613722565b03611103576110a684846123f2565b6040805180820190915286815260208082018790528751829160098501916110d3918391908c0190613056565b5060208281015180516110ec9260018501920190613056565b50505050600201805460ff60a01b191690556111c8565b60006002820154600160a01b900460ff16600381111561112557611125613722565b036111c657600060405180604001604052808860008151811061114a5761114a613fc0565b602002602001015181526020018760008151811061116a5761116a613fc0565b602090810291909101810151909152600b840180546001810182556000918252919020825192935083926002909202019081906111a79082614097565b50602082015160018201906111bc9082614097565b50505050506111c8565b505b5050505050565b6000818152600260205260408120546001600160a01b0316806105185760405162461bcd60e51b815260040161061590614190565b60006001600160a01b03821661122c5760405162461bcd60e51b8152600401610615906141e6565b506001600160a01b031660009081526003602052604090205490565b60009182526007602090815260408084206001600160a01b0393909316845291905290205460ff1690565b60606001805461052d90613c99565b6106f933838361247a565b6112998484848461251c565b506000908152600a6020526040902060080180546001600160a01b0319166001600160a01b039290921691909117905550565b6000818152600a602052604090206008810154606091906001600160a01b031633148061130c575061130c60008051602061463583398151915233611248565b6113285760405162461bcd60e51b81526004016106159061421a565b60408051600280825260608201909252600091816020015b60608152602001906001900390816113405750506009830180546040805160208084028201810190925282815293945060009084015b8282101561142257838290600052602060002001805461139590613c99565b80601f01602080910402602001604051908101604052809291908181526020018280546113c190613c99565b801561140e5780601f106113e35761010080835404028352916020019161140e565b820191906000526020600020905b8154815290600101906020018083116113f157829003601f168201915b505050505081526020019060010190611376565b505050508160008151811061143957611439613fc0565b602002602001018190525081600901600101805480602002602001604051908101604052809291908181526020016000905b8282101561151757838290600052602060002001805461148a90613c99565b80601f01602080910402602001604051908101604052809291908181526020018280546114b690613c99565b80156115035780601f106114d857610100808354040283529160200191611503565b820191906000526020600020905b8154815290600101906020018083116114e657829003601f168201915b50505050508152602001906001019061146b565b505050508160018151811061152e5761152e613fc0565b6020908102919091010152600b8201546000906001600160401b03811115611558576115586133ac565b60405190808252806020026020018201604052801561158b57816020015b60608152602001906001900390816115765790505b50600b8401549091506000906001600160401b038111156115ae576115ae6133ac565b6040519080825280602002602001820160405280156115e157816020015b60608152602001906001900390816115cc5790505b50905060005b600b85015481101561179e5784600b01818154811061160857611608613fc0565b9060005260206000209060020201600001805461162490613c99565b80601f016020809104026020016040519081016040528092919081815260200182805461165090613c99565b801561169d5780601f106116725761010080835404028352916020019161169d565b820191906000526020600020905b81548152906001019060200180831161168057829003601f168201915b50505050508382815181106116b4576116b4613fc0565b602002602001018190525084600b0181815481106116d4576116d4613fc0565b906000526020600020906002020160010180546116f090613c99565b80601f016020809104026020016040519081016040528092919081815260200182805461171c90613c99565b80156117695780601f1061173e57610100808354040283529160200191611769565b820191906000526020600020905b81548152906001019060200180831161174c57829003601f168201915b505050505082828151811061178057611780613fc0565b6020026020010181905250808061179690613fec565b9150506115e7565b506117c3836000815181106117b5576117b5613fc0565b602002602001015183612554565b836000815181106117d6576117d6613fc0565b6020026020010181905250611805836001815181106117f7576117f7613fc0565b602002602001015182612554565b8360018151811061181857611818613fc0565b60209081029190910101525090949350505050565b606061051882612675565b600082815260076020526040902060010154611853816121f7565b6106608383612287565b6060600080516020614635833981519152611877816121f7565b600061188260095490565b90506000816001600160401b0381111561189e5761189e6133ac565b6040519080825280602002602001820160405280156118d757816020015b6118c4612fb7565b8152602001906001900390816118bc5790505b509050600060015b8381116120f1576000600a6000838152602001908152602001600020905080604051806101800160405290816000820154815260200160018201805461192490613c99565b80601f016020809104026020016040519081016040528092919081815260200182805461195090613c99565b801561199d5780601f106119725761010080835404028352916020019161199d565b820191906000526020600020905b81548152906001019060200180831161198057829003601f168201915b505050918352505060028201546001600160a01b0381166020830152604090910190600160a01b900460ff1660038111156119da576119da613722565b60038111156119eb576119eb613722565b81526020016003820180546119ff90613c99565b80601f0160208091040260200160405190810160405280929190818152602001828054611a2b90613c99565b8015611a785780601f10611a4d57610100808354040283529160200191611a78565b820191906000526020600020905b815481529060010190602001808311611a5b57829003601f168201915b50505050508152602001600482018054611a9190613c99565b80601f0160208091040260200160405190810160405280929190818152602001828054611abd90613c99565b8015611b0a5780601f10611adf57610100808354040283529160200191611b0a565b820191906000526020600020905b815481529060010190602001808311611aed57829003601f168201915b50505050508152602001600582018054611b2390613c99565b80601f0160208091040260200160405190810160405280929190818152602001828054611b4f90613c99565b8015611b9c5780601f10611b7157610100808354040283529160200191611b9c565b820191906000526020600020905b815481529060010190602001808311611b7f57829003601f168201915b5050505050815260200160068201805480602002602001604051908101604052809291908181526020016000905b82821015611cbd57838290600052602060002001805480602002602001604051908101604052809291908181526020016000905b82821015611caa578382906000526020600020018054611c1d90613c99565b80601f0160208091040260200160405190810160405280929190818152602001828054611c4990613c99565b8015611c965780601f10611c6b57610100808354040283529160200191611c96565b820191906000526020600020905b815481529060010190602001808311611c7957829003601f168201915b505050505081526020019060010190611bfe565b5050505081526020019060010190611bca565b505050508152602001600782018054611cd590613c99565b80601f0160208091040260200160405190810160405280929190818152602001828054611d0190613c99565b8015611d4e5780601f10611d2357610100808354040283529160200191611d4e565b820191906000526020600020905b815481529060010190602001808311611d3157829003601f168201915b505050918352505060088201546001600160a01b03166020808301919091526040805160098501805460609481028301850184528284018181529390950194919390928492909184919060009085015b82821015611e4a578382906000526020600020018054611dbd90613c99565b80601f0160208091040260200160405190810160405280929190818152602001828054611de990613c99565b8015611e365780601f10611e0b57610100808354040283529160200191611e36565b820191906000526020600020905b815481529060010190602001808311611e1957829003601f168201915b505050505081526020019060010190611d9e565b50505050815260200160018201805480602002602001604051908101604052809291908181526020016000905b82821015611f23578382906000526020600020018054611e9690613c99565b80601f0160208091040260200160405190810160405280929190818152602001828054611ec290613c99565b8015611f0f5780601f10611ee457610100808354040283529160200191611f0f565b820191906000526020600020905b815481529060010190602001808311611ef257829003601f168201915b505050505081526020019060010190611e77565b50505050815250508152602001600b8201805480602002602001604051908101604052809291908181526020016000905b828210156120aa5783829060005260206000209060020201604051806040016040529081600082018054611f8790613c99565b80601f0160208091040260200160405190810160405280929190818152602001828054611fb390613c99565b80156120005780601f10611fd557610100808354040283529160200191612000565b820191906000526020600020905b815481529060010190602001808311611fe357829003601f168201915b5050505050815260200160018201805461201990613c99565b80601f016020809104026020016040519081016040528092919081815260200182805461204590613c99565b80156120925780601f1061206757610100808354040283529160200191612092565b820191906000526020600020905b81548152906001019060200180831161207557829003601f168201915b50505050508152505081526020019060010190611f54565b50505050815250508484815181106120c4576120c4613fc0565b602002602001018190525082806120da90613fec565b9350505080806120e990613fec565b9150506118df565b5081529250505b5090565b60006001600160e01b03198216637965db0b60e01b1480610518575061051882612785565b6000818152600260205260409020546001600160a01b03166121555760405162461bcd60e51b815260040161061590614190565b50565b600081815260046020526040902080546001600160a01b0319166001600160a01b038416908117909155819061218d826111cf565b6001600160a01b03167f8c5be1e5ebec7d5bd14f71427d1e84f3dd0314c0f7b2291e5b200ac8c7c3b92560405160405180910390a45050565b6121d033826127aa565b6121ec5760405162461bcd60e51b815260040161061590614274565b610660838383612828565b6121558133612950565b61220b8282611248565b6106f95760008281526007602090815260408083206001600160a01b03851684529091529020805460ff191660011790556122433390565b6001600160a01b0316816001600160a01b0316837f2f8788117e7eff1d82e926ec794901d17c78024a50270940304540a733656f0d60405160405180910390a45050565b6122918282611248565b156106f95760008281526007602090815260408083206001600160a01b0385168085529252808320805460ff1916905551339285917ff6391f5c32d9c69d2a47ea670b442974b53935d1edc7fd64eb21e047a839171b9190a45050565b6000806122fa60095490565b905061230a600980546001019055565b919050565b87895560028901805488919060ff60a01b1916600160a01b83600381111561233957612339613722565b02179055506003890161234c8782614097565b506004890161235b8682614097565b506005890161236a8582614097565b5082516123809060068b019060208601906130a8565b506007890161238f8382614097565b5060089890980180546001600160a01b0319166001600160a01b039099169890981790975550505050505050565b6106f98282604051806020016040528060008152506129a9565b6106608383836040518060200160405280600081525061128d565b6000828152600260205260409020546001600160a01b03166124265760405162461bcd60e51b8152600401610615906142cf565b600082815260066020526040902061243e8282614097565b507ff8e1a15aba9398e019f0b49df1a4fde98ee17ae345cb5f6b5e2c27f5033e8ce78260405161246e919061336b565b60405180910390a15050565b816001600160a01b0316836001600160a01b0316036124ab5760405162461bcd60e51b815260040161061590614313565b6001600160a01b0383811660008181526005602090815260408083209487168084529490915290819020805460ff1916851515179055517f17307eab39ab6107e8899845ad3d59bd9653f200f220920489ca2b5937696c319061250f9085906131f5565b60405180910390a3505050565b61252633836127aa565b6125425760405162461bcd60e51b815260040161061590614274565b61254e848484846129dc565b50505050565b60606000825184516125669190614323565b6001600160401b0381111561257d5761257d6133ac565b6040519080825280602002602001820160405280156125b057816020015b606081526020019060019003908161259b5790505b50905060005b8451811015612609578481815181106125d1576125d1613fc0565b60200260200101518282815181106125eb576125eb613fc0565b6020026020010181905250808061260190613fec565b9150506125b6565b60005b845181101561266b5784818151811061262757612627613fc0565b602002602001015183838061263b90613fec565b94508151811061264d5761264d613fc0565b6020026020010181905250808061266390613fec565b91505061260c565b5090949350505050565b606061268082612121565b6000828152600660205260408120805461269990613c99565b80601f01602080910402602001604051908101604052809291908181526020018280546126c590613c99565b80156127125780601f106126e757610100808354040283529160200191612712565b820191906000526020600020905b8154815290600101906020018083116126f557829003601f168201915b50505050509050600061273060408051602081019091526000815290565b90508051600003612742575092915050565b81511561277457808260405160200161275c929190614358565b60405160208183030381529060405292505050919050565b61277d84612a0f565b949350505050565b60006001600160e01b03198216632483248360e11b1480610518575061051882612a83565b6000806127b6836111cf565b9050806001600160a01b0316846001600160a01b031614806127fd57506001600160a01b0380821660009081526005602090815260408083209388168352929052205460ff165b8061277d5750836001600160a01b0316612816846105b0565b6001600160a01b031614949350505050565b826001600160a01b031661283b826111cf565b6001600160a01b0316146128615760405162461bcd60e51b8152600401610615906143b2565b6001600160a01b0382166128875760405162461bcd60e51b815260040161061590614403565b826001600160a01b031661289a826111cf565b6001600160a01b0316146128c05760405162461bcd60e51b8152600401610615906143b2565b600081815260046020908152604080832080546001600160a01b03199081169091556001600160a01b0387811680865260038552838620805460001901905590871680865283862080546001019055868652600290945282852080549092168417909155905184937fddf252ad1be2c89b69c2b068fc378daa952ba7f163c4a11628f55a4df523b3ef91a4505050565b61295a8282611248565b6106f95761296781612ad3565b612972836020612ae5565b604051602001612983929190614413565b60408051601f198184030181529082905262461bcd60e51b825261061591600401613259565b6129b38383612c50565b6129c06000848484612d4b565b6106605760405162461bcd60e51b8152600401610615906144b6565b6129e7848484612828565b6129f384848484612d4b565b61254e5760405162461bcd60e51b8152600401610615906144b6565b6060612a1a82612121565b6000612a3160408051602081019091526000815290565b90506000815111612a515760405180602001604052806000815250612a7c565b80612a5b84612e4c565b604051602001612a6c929190614358565b6040516020818303038152906040525b9392505050565b60006001600160e01b031982166380ac58cd60e01b1480612ab457506001600160e01b03198216635b5e139f60e01b145b8061051857506301ffc9a760e01b6001600160e01b0319831614610518565b60606105186001600160a01b03831660145b60606000612af48360026144c6565b612aff906002614323565b6001600160401b03811115612b1657612b166133ac565b6040519080825280601f01601f191660200182016040528015612b40576020820181803683370190505b509050600360fc1b81600081518110612b5b57612b5b613fc0565b60200101906001600160f81b031916908160001a905350600f60fb1b81600181518110612b8a57612b8a613fc0565b60200101906001600160f81b031916908160001a9053506000612bae8460026144c6565b612bb9906001614323565b90505b6001811115612c31576f181899199a1a9b1b9c1cb0b131b232b360811b85600f1660108110612bed57612bed613fc0565b1a60f81b828281518110612c0357612c03613fc0565b60200101906001600160f81b031916908160001a90535060049490941c93612c2a816144e5565b9050612bbc565b508315612a7c5760405162461bcd60e51b81526004016106159061452e565b6001600160a01b038216612c765760405162461bcd60e51b815260040161061590614570565b6000818152600260205260409020546001600160a01b031615612cab5760405162461bcd60e51b8152600401610615906145b4565b6000818152600260205260409020546001600160a01b031615612ce05760405162461bcd60e51b8152600401610615906145b4565b6001600160a01b038216600081815260036020908152604080832080546001019055848352600290915280822080546001600160a01b0319168417905551839291907fddf252ad1be2c89b69c2b068fc378daa952ba7f163c4a11628f55a4df523b3ef908290a45050565b60006001600160a01b0384163b15612e4157604051630a85bd0160e11b81526001600160a01b0385169063150b7a0290612d8f9033908990889088906004016145c4565b6020604051808303816000875af1925050508015612dca575060408051601f3d908101601f19168201909252612dc791810190614613565b60015b612e27573d808015612df8576040519150601f19603f3d011682016040523d82523d6000602084013e612dfd565b606091505b508051600003612e1f5760405162461bcd60e51b8152600401610615906144b6565b805181602001fd5b6001600160e01b031916630a85bd0160e11b14905061277d565b506001949350505050565b60606000612e5983612edf565b60010190506000816001600160401b03811115612e7857612e786133ac565b6040519080825280601f01601f191660200182016040528015612ea2576020820181803683370190505b5090508181016020015b600019016f181899199a1a9b1b9c1cb0b131b232b360811b600a86061a8153600a8504945084612eac575b509392505050565b60008072184f03e93ff9f4daa797ed6e38ed64bf6a1f0160401b8310612f1e5772184f03e93ff9f4daa797ed6e38ed64bf6a1f0160401b830492506040015b6d04ee2d6d415b85acef81000000008310612f4a576d04ee2d6d415b85acef8100000000830492506020015b662386f26fc100008310612f6857662386f26fc10000830492506010015b6305f5e1008310612f80576305f5e100830492506008015b6127108310612f9457612710830492506004015b60648310612fa6576064830492506002015b600a83106105185760010192915050565b604051806101800160405280600081526020016060815260200160006001600160a01b0316815260200160006003811115612ff457612ff4613722565b8152602001606081526020016060815260200160608152602001606081526020016060815260200160006001600160a01b03168152602001613049604051806040016040528060608152602001606081525090565b8152602001606081525090565b82805482825590600052602060002090810192821561309c579160200282015b8281111561309c578251829061308c9082614097565b5091602001919060010190613076565b506120f8929150613101565b8280548282559060005260206000209081019282156130f5579160200282015b828111156130f557825180516130e5918491602090910190613056565b50916020019190600101906130c8565b506120f892915061311e565b808211156120f8576000613115828261313b565b50600101613101565b808211156120f85760006131328282613175565b5060010161311e565b50805461314790613c99565b6000825580601f10613157575050565b601f0160209004906000526020600020908101906121559190613193565b50805460008255906000526020600020908101906121559190613101565b5b808211156120f85760008155600101613194565b6001600160e01b031981165b811461215557600080fd5b8035610518816131a8565b6000602082840312156131df576131df600080fd5b600061277d84846131bf565b8015155b82525050565b6020810161051882846131eb565b60005b8381101561321e578181015183820152602001613206565b50506000910152565b6000613231825190565b808452602084019350613248818560208601613203565b601f01601f19169290920192915050565b60208082528101612a7c8184613227565b806131b4565b80356105188161326a565b60006020828403121561329057613290600080fd5b600061277d8484613270565b60006001600160a01b038216610518565b6131ef8161329c565b6020810161051882846132ad565b6131b48161329c565b8035610518816132c4565b600080604083850312156132ee576132ee600080fd5b60006132fa85856132cd565b925050602061330b85828601613270565b9150509250929050565b60008060006060848603121561332d5761332d600080fd5b600061333986866132cd565b935050602061334a868287016132cd565b925050604061335b86828701613270565b9150509250925092565b806131ef565b602081016105188284613365565b6000806040838503121561338f5761338f600080fd5b600061339b8585613270565b925050602061330b858286016132cd565b634e487b7160e01b600052604160045260246000fd5b601f19601f83011681018181106001600160401b03821117156133e7576133e76133ac565b6040525050565b60006133f960405190565b905061230a82826133c2565b60006001600160401b0382111561341e5761341e6133ac565b601f19601f83011660200192915050565b82818337506000910152565b600061344e61344984613405565b6133ee565b90508281526020810184848401111561346957613469600080fd5b612ed784828561342f565b600082601f83011261348857613488600080fd5b813561277d84826020860161343b565b60006001600160401b038211156134b1576134b16133ac565b5060209081020190565b60006134c961344984613498565b838152905060208082019084028301858111156134e8576134e8600080fd5b835b818110156135285780356001600160401b0381111561350b5761350b600080fd5b8086016135188982613474565b85525050602092830192016134ea565b5050509392505050565b600082601f83011261354657613546600080fd5b813561277d8482602086016134bb565b600061356461344984613498565b8381529050602080820190840283018581111561358357613583600080fd5b835b818110156135285780356001600160401b038111156135a6576135a6600080fd5b8086016135b38982613532565b8552505060209283019201613585565b600082601f8301126135d7576135d7600080fd5b813561277d848260208601613556565b600080600080600060a0868803121561360257613602600080fd5b85356001600160401b0381111561361b5761361b600080fd5b61362788828901613474565b95505060208601356001600160401b0381111561364657613646600080fd5b61365288828901613474565b94505060408601356001600160401b0381111561367157613671600080fd5b61367d88828901613474565b93505060608601356001600160401b0381111561369c5761369c600080fd5b6136a8888289016135c3565b92505060808601356001600160401b038111156136c7576136c7600080fd5b6136d388828901613474565b9150509295509295909350565b60006105186001600160a01b0383166136f7565b90565b6001600160a01b031690565b6000610518826136e0565b600061051882613703565b6131ef8161370e565b634e487b7160e01b600052602160045260246000fd5b6004811061215557612155613722565b8061230a81613738565b600061051882613748565b6131ef81613752565b6000612a7c8383613227565b600061377c825190565b808452602084019350836020820285016137968560200190565b8060005b858110156137cb57848403895281516137b38582613766565b94506020830160209a909a019992505060010161379a565b5091979650505050505050565b6000612a7c8383613772565b60006137ee825190565b808452602084019350836020820285016138088560200190565b8060005b858110156137cb578484038952815161382585826137d8565b94506020830160209a909a019992505060010161380c565b80516040808452600091908401906138558282613772565b9150506020830151848203602086015261386f8282613772565b95945050505050565b80516040808452600091908401906138908282613227565b9150506020830151848203602086015261386f8282613227565b6000612a7c8383613878565b60006138c0825190565b808452602084019350836020820285016138da8560200190565b8060005b858110156137cb57848403895281516138f785826138aa565b94506020830160209a909a01999250506001016138de565b80516000906101808401906139248582613365565b506020830151848203602086015261393c8282613227565b91505060408301516139516040860182613719565b506060830151613964606086018261375d565b506080830151848203608086015261397c8282613227565b91505060a083015184820360a08601526139968282613227565b91505060c083015184820360c08601526139b08282613227565b91505060e083015184820360e08601526139ca82826137e4565b9150506101008301518482036101008601526139e68282613227565b9150506101208301516139fd6101208601826132ad565b50610140830151848203610140860152613a17828261383d565b91505061016083015184820361016086015261386f82826138b6565b6000612a7c838361390f565b6000613a49825190565b80845260208401935083602082028501613a638560200190565b8060005b858110156137cb5784840389528151613a808582613a33565b94506020830160209a909a0199925050600101613a67565b60208082528101612a7c8184613a3f565b60008060008060808587031215613ac257613ac2600080fd5b84356001600160401b03811115613adb57613adb600080fd5b613ae787828801613532565b94505060208501356001600160401b03811115613b0657613b06600080fd5b613b1287828801613532565b9350506040613b2387828801613270565b92505060608501356001600160401b03811115613b4257613b42600080fd5b613b4e87828801613474565b91505092959194509250565b600060208284031215613b6f57613b6f600080fd5b600061277d84846132cd565b8015156131b4565b803561051881613b7b565b60008060408385031215613ba457613ba4600080fd5b6000613bb085856132cd565b925050602061330b85828601613b83565b60008060008060808587031215613bda57613bda600080fd5b6000613be687876132cd565b9450506020613b12878288016132cd565b6000613c01825190565b80845260208401935083602082028501613c1b8560200190565b8060005b858110156137cb5784840389528151613c3885826137d8565b94506020830160209a909a0199925050600101613c1f565b60208082528101612a7c8184613bf7565b60008060408385031215613c7757613c77600080fd5b600061339b85856132cd565b634e487b7160e01b600052602260045260246000fd5b600281046001821680613cad57607f821691505b602082108103613cbf57613cbf613c83565b50919050565b602181526000602082017f4552433732313a20617070726f76616c20746f2063757272656e74206f776e658152603960f91b602082015291505b5060400190565b6020808252810161051881613cc5565b603d81526000602082017f4552433732313a20617070726f76652063616c6c6572206973206e6f7420746f81527f6b656e206f776e6572206f7220617070726f76656420666f7220616c6c00000060208201529150613cff565b6020808252810161051881613d16565b602f81526000602082017f416363657373436f6e74726f6c3a2063616e206f6e6c792072656e6f756e636581526e103937b632b9903337b91039b2b63360891b60208201529150613cff565b6020808252810161051881613d80565b60008154613de981613c99565b808552602085019450600182168015613e095760018114613e1f57613e4d565b60ff198316865260208215150286019350613e4d565b60008581526020902060005b83811015613e4757815488820152600190910190602001613e2b565b87019450505b50505092915050565b6000612a7c8383613ddc565b6000613e6c825490565b80845260208401935083602082028501613e8c8560009081526020902090565b8060005b858110156137cb57848403895281613ea88582613e56565b60209a909a019994505060019182019101613e90565b6000612a7c8383613e62565b6000613ed4825490565b80845260208401935083602082028501613ef48560009081526020902090565b8060005b858110156137cb57848403895281613f108582613ebe565b60209a909a019994505060019182019101613ef8565b6101008101613f35828b613365565b613f42602083018a61375d565b8181036040830152613f548189613ddc565b90508181036060830152613f688188613ddc565b90508181036080830152613f7c8187613ddc565b905081810360a0830152613f908186613eca565b905081810360c0830152613fa48185613ddc565b9050613fb360e08301846132ad565b9998505050505050505050565b634e487b7160e01b600052603260045260246000fd5b634e487b7160e01b600052601160045260246000fd5b60006000198203613fff57613fff613fd6565b5060010190565b60006105186136f48381565b61401b83614006565b815460001960089490940293841b1916921b91909117905550565b6000610660818484614012565b818110156106f957614056600082614036565b600101614043565b601f821115610660576000818152602090206020601f850104810160208510156140855750805b6111c86020601f860104830182614043565b81516001600160401b038111156140b0576140b06133ac565b6140ba8254613c99565b6140c582828561405e565b6020601f8311600181146140f957600084156140e15750858201515b600019600886021c19811660028602178655506111c6565b600085815260208120601f198616915b828110156141295788850151825560209485019460019092019101614109565b868310156141455784890151600019601f89166008021c191682555b600160028802018855505050505050505050565b601881526000602082017f4552433732313a20696e76616c696420746f6b656e2049440000000000000000815291505b5060200190565b6020808252810161051881614159565b602981526000602082017f4552433732313a2061646472657373207a65726f206973206e6f7420612076618152683634b21037bbb732b960b91b60208201529150613cff565b60208082528101610518816141a0565b600d81526000602082016c1058d8d95cdcc819195b9a5959609a1b81529150614189565b60208082528101610518816141f6565b602d81526000602082017f4552433732313a2063616c6c6572206973206e6f7420746f6b656e206f776e6581526c1c881bdc88185c1c1c9bdd9959609a1b60208201529150613cff565b602080825281016105188161422a565b602e81526000602082017f45524337323155524953746f726167653a2055524920736574206f66206e6f6e81526d32bc34b9ba32b73a103a37b5b2b760911b60208201529150613cff565b6020808252810161051881614284565b601981526000602082017f4552433732313a20617070726f766520746f2063616c6c65720000000000000081529150614189565b60208082528101610518816142df565b8082018082111561051857610518613fd6565b6000614340825190565b61434e818560208601613203565b9290920192915050565b60006143648285614336565b915061277d8284614336565b602581526000602082017f4552433732313a207472616e736665722066726f6d20696e636f72726563742081526437bbb732b960d91b60208201529150613cff565b6020808252810161051881614370565b602481526000602082017f4552433732313a207472616e7366657220746f20746865207a65726f206164648152637265737360e01b60208201529150613cff565b60208082528101610518816143c2565b7f416363657373436f6e74726f6c3a206163636f756e7420000000000000000000815260170160006144458285614336565b7001034b99036b4b9b9b4b733903937b6329607d1b8152915060118201614364565b603281526000602082017f4552433732313a207472616e7366657220746f206e6f6e20455243373231526581527131b2b4bb32b91034b6b83632b6b2b73a32b960711b60208201529150613cff565b6020808252810161051881614467565b8181028082158382048514176144de576144de613fd6565b5092915050565b6000816144f4576144f4613fd6565b506000190190565b60208082527f537472696e67733a20686578206c656e67746820696e73756666696369656e7491019081526000614189565b60208082528101610518816144fc565b60208082527f4552433732313a206d696e7420746f20746865207a65726f206164647265737391019081526000614189565b602080825281016105188161453e565b601c81526000602082017f4552433732313a20746f6b656e20616c7265616479206d696e7465640000000081529150614189565b6020808252810161051881614580565b608081016145d282876132ad565b6145df60208301866132ad565b6145ec6040830185613365565b81810360608301526145fe8184613227565b9695505050505050565b8051610518816131a8565b60006020828403121561462857614628600080fd5b600061277d848461460856fea49807205ce4d355092ef5a8a18f56e8913cf4a201fbe287825b095693c21775a2646970667358221220d09f3b0136101139f2b8c4e9319ddb25402dac1978afda0ff8b592b2154fc84864736f6c63430008130033",
  "devdoc": {
    "events": {
      "Approval(address,address,uint256)": {
        "details": "Emitted when `owner` enables `approved` to manage the `tokenId` token."
      },
      "ApprovalForAll(address,address,bool)": {
        "details": "Emitted when `owner` enables or disables (`approved`) `operator` to manage all of its assets."
      },
      "BatchMetadataUpdate(uint256,uint256)": {
        "details": "This event emits when the metadata of a range of tokens is changed. So that the third-party platforms such as NFT market could timely update the images and related attributes of the NFTs."
      },
      "MetadataUpdate(uint256)": {
        "details": "This event emits when the metadata of a token is changed. So that the third-party platforms such as NFT market could timely update the images and related attributes of the NFT."
      },
      "RoleAdminChanged(bytes32,bytes32,bytes32)": {
        "details": "Emitted when `newAdminRole` is set as ``role``'s admin role, replacing `previousAdminRole` `DEFAULT_ADMIN_ROLE` is the starting admin for all roles, despite {RoleAdminChanged} not being emitted signaling this. _Available since v3.1._"
      },
      "RoleGranted(bytes32,address,address)": {
        "details": "Emitted when `account` is granted `role`. `sender` is the account that originated the contract call, an admin role bearer except when using {AccessControl-_setupRole}."
      },
      "RoleRevoked(bytes32,address,address)": {
        "details": "Emitted when `account` is revoked `role`. `sender` is the account that originated the contract call:   - if using `revokeRole`, it is the admin role bearer   - if using `renounceRole`, it is the role bearer (i.e. `account`)"
      },
      "Transfer(address,address,uint256)": {
        "details": "Emitted when `tokenId` token is transferred from `from` to `to`."
      }
    },
    "kind": "dev",
    "methods": {
      "approve(address,uint256)": {
        "details": "See {IERC721-approve}."
      },
      "balanceOf(address)": {
        "details": "See {IERC721-balanceOf}."
      },
      "getApproved(uint256)": {
        "details": "See {IERC721-getApproved}."
      },
      "getRoleAdmin(bytes32)": {
        "details": "Returns the admin role that controls `role`. See {grantRole} and {revokeRole}. To change a role's admin, use {_setRoleAdmin}."
      },
      "grantRole(bytes32,address)": {
        "details": "Grants `role` to `account`. If `account` had not been already granted `role`, emits a {RoleGranted} event. Requirements: - the caller must have ``role``'s admin role. May emit a {RoleGranted} event."
      },
      "hasRole(bytes32,address)": {
        "details": "Returns `true` if `account` has been granted `role`."
      },
      "isApprovedForAll(address,address)": {
        "details": "See {IERC721-isApprovedForAll}."
      },
      "name()": {
        "details": "See {IERC721Metadata-name}."
      },
      "ownerOf(uint256)": {
        "details": "See {IERC721-ownerOf}."
      },
      "renounceRole(bytes32,address)": {
        "details": "Revokes `role` from the calling account. Roles are often managed via {grantRole} and {revokeRole}: this function's purpose is to provide a mechanism for accounts to lose their privileges if they are compromised (such as when a trusted device is misplaced). If the calling account had been revoked `role`, emits a {RoleRevoked} event. Requirements: - the caller must be `account`. May emit a {RoleRevoked} event."
      },
      "revokeRole(bytes32,address)": {
        "details": "Revokes `role` from `account`. If `account` had been granted `role`, emits a {RoleRevoked} event. Requirements: - the caller must have ``role``'s admin role. May emit a {RoleRevoked} event."
      },
      "setApprovalForAll(address,bool)": {
        "details": "See {IERC721-setApprovalForAll}."
      },
      "symbol()": {
        "details": "See {IERC721Metadata-symbol}."
      }
    },
    "title": "BIOrbit  NOTE: BIOrbit is a blockchain-based platform that enables monitoring and protection of Earth's natural resources  through satellite imagery and community engagement. Users can contribute to the platform by donating to monitor  protected areas and purchasing satellite images, ultimately fostering sustainable development and environmental conservation.",
    "version": 1
  },
  "userdoc": {
    "kind": "user",
    "methods": {},
    "version": 1
  },
  "storageLayout": {
    "storage": [
      {
        "astId": 507,
        "contract": "contracts/BIOrbit.sol:BIOrbit",
        "label": "_name",
        "offset": 0,
        "slot": "0",
        "type": "t_string_storage"
      },
      {
        "astId": 509,
        "contract": "contracts/BIOrbit.sol:BIOrbit",
        "label": "_symbol",
        "offset": 0,
        "slot": "1",
        "type": "t_string_storage"
      },
      {
        "astId": 513,
        "contract": "contracts/BIOrbit.sol:BIOrbit",
        "label": "_owners",
        "offset": 0,
        "slot": "2",
        "type": "t_mapping(t_uint256,t_address)"
      },
      {
        "astId": 517,
        "contract": "contracts/BIOrbit.sol:BIOrbit",
        "label": "_balances",
        "offset": 0,
        "slot": "3",
        "type": "t_mapping(t_address,t_uint256)"
      },
      {
        "astId": 521,
        "contract": "contracts/BIOrbit.sol:BIOrbit",
        "label": "_tokenApprovals",
        "offset": 0,
        "slot": "4",
        "type": "t_mapping(t_uint256,t_address)"
      },
      {
        "astId": 527,
        "contract": "contracts/BIOrbit.sol:BIOrbit",
        "label": "_operatorApprovals",
        "offset": 0,
        "slot": "5",
        "type": "t_mapping(t_address,t_mapping(t_address,t_bool))"
      },
      {
        "astId": 1558,
        "contract": "contracts/BIOrbit.sol:BIOrbit",
        "label": "_tokenURIs",
        "offset": 0,
        "slot": "6",
        "type": "t_mapping(t_uint256,t_string_storage)"
      },
      {
        "astId": 24,
        "contract": "contracts/BIOrbit.sol:BIOrbit",
        "label": "_roles",
        "offset": 0,
        "slot": "7",
        "type": "t_mapping(t_bytes32,t_struct(RoleData)19_storage)"
      },
      {
        "astId": 427,
        "contract": "contracts/BIOrbit.sol:BIOrbit",
        "label": "_status",
        "offset": 0,
        "slot": "8",
        "type": "t_uint256"
      },
      {
        "astId": 3415,
        "contract": "contracts/BIOrbit.sol:BIOrbit",
        "label": "projectIdCounter",
        "offset": 0,
        "slot": "9",
        "type": "t_struct(Counter)2083_storage"
      },
      {
        "astId": 3469,
        "contract": "contracts/BIOrbit.sol:BIOrbit",
        "label": "Projects",
        "offset": 0,
        "slot": "10",
        "type": "t_mapping(t_uint256,t_struct(Project)3464_storage)"
      }
    ],
    "types": {
      "t_address": {
        "encoding": "inplace",
        "label": "address",
        "numberOfBytes": "20"
      },
      "t_array(t_array(t_string_storage)dyn_storage)dyn_storage": {
        "base": "t_array(t_string_storage)dyn_storage",
        "encoding": "dynamic_array",
        "label": "string[][]",
        "numberOfBytes": "32"
      },
      "t_array(t_string_storage)dyn_storage": {
        "base": "t_string_storage",
        "encoding": "dynamic_array",
        "label": "string[]",
        "numberOfBytes": "32"
      },
      "t_array(t_struct(Monitoring)3425_storage)dyn_storage": {
        "base": "t_struct(Monitoring)3425_storage",
        "encoding": "dynamic_array",
        "label": "struct BIOrbit.Monitoring[]",
        "numberOfBytes": "32"
      },
      "t_bool": {
        "encoding": "inplace",
        "label": "bool",
        "numberOfBytes": "1"
      },
      "t_bytes32": {
        "encoding": "inplace",
        "label": "bytes32",
        "numberOfBytes": "32"
      },
      "t_contract(IERC721)1524": {
        "encoding": "inplace",
        "label": "contract IERC721",
        "numberOfBytes": "20"
      },
      "t_enum(State)3420": {
        "encoding": "inplace",
        "label": "enum BIOrbit.State",
        "numberOfBytes": "1"
      },
      "t_mapping(t_address,t_bool)": {
        "encoding": "mapping",
        "key": "t_address",
        "label": "mapping(address => bool)",
        "numberOfBytes": "32",
        "value": "t_bool"
      },
      "t_mapping(t_address,t_mapping(t_address,t_bool))": {
        "encoding": "mapping",
        "key": "t_address",
        "label": "mapping(address => mapping(address => bool))",
        "numberOfBytes": "32",
        "value": "t_mapping(t_address,t_bool)"
      },
      "t_mapping(t_address,t_uint256)": {
        "encoding": "mapping",
        "key": "t_address",
        "label": "mapping(address => uint256)",
        "numberOfBytes": "32",
        "value": "t_uint256"
      },
      "t_mapping(t_bytes32,t_struct(RoleData)19_storage)": {
        "encoding": "mapping",
        "key": "t_bytes32",
        "label": "mapping(bytes32 => struct AccessControl.RoleData)",
        "numberOfBytes": "32",
        "value": "t_struct(RoleData)19_storage"
      },
      "t_mapping(t_uint256,t_address)": {
        "encoding": "mapping",
        "key": "t_uint256",
        "label": "mapping(uint256 => address)",
        "numberOfBytes": "32",
        "value": "t_address"
      },
      "t_mapping(t_uint256,t_string_storage)": {
        "encoding": "mapping",
        "key": "t_uint256",
        "label": "mapping(uint256 => string)",
        "numberOfBytes": "32",
        "value": "t_string_storage"
      },
      "t_mapping(t_uint256,t_struct(Project)3464_storage)": {
        "encoding": "mapping",
        "key": "t_uint256",
        "label": "mapping(uint256 => struct BIOrbit.Project)",
        "numberOfBytes": "32",
        "value": "t_struct(Project)3464_storage"
      },
      "t_string_storage": {
        "encoding": "bytes",
        "label": "string",
        "numberOfBytes": "32"
      },
      "t_struct(Counter)2083_storage": {
        "encoding": "inplace",
        "label": "struct Counters.Counter",
        "members": [
          {
            "astId": 2082,
            "contract": "contracts/BIOrbit.sol:BIOrbit",
            "label": "_value",
            "offset": 0,
            "slot": "0",
            "type": "t_uint256"
          }
        ],
        "numberOfBytes": "32"
      },
      "t_struct(ImageTimeSeries)3432_storage": {
        "encoding": "inplace",
        "label": "struct BIOrbit.ImageTimeSeries",
        "members": [
          {
            "astId": 3428,
            "contract": "contracts/BIOrbit.sol:BIOrbit",
            "label": "detectionDate",
            "offset": 0,
            "slot": "0",
            "type": "t_array(t_string_storage)dyn_storage"
          },
          {
            "astId": 3431,
            "contract": "contracts/BIOrbit.sol:BIOrbit",
            "label": "forestCoverExtension",
            "offset": 0,
            "slot": "1",
            "type": "t_array(t_string_storage)dyn_storage"
          }
        ],
        "numberOfBytes": "64"
      },
      "t_struct(Monitoring)3425_storage": {
        "encoding": "inplace",
        "label": "struct BIOrbit.Monitoring",
        "members": [
          {
            "astId": 3422,
            "contract": "contracts/BIOrbit.sol:BIOrbit",
            "label": "detectionDate",
            "offset": 0,
            "slot": "0",
            "type": "t_string_storage"
          },
          {
            "astId": 3424,
            "contract": "contracts/BIOrbit.sol:BIOrbit",
            "label": "forestCoverExtension",
            "offset": 0,
            "slot": "1",
            "type": "t_string_storage"
          }
        ],
        "numberOfBytes": "64"
      },
      "t_struct(Project)3464_storage": {
        "encoding": "inplace",
        "label": "struct BIOrbit.Project",
        "members": [
          {
            "astId": 3434,
            "contract": "contracts/BIOrbit.sol:BIOrbit",
            "label": "id",
            "offset": 0,
            "slot": "0",
            "type": "t_uint256"
          },
          {
            "astId": 3436,
            "contract": "contracts/BIOrbit.sol:BIOrbit",
            "label": "uri",
            "offset": 0,
            "slot": "1",
            "type": "t_string_storage"
          },
          {
            "astId": 3439,
            "contract": "contracts/BIOrbit.sol:BIOrbit",
            "label": "nft",
            "offset": 0,
            "slot": "2",
            "type": "t_contract(IERC721)1524"
          },
          {
            "astId": 3442,
            "contract": "contracts/BIOrbit.sol:BIOrbit",
            "label": "state",
            "offset": 20,
            "slot": "2",
            "type": "t_enum(State)3420"
          },
          {
            "astId": 3444,
            "contract": "contracts/BIOrbit.sol:BIOrbit",
            "label": "name",
            "offset": 0,
            "slot": "3",
            "type": "t_string_storage"
          },
          {
            "astId": 3446,
            "contract": "contracts/BIOrbit.sol:BIOrbit",
            "label": "description",
            "offset": 0,
            "slot": "4",
            "type": "t_string_storage"
          },
          {
            "astId": 3448,
            "contract": "contracts/BIOrbit.sol:BIOrbit",
            "label": "extension",
            "offset": 0,
            "slot": "5",
            "type": "t_string_storage"
          },
          {
            "astId": 3452,
            "contract": "contracts/BIOrbit.sol:BIOrbit",
            "label": "footprint",
            "offset": 0,
            "slot": "6",
            "type": "t_array(t_array(t_string_storage)dyn_storage)dyn_storage"
          },
          {
            "astId": 3454,
            "contract": "contracts/BIOrbit.sol:BIOrbit",
            "label": "country",
            "offset": 0,
            "slot": "7",
            "type": "t_string_storage"
          },
          {
            "astId": 3456,
            "contract": "contracts/BIOrbit.sol:BIOrbit",
            "label": "owner",
            "offset": 0,
            "slot": "8",
            "type": "t_address"
          },
          {
            "astId": 3459,
            "contract": "contracts/BIOrbit.sol:BIOrbit",
            "label": "imageTimeSeries",
            "offset": 0,
            "slot": "9",
            "type": "t_struct(ImageTimeSeries)3432_storage"
          },
          {
            "astId": 3463,
            "contract": "contracts/BIOrbit.sol:BIOrbit",
            "label": "monitoring",
            "offset": 0,
            "slot": "11",
            "type": "t_array(t_struct(Monitoring)3425_storage)dyn_storage"
          }
        ],
        "numberOfBytes": "384"
      },
      "t_struct(RoleData)19_storage": {
        "encoding": "inplace",
        "label": "struct AccessControl.RoleData",
        "members": [
          {
            "astId": 16,
            "contract": "contracts/BIOrbit.sol:BIOrbit",
            "label": "members",
            "offset": 0,
            "slot": "0",
            "type": "t_mapping(t_address,t_bool)"
          },
          {
            "astId": 18,
            "contract": "contracts/BIOrbit.sol:BIOrbit",
            "label": "adminRole",
            "offset": 0,
            "slot": "1",
            "type": "t_bytes32"
          }
        ],
        "numberOfBytes": "64"
      },
      "t_uint256": {
        "encoding": "inplace",
        "label": "uint256",
        "numberOfBytes": "32"
      }
    }
  }
}