{
	"address": "0x3480d31330dc34805980dd63730C69996486CEF5",
	"abi": [
		{
			"inputs": [],
			"stateMutability": "nonpayable",
			"type": "constructor"
		},
		{
			"anonymous": false,
			"inputs": [
				{
					"indexed": true,
					"internalType": "address",
					"name": "owner",
					"type": "address"
				},
				{
					"indexed": true,
					"internalType": "address",
					"name": "approved",
					"type": "address"
				},
				{
					"indexed": true,
					"internalType": "uint256",
					"name": "tokenId",
					"type": "uint256"
				}
			],
			"name": "Approval",
			"type": "event"
		},
		{
			"anonymous": false,
			"inputs": [
				{
					"indexed": true,
					"internalType": "address",
					"name": "owner",
					"type": "address"
				},
				{
					"indexed": true,
					"internalType": "address",
					"name": "operator",
					"type": "address"
				},
				{
					"indexed": false,
					"internalType": "bool",
					"name": "approved",
					"type": "bool"
				}
			],
			"name": "ApprovalForAll",
			"type": "event"
		},
		{
			"anonymous": false,
			"inputs": [
				{
					"indexed": false,
					"internalType": "uint256",
					"name": "_fromTokenId",
					"type": "uint256"
				},
				{
					"indexed": false,
					"internalType": "uint256",
					"name": "_toTokenId",
					"type": "uint256"
				}
			],
			"name": "BatchMetadataUpdate",
			"type": "event"
		},
		{
			"anonymous": false,
			"inputs": [
				{
					"indexed": false,
					"internalType": "uint256",
					"name": "_tokenId",
					"type": "uint256"
				}
			],
			"name": "MetadataUpdate",
			"type": "event"
		},
		{
			"anonymous": false,
			"inputs": [
				{
					"indexed": false,
					"internalType": "uint256",
					"name": "id",
					"type": "uint256"
				},
				{
					"indexed": false,
					"internalType": "enum BIOrbit.State",
					"name": "state",
					"type": "uint8"
				},
				{
					"indexed": false,
					"internalType": "string",
					"name": "name",
					"type": "string"
				},
				{
					"indexed": false,
					"internalType": "string",
					"name": "description",
					"type": "string"
				},
				{
					"indexed": false,
					"internalType": "string",
					"name": "extension",
					"type": "string"
				},
				{
					"indexed": false,
					"internalType": "string[][]",
					"name": "footprint",
					"type": "string[][]"
				},
				{
					"indexed": false,
					"internalType": "string",
					"name": "country",
					"type": "string"
				},
				{
					"indexed": false,
					"internalType": "address",
					"name": "owner",
					"type": "address"
				}
			],
			"name": "ProjectCreated",
			"type": "event"
		},
		{
			"anonymous": false,
			"inputs": [
				{
					"indexed": true,
					"internalType": "address",
					"name": "from",
					"type": "address"
				},
				{
					"indexed": true,
					"internalType": "address",
					"name": "to",
					"type": "address"
				},
				{
					"indexed": true,
					"internalType": "uint256",
					"name": "tokenId",
					"type": "uint256"
				}
			],
			"name": "Transfer",
			"type": "event"
		},
		{
			"inputs": [
				{
					"internalType": "uint256",
					"name": "",
					"type": "uint256"
				}
			],
			"name": "Projects",
			"outputs": [
				{
					"internalType": "uint256",
					"name": "id",
					"type": "uint256"
				},
				{
					"internalType": "string",
					"name": "uri",
					"type": "string"
				},
				{
					"internalType": "enum BIOrbit.State",
					"name": "state",
					"type": "uint8"
				},
				{
					"internalType": "string",
					"name": "name",
					"type": "string"
				},
				{
					"internalType": "string",
					"name": "description",
					"type": "string"
				},
				{
					"internalType": "string",
					"name": "extension",
					"type": "string"
				},
				{
					"internalType": "string",
					"name": "country",
					"type": "string"
				},
				{
					"internalType": "address",
					"name": "owner",
					"type": "address"
				},
				{
					"components": [
						{
							"internalType": "string[]",
							"name": "detectionDate",
							"type": "string[]"
						},
						{
							"internalType": "string[]",
							"name": "forestCoverExtension",
							"type": "string[]"
						}
					],
					"internalType": "struct BIOrbit.ImageTimeSeries",
					"name": "imageTimeSeries",
					"type": "tuple"
				}
			],
			"stateMutability": "view",
			"type": "function"
		},
		{
			"inputs": [
				{
					"internalType": "address",
					"name": "to",
					"type": "address"
				},
				{
					"internalType": "uint256",
					"name": "tokenId",
					"type": "uint256"
				}
			],
			"name": "approve",
			"outputs": [],
			"stateMutability": "nonpayable",
			"type": "function"
		},
		{
			"inputs": [
				{
					"internalType": "address",
					"name": "owner",
					"type": "address"
				}
			],
			"name": "balanceOf",
			"outputs": [
				{
					"internalType": "uint256",
					"name": "",
					"type": "uint256"
				}
			],
			"stateMutability": "view",
			"type": "function"
		},
		{
			"inputs": [
				{
					"internalType": "uint256",
					"name": "tokenId",
					"type": "uint256"
				}
			],
			"name": "getApproved",
			"outputs": [
				{
					"internalType": "address",
					"name": "",
					"type": "address"
				}
			],
			"stateMutability": "view",
			"type": "function"
		},
		{
			"inputs": [
				{
					"internalType": "uint256",
					"name": "_projectId",
					"type": "uint256"
				}
			],
			"name": "getDetectionDatesAndForestCoverExtensionsByProjectId",
			"outputs": [
				{
					"internalType": "string[][]",
					"name": "",
					"type": "string[][]"
				}
			],
			"stateMutability": "view",
			"type": "function"
		},
		{
			"inputs": [],
			"name": "getProjects",
			"outputs": [
				{
					"components": [
						{
							"internalType": "uint256",
							"name": "id",
							"type": "uint256"
						},
						{
							"internalType": "string",
							"name": "uri",
							"type": "string"
						},
						{
							"internalType": "enum BIOrbit.State",
							"name": "state",
							"type": "uint8"
						},
						{
							"internalType": "string",
							"name": "name",
							"type": "string"
						},
						{
							"internalType": "string",
							"name": "description",
							"type": "string"
						},
						{
							"internalType": "string",
							"name": "extension",
							"type": "string"
						},
						{
							"internalType": "string[][]",
							"name": "footprint",
							"type": "string[][]"
						},
						{
							"internalType": "string",
							"name": "country",
							"type": "string"
						},
						{
							"internalType": "address",
							"name": "owner",
							"type": "address"
						},
						{
							"components": [
								{
									"internalType": "string[]",
									"name": "detectionDate",
									"type": "string[]"
								},
								{
									"internalType": "string[]",
									"name": "forestCoverExtension",
									"type": "string[]"
								}
							],
							"internalType": "struct BIOrbit.ImageTimeSeries",
							"name": "imageTimeSeries",
							"type": "tuple"
						},
						{
							"components": [
								{
									"internalType": "string",
									"name": "detectionDate",
									"type": "string"
								},
								{
									"internalType": "string",
									"name": "forestCoverExtension",
									"type": "string"
								}
							],
							"internalType": "struct BIOrbit.Monitoring[]",
							"name": "monitoring",
							"type": "tuple[]"
						}
					],
					"internalType": "struct BIOrbit.Project[]",
					"name": "",
					"type": "tuple[]"
				}
			],
			"stateMutability": "view",
			"type": "function"
		},
		{
			"inputs": [],
			"name": "getProjectsByOwner",
			"outputs": [
				{
					"components": [
						{
							"internalType": "uint256",
							"name": "id",
							"type": "uint256"
						},
						{
							"internalType": "string",
							"name": "uri",
							"type": "string"
						},
						{
							"internalType": "enum BIOrbit.State",
							"name": "state",
							"type": "uint8"
						},
						{
							"internalType": "string",
							"name": "name",
							"type": "string"
						},
						{
							"internalType": "string",
							"name": "description",
							"type": "string"
						},
						{
							"internalType": "string",
							"name": "extension",
							"type": "string"
						},
						{
							"internalType": "string[][]",
							"name": "footprint",
							"type": "string[][]"
						},
						{
							"internalType": "string",
							"name": "country",
							"type": "string"
						},
						{
							"internalType": "address",
							"name": "owner",
							"type": "address"
						},
						{
							"components": [
								{
									"internalType": "string[]",
									"name": "detectionDate",
									"type": "string[]"
								},
								{
									"internalType": "string[]",
									"name": "forestCoverExtension",
									"type": "string[]"
								}
							],
							"internalType": "struct BIOrbit.ImageTimeSeries",
							"name": "imageTimeSeries",
							"type": "tuple"
						},
						{
							"components": [
								{
									"internalType": "string",
									"name": "detectionDate",
									"type": "string"
								},
								{
									"internalType": "string",
									"name": "forestCoverExtension",
									"type": "string"
								}
							],
							"internalType": "struct BIOrbit.Monitoring[]",
							"name": "monitoring",
							"type": "tuple[]"
						}
					],
					"internalType": "struct BIOrbit.Project[]",
					"name": "",
					"type": "tuple[]"
				}
			],
			"stateMutability": "view",
			"type": "function"
		},
		{
			"inputs": [
				{
					"internalType": "address",
					"name": "owner",
					"type": "address"
				},
				{
					"internalType": "address",
					"name": "operator",
					"type": "address"
				}
			],
			"name": "isApprovedForAll",
			"outputs": [
				{
					"internalType": "bool",
					"name": "",
					"type": "bool"
				}
			],
			"stateMutability": "view",
			"type": "function"
		},
		{
			"inputs": [
				{
					"internalType": "string",
					"name": "_name",
					"type": "string"
				},
				{
					"internalType": "string",
					"name": "_description",
					"type": "string"
				},
				{
					"internalType": "string",
					"name": "_extension",
					"type": "string"
				},
				{
					"internalType": "string[][]",
					"name": "_footprint",
					"type": "string[][]"
				},
				{
					"internalType": "string",
					"name": "_country",
					"type": "string"
				}
			],
			"name": "mintProject",
			"outputs": [],
			"stateMutability": "payable",
			"type": "function"
		},
		{
			"inputs": [],
			"name": "name",
			"outputs": [
				{
					"internalType": "string",
					"name": "",
					"type": "string"
				}
			],
			"stateMutability": "view",
			"type": "function"
		},
		{
			"inputs": [
				{
					"internalType": "uint256",
					"name": "tokenId",
					"type": "uint256"
				}
			],
			"name": "ownerOf",
			"outputs": [
				{
					"internalType": "address",
					"name": "",
					"type": "address"
				}
			],
			"stateMutability": "view",
			"type": "function"
		},
		{
			"inputs": [],
			"name": "projectIdCounter",
			"outputs": [
				{
					"internalType": "uint256",
					"name": "_value",
					"type": "uint256"
				}
			],
			"stateMutability": "view",
			"type": "function"
		},
		{
			"inputs": [
				{
					"internalType": "address",
					"name": "from",
					"type": "address"
				},
				{
					"internalType": "address",
					"name": "to",
					"type": "address"
				},
				{
					"internalType": "uint256",
					"name": "tokenId",
					"type": "uint256"
				}
			],
			"name": "safeTransferFrom",
			"outputs": [],
			"stateMutability": "nonpayable",
			"type": "function"
		},
		{
			"inputs": [
				{
					"internalType": "address",
					"name": "from",
					"type": "address"
				},
				{
					"internalType": "address",
					"name": "to",
					"type": "address"
				},
				{
					"internalType": "uint256",
					"name": "tokenId",
					"type": "uint256"
				},
				{
					"internalType": "bytes",
					"name": "_data",
					"type": "bytes"
				}
			],
			"name": "safeTransferFrom",
			"outputs": [],
			"stateMutability": "nonpayable",
			"type": "function"
		},
		{
			"inputs": [
				{
					"internalType": "address",
					"name": "operator",
					"type": "address"
				},
				{
					"internalType": "bool",
					"name": "approved",
					"type": "bool"
				}
			],
			"name": "setApprovalForAll",
			"outputs": [],
			"stateMutability": "nonpayable",
			"type": "function"
		},
		{
			"inputs": [
				{
					"internalType": "string[]",
					"name": "_detectionDate",
					"type": "string[]"
				},
				{
					"internalType": "string[]",
					"name": "_forestCoverExtension",
					"type": "string[]"
				},
				{
					"internalType": "uint256",
					"name": "_projectId",
					"type": "uint256"
				},
				{
					"internalType": "string",
					"name": "_tokenURI",
					"type": "string"
				}
			],
			"name": "setTokenURI",
			"outputs": [],
			"stateMutability": "nonpayable",
			"type": "function"
		},
		{
			"inputs": [
				{
					"internalType": "bytes4",
					"name": "interfaceId",
					"type": "bytes4"
				}
			],
			"name": "supportsInterface",
			"outputs": [
				{
					"internalType": "bool",
					"name": "",
					"type": "bool"
				}
			],
			"stateMutability": "view",
			"type": "function"
		},
		{
			"inputs": [],
			"name": "symbol",
			"outputs": [
				{
					"internalType": "string",
					"name": "",
					"type": "string"
				}
			],
			"stateMutability": "view",
			"type": "function"
		},
		{
			"inputs": [
				{
					"internalType": "uint256",
					"name": "tokenId",
					"type": "uint256"
				}
			],
			"name": "tokenURI",
			"outputs": [
				{
					"internalType": "string",
					"name": "",
					"type": "string"
				}
			],
			"stateMutability": "view",
			"type": "function"
		},
		{
			"inputs": [
				{
					"internalType": "address",
					"name": "from",
					"type": "address"
				},
				{
					"internalType": "address",
					"name": "to",
					"type": "address"
				},
				{
					"internalType": "uint256",
					"name": "tokenId",
					"type": "uint256"
				}
			],
			"name": "transferFrom",
			"outputs": [],
			"stateMutability": "nonpayable",
			"type": "function"
		}
	],
	"transactionHash": "0x5f1797c58fe79ea16c87a7ca32923eaa808746f9eca6f2aa2eb4118605a8839d",
	"args": [],
	"numDeployments": 1,
	"solcInputHash": "ee4924d62e66fbef5112870431ea6343",
	"bytecode": "0x60806040523480156200001157600080fd5b5060405180604001604052806007815260200166109253dc989a5d60ca1b8152506040518060400160405280600381526020016242494f60e81b81525081600090816200005f919062000190565b5060016200006e828262000190565b50505062000260565b634e487b7160e01b600052604160045260246000fd5b634e487b7160e01b600052602260045260246000fd5b600281046001821680620000b857607f821691505b602082108103620000cd57620000cd6200008d565b50919050565b6000620000e4620000e18381565b90565b92915050565b620000f583620000d3565b81546008840282811b60001990911b908116901990911617825550505050565b600062000124818484620000ea565b505050565b8181101562000148576200013f60008262000115565b60010162000129565b5050565b601f82111562000124576000818152602090206020601f85010481016020851015620001755750805b620001896020601f86010483018262000129565b5050505050565b81516001600160401b03811115620001ac57620001ac62000077565b620001b88254620000a3565b620001c58282856200014c565b6020601f831160018114620001fc5760008415620001e35750858201515b600019600886021c198116600286021786555062000258565b600085815260208120601f198616915b828110156200022e57888501518255602094850194600190920191016200020c565b868310156200024b5784890151600019601f89166008021c191682555b6001600288020188555050505b505050505050565b6144c880620002706000396000f3fe60806040526004361061011f5760003560e01c80636352211e116100a0578063bf8270fe11610064578063bf8270fe14610337578063c87b56dd14610364578063d5977b5e14610384578063dcc601281461039b578063e985e9c5146103b057600080fd5b80636352211e1461029557806370a08231146102b557806395d89b41146102e2578063a22cb465146102f7578063b88d4fde1461031757600080fd5b806323b872dd116100e757806323b872dd146102005780634082fc471461022057806342842e0e146102335780634aae5f4d1461025357806359886b821461027557600080fd5b806301ffc9a71461012457806306fdde031461015a578063081812fc1461017c578063095ea7b3146101a957806321b2416c146101cb575b600080fd5b34801561013057600080fd5b5061014461013f36600461310c565b6103d0565b6040516101519190613137565b60405180910390f35b34801561016657600080fd5b5061016f6103e1565b604051610151919061319b565b34801561018857600080fd5b5061019c6101973660046131bd565b610473565b60405161015191906131f8565b3480156101b557600080fd5b506101c96101c436600461321a565b61049a565b005b3480156101d757600080fd5b506101eb6101e63660046131bd565b610528565b60405161015199989796959493929190613353565b34801561020c57600080fd5b506101c961021b366004613402565b6109e1565b6101c961022e36600461368d565b610a1f565b34801561023f57600080fd5b506101c961024e366004613402565b610ace565b34801561025f57600080fd5b50610268610ad9565b60405161015191906139f6565b34801561028157600080fd5b506101c9610290366004613a07565b611357565b3480156102a157600080fd5b5061019c6102b03660046131bd565b6114c5565b3480156102c157600080fd5b506102d56102d0366004613ab8565b6114fa565b6040516101519190613ad9565b3480156102ee57600080fd5b5061016f61153e565b34801561030357600080fd5b506101c9610312366004613afa565b61154d565b34801561032357600080fd5b506101c9610332366004613b2d565b61155c565b34801561034357600080fd5b506103576103523660046131bd565b61159c565b6040516101519190613bbc565b34801561037057600080fd5b5061016f61037f3660046131bd565b611ae1565b34801561039057600080fd5b506007546102d59081565b3480156103a757600080fd5b50610268611aec565b3480156103bc57600080fd5b506101446103cb366004613bcd565b612351565b60006103db8261237f565b92915050565b6060600080546103f090613c16565b80601f016020809104026020016040519081016040528092919081815260200182805461041c90613c16565b80156104695780601f1061043e57610100808354040283529160200191610469565b820191906000526020600020905b81548152906001019060200180831161044c57829003601f168201915b5050505050905090565b600061047e826123a4565b506000908152600460205260409020546001600160a01b031690565b60006104a5826114c5565b9050806001600160a01b0316836001600160a01b0316036104e15760405162461bcd60e51b81526004016104d890613c83565b60405180910390fd5b336001600160a01b03821614806104fd57506104fd8133612351565b6105195760405162461bcd60e51b81526004016104d890613ced565b61052383836123db565b505050565b6008602052600090815260409020805460018201805491929161054a90613c16565b80601f016020809104026020016040519081016040528092919081815260200182805461057690613c16565b80156105c35780601f10610598576101008083540402835291602001916105c3565b820191906000526020600020905b8154815290600101906020018083116105a657829003601f168201915b5050506002840154600385018054949560ff9092169491935091506105e790613c16565b80601f016020809104026020016040519081016040528092919081815260200182805461061390613c16565b80156106605780601f1061063557610100808354040283529160200191610660565b820191906000526020600020905b81548152906001019060200180831161064357829003601f168201915b50505050509080600401805461067590613c16565b80601f01602080910402602001604051908101604052809291908181526020018280546106a190613c16565b80156106ee5780601f106106c3576101008083540402835291602001916106ee565b820191906000526020600020905b8154815290600101906020018083116106d157829003601f168201915b50505050509080600501805461070390613c16565b80601f016020809104026020016040519081016040528092919081815260200182805461072f90613c16565b801561077c5780601f106107515761010080835404028352916020019161077c565b820191906000526020600020905b81548152906001019060200180831161075f57829003601f168201915b50505050509080600701805461079190613c16565b80601f01602080910402602001604051908101604052809291908181526020018280546107bd90613c16565b801561080a5780601f106107df5761010080835404028352916020019161080a565b820191906000526020600020905b8154815290600101906020018083116107ed57829003601f168201915b50505060088401546040805160098701805460606020820284018101855293830181815297986001600160a01b03909516979496509194509284929091849160009085015b828210156108fb57838290600052602060002001805461086e90613c16565b80601f016020809104026020016040519081016040528092919081815260200182805461089a90613c16565b80156108e75780601f106108bc576101008083540402835291602001916108e7565b820191906000526020600020905b8154815290600101906020018083116108ca57829003601f168201915b50505050508152602001906001019061084f565b50505050815260200160018201805480602002602001604051908101604052809291908181526020016000905b828210156109d457838290600052602060002001805461094790613c16565b80601f016020809104026020016040519081016040528092919081815260200182805461097390613c16565b80156109c05780601f10610995576101008083540402835291602001916109c0565b820191906000526020600020905b8154815290600101906020018083116109a357829003601f168201915b505050505081526020019060010190610928565b5050505081525050905089565b6109ec838383612449565b60009081526008602081905260409091200180546001600160a01b0319166001600160a01b039290921691909117905550565b6000610a2961247a565b60008181526008602052604090209091506001610a4d8284838b8b8b8b8b33612495565b610a57338461253d565b8154600283015460088401546040517f2f2cd3b0d05e41218db6e35c81868c1bdaebbdab5ffad8f07f6122a3f363f62093610abc93909260ff909116916003880191600489019160058a019160068b019160078c01916001600160a01b031690613e47565b60405180910390a15050505050505050565b6109ec838383612557565b60606000610ae660075490565b90506000816001600160401b03811115610b0257610b02613452565b604051908082528060200260200182016040528015610b3b57816020015b610b28612f16565b815260200190600190039081610b205790505b509050600060015b83811161134e57600081815260086020819052604090912090810154336001600160a01b039091160361133b57806040518061016001604052908160008201548152602001600182018054610b9790613c16565b80601f0160208091040260200160405190810160405280929190818152602001828054610bc390613c16565b8015610c105780601f10610be557610100808354040283529160200191610c10565b820191906000526020600020905b815481529060010190602001808311610bf357829003601f168201915b5050509183525050600282015460209091019060ff166003811115610c3757610c3761325d565b6003811115610c4857610c4861325d565b8152602001600382018054610c5c90613c16565b80601f0160208091040260200160405190810160405280929190818152602001828054610c8890613c16565b8015610cd55780601f10610caa57610100808354040283529160200191610cd5565b820191906000526020600020905b815481529060010190602001808311610cb857829003601f168201915b50505050508152602001600482018054610cee90613c16565b80601f0160208091040260200160405190810160405280929190818152602001828054610d1a90613c16565b8015610d675780601f10610d3c57610100808354040283529160200191610d67565b820191906000526020600020905b815481529060010190602001808311610d4a57829003601f168201915b50505050508152602001600582018054610d8090613c16565b80601f0160208091040260200160405190810160405280929190818152602001828054610dac90613c16565b8015610df95780601f10610dce57610100808354040283529160200191610df9565b820191906000526020600020905b815481529060010190602001808311610ddc57829003601f168201915b5050505050815260200160068201805480602002602001604051908101604052809291908181526020016000905b82821015610f1a57838290600052602060002001805480602002602001604051908101604052809291908181526020016000905b82821015610f07578382906000526020600020018054610e7a90613c16565b80601f0160208091040260200160405190810160405280929190818152602001828054610ea690613c16565b8015610ef35780601f10610ec857610100808354040283529160200191610ef3565b820191906000526020600020905b815481529060010190602001808311610ed657829003601f168201915b505050505081526020019060010190610e5b565b5050505081526020019060010190610e27565b505050508152602001600782018054610f3290613c16565b80601f0160208091040260200160405190810160405280929190818152602001828054610f5e90613c16565b8015610fab5780601f10610f8057610100808354040283529160200191610fab565b820191906000526020600020905b815481529060010190602001808311610f8e57829003601f168201915b505050918352505060088201546001600160a01b03166020808301919091526040805160098501805460609481028301850184528284018181529390950194919390928492909184919060009085015b828210156110a757838290600052602060002001805461101a90613c16565b80601f016020809104026020016040519081016040528092919081815260200182805461104690613c16565b80156110935780601f1061106857610100808354040283529160200191611093565b820191906000526020600020905b81548152906001019060200180831161107657829003601f168201915b505050505081526020019060010190610ffb565b50505050815260200160018201805480602002602001604051908101604052809291908181526020016000905b828210156111805783829060005260206000200180546110f390613c16565b80601f016020809104026020016040519081016040528092919081815260200182805461111f90613c16565b801561116c5780601f106111415761010080835404028352916020019161116c565b820191906000526020600020905b81548152906001019060200180831161114f57829003601f168201915b5050505050815260200190600101906110d4565b50505050815250508152602001600b8201805480602002602001604051908101604052809291908181526020016000905b8282101561130757838290600052602060002090600202016040518060400160405290816000820180546111e490613c16565b80601f016020809104026020016040519081016040528092919081815260200182805461121090613c16565b801561125d5780601f106112325761010080835404028352916020019161125d565b820191906000526020600020905b81548152906001019060200180831161124057829003601f168201915b5050505050815260200160018201805461127690613c16565b80601f01602080910402602001604051908101604052809291908181526020018280546112a290613c16565b80156112ef5780601f106112c4576101008083540402835291602001916112ef565b820191906000526020600020905b8154815290600101906020018083116112d257829003601f168201915b505050505081525050815260200190600101906111b1565b505050508152505084848151811061132157611321613ee1565b6020026020010181905250828061133790613f0d565b9350505b508061134681613f0d565b915050610b43565b50815292915050565b60008281526008602052604090206001600282015460ff1660038111156113805761138061325d565b036113fa5761138f8383612572565b6040805180820190915285815260208082018690528651829160098501916113bc918391908b0190612f94565b5060208281015180516113d59260018501920190612f94565b50505060028201805460ff19169055600182016113f28482613fc0565b5050506114bf565b6000600282015460ff1660038111156114155761141561325d565b036114bd57600060405180604001604052808760008151811061143a5761143a613ee1565b602002602001015181526020018660008151811061145a5761145a613ee1565b602090810291909101810151909152600b840180546001810182556000918252919020825192935083926002909202019081906114979082613fc0565b50602082015160018201906114ac9082613fc0565b505050600182016113f28482613fc0565b505b50505050565b6000818152600260205260408120546001600160a01b0316806103db5760405162461bcd60e51b81526004016104d8906140ba565b60006001600160a01b0382166115225760405162461bcd60e51b81526004016104d890614110565b506001600160a01b031660009081526003602052604090205490565b6060600180546103f090613c16565b6115583383836125fa565b5050565b6115688484848461269c565b5060009081526008602081905260409091200180546001600160a01b0319166001600160a01b039290921691909117905550565b600081815260086020819052604090912090810154606091906001600160a01b031633146115dc5760405162461bcd60e51b81526004016104d890614144565b60408051600280825260608201909252600091816020015b60608152602001906001900390816115f45750506009830180546040805160208084028201810190925282815293945060009084015b828210156116d657838290600052602060002001805461164990613c16565b80601f016020809104026020016040519081016040528092919081815260200182805461167590613c16565b80156116c25780601f10611697576101008083540402835291602001916116c2565b820191906000526020600020905b8154815290600101906020018083116116a557829003601f168201915b50505050508152602001906001019061162a565b50505050816000815181106116ed576116ed613ee1565b602002602001018190525081600901600101805480602002602001604051908101604052809291908181526020016000905b828210156117cb57838290600052602060002001805461173e90613c16565b80601f016020809104026020016040519081016040528092919081815260200182805461176a90613c16565b80156117b75780601f1061178c576101008083540402835291602001916117b7565b820191906000526020600020905b81548152906001019060200180831161179a57829003601f168201915b50505050508152602001906001019061171f565b50505050816001815181106117e2576117e2613ee1565b6020908102919091010152600b8201546000906001600160401b0381111561180c5761180c613452565b60405190808252806020026020018201604052801561183f57816020015b606081526020019060019003908161182a5790505b50600b8401549091506000906001600160401b0381111561186257611862613452565b60405190808252806020026020018201604052801561189557816020015b60608152602001906001900390816118805790505b50905060015b600b850154811015611a525784600b0181815481106118bc576118bc613ee1565b906000526020600020906002020160000180546118d890613c16565b80601f016020809104026020016040519081016040528092919081815260200182805461190490613c16565b80156119515780601f1061192657610100808354040283529160200191611951565b820191906000526020600020905b81548152906001019060200180831161193457829003601f168201915b505050505083828151811061196857611968613ee1565b602002602001018190525084600b01818154811061198857611988613ee1565b906000526020600020906002020160010180546119a490613c16565b80601f01602080910402602001604051908101604052809291908181526020018280546119d090613c16565b8015611a1d5780601f106119f257610100808354040283529160200191611a1d565b820191906000526020600020905b815481529060010190602001808311611a0057829003601f168201915b5050505050828281518110611a3457611a34613ee1565b60200260200101819052508080611a4a90613f0d565b91505061189b565b50611a7783600081518110611a6957611a69613ee1565b6020026020010151836126ce565b83600081518110611a8a57611a8a613ee1565b6020026020010181905250611ab983600181518110611aab57611aab613ee1565b6020026020010151826126ce565b83600181518110611acc57611acc613ee1565b60209081029190910101525090949350505050565b60606103db826127ef565b60606000611af960075490565b90506000816001600160401b03811115611b1557611b15613452565b604051908082528060200260200182016040528015611b4e57816020015b611b3b612f16565b815260200190600190039081611b335790505b5090506000805b83811161134e576000600860008381526020019081526020016000209050806040518061016001604052908160008201548152602001600182018054611b9a90613c16565b80601f0160208091040260200160405190810160405280929190818152602001828054611bc690613c16565b8015611c135780601f10611be857610100808354040283529160200191611c13565b820191906000526020600020905b815481529060010190602001808311611bf657829003601f168201915b5050509183525050600282015460209091019060ff166003811115611c3a57611c3a61325d565b6003811115611c4b57611c4b61325d565b8152602001600382018054611c5f90613c16565b80601f0160208091040260200160405190810160405280929190818152602001828054611c8b90613c16565b8015611cd85780601f10611cad57610100808354040283529160200191611cd8565b820191906000526020600020905b815481529060010190602001808311611cbb57829003601f168201915b50505050508152602001600482018054611cf190613c16565b80601f0160208091040260200160405190810160405280929190818152602001828054611d1d90613c16565b8015611d6a5780601f10611d3f57610100808354040283529160200191611d6a565b820191906000526020600020905b815481529060010190602001808311611d4d57829003601f168201915b50505050508152602001600582018054611d8390613c16565b80601f0160208091040260200160405190810160405280929190818152602001828054611daf90613c16565b8015611dfc5780601f10611dd157610100808354040283529160200191611dfc565b820191906000526020600020905b815481529060010190602001808311611ddf57829003601f168201915b5050505050815260200160068201805480602002602001604051908101604052809291908181526020016000905b82821015611f1d57838290600052602060002001805480602002602001604051908101604052809291908181526020016000905b82821015611f0a578382906000526020600020018054611e7d90613c16565b80601f0160208091040260200160405190810160405280929190818152602001828054611ea990613c16565b8015611ef65780601f10611ecb57610100808354040283529160200191611ef6565b820191906000526020600020905b815481529060010190602001808311611ed957829003601f168201915b505050505081526020019060010190611e5e565b5050505081526020019060010190611e2a565b505050508152602001600782018054611f3590613c16565b80601f0160208091040260200160405190810160405280929190818152602001828054611f6190613c16565b8015611fae5780601f10611f8357610100808354040283529160200191611fae565b820191906000526020600020905b815481529060010190602001808311611f9157829003601f168201915b505050918352505060088201546001600160a01b03166020808301919091526040805160098501805460609481028301850184528284018181529390950194919390928492909184919060009085015b828210156120aa57838290600052602060002001805461201d90613c16565b80601f016020809104026020016040519081016040528092919081815260200182805461204990613c16565b80156120965780601f1061206b57610100808354040283529160200191612096565b820191906000526020600020905b81548152906001019060200180831161207957829003601f168201915b505050505081526020019060010190611ffe565b50505050815260200160018201805480602002602001604051908101604052809291908181526020016000905b828210156121835783829060005260206000200180546120f690613c16565b80601f016020809104026020016040519081016040528092919081815260200182805461212290613c16565b801561216f5780601f106121445761010080835404028352916020019161216f565b820191906000526020600020905b81548152906001019060200180831161215257829003601f168201915b5050505050815260200190600101906120d7565b50505050815250508152602001600b8201805480602002602001604051908101604052809291908181526020016000905b8282101561230a57838290600052602060002090600202016040518060400160405290816000820180546121e790613c16565b80601f016020809104026020016040519081016040528092919081815260200182805461221390613c16565b80156122605780601f1061223557610100808354040283529160200191612260565b820191906000526020600020905b81548152906001019060200180831161224357829003601f168201915b5050505050815260200160018201805461227990613c16565b80601f01602080910402602001604051908101604052809291908181526020018280546122a590613c16565b80156122f25780601f106122c7576101008083540402835291602001916122f2565b820191906000526020600020905b8154815290600101906020018083116122d557829003601f168201915b505050505081525050815260200190600101906121b4565b505050508152505084848151811061232457612324613ee1565b6020026020010181905250828061233a90613f0d565b93505050808061234990613f0d565b915050611b55565b6001600160a01b03918216600090815260056020908152604080832093909416825291909152205460ff1690565b60006001600160e01b03198216632483248360e11b14806103db57506103db826128ff565b6000818152600260205260409020546001600160a01b03166123d85760405162461bcd60e51b81526004016104d8906140ba565b50565b600081815260046020526040902080546001600160a01b0319166001600160a01b0384169081179091558190612410826114c5565b6001600160a01b03167f8c5be1e5ebec7d5bd14f71427d1e84f3dd0314c0f7b2291e5b200ac8c7c3b92560405160405180910390a45050565b612453338261294f565b61246f5760405162461bcd60e51b81526004016104d89061419e565b6105238383836129ad565b600061248a600780546001019055565b60006103db60075490565b87895560028901805488919060ff191660018360038111156124b9576124b961325d565b0217905550600389016124cc8782613fc0565b50600489016124db8682613fc0565b50600589016124ea8582613fc0565b5082516125009060068b01906020860190612fea565b506007890161250f8382613fc0565b5060089890980180546001600160a01b0319166001600160a01b039099169890981790975550505050505050565b611558828260405180602001604052806000815250612ad5565b6105238383836040518060200160405280600081525061155c565b6000828152600260205260409020546001600160a01b03166125a65760405162461bcd60e51b81526004016104d8906141f9565b60008281526006602052604090206125be8282613fc0565b507ff8e1a15aba9398e019f0b49df1a4fde98ee17ae345cb5f6b5e2c27f5033e8ce7826040516125ee9190613ad9565b60405180910390a15050565b816001600160a01b0316836001600160a01b03160361262b5760405162461bcd60e51b81526004016104d89061423d565b6001600160a01b0383811660008181526005602090815260408083209487168084529490915290819020805460ff1916851515179055517f17307eab39ab6107e8899845ad3d59bd9653f200f220920489ca2b5937696c319061268f908590613137565b60405180910390a3505050565b6126a6338361294f565b6126c25760405162461bcd60e51b81526004016104d89061419e565b6114bf84848484612b08565b60606000825184516126e0919061424d565b6001600160401b038111156126f7576126f7613452565b60405190808252806020026020018201604052801561272a57816020015b60608152602001906001900390816127155790505b50905060005b84518110156127835784818151811061274b5761274b613ee1565b602002602001015182828151811061276557612765613ee1565b6020026020010181905250808061277b90613f0d565b915050612730565b60005b84518110156127e5578481815181106127a1576127a1613ee1565b60200260200101518383806127b590613f0d565b9450815181106127c7576127c7613ee1565b602002602001018190525080806127dd90613f0d565b915050612786565b5090949350505050565b60606127fa826123a4565b6000828152600660205260408120805461281390613c16565b80601f016020809104026020016040519081016040528092919081815260200182805461283f90613c16565b801561288c5780601f106128615761010080835404028352916020019161288c565b820191906000526020600020905b81548152906001019060200180831161286f57829003601f168201915b5050505050905060006128aa60408051602081019091526000815290565b905080516000036128bc575092915050565b8151156128ee5780826040516020016128d6929190614282565b60405160208183030381529060405292505050919050565b6128f784612b3b565b949350505050565b60006001600160e01b031982166380ac58cd60e01b148061293057506001600160e01b03198216635b5e139f60e01b145b806103db57506301ffc9a760e01b6001600160e01b03198316146103db565b60008061295b836114c5565b9050806001600160a01b0316846001600160a01b0316148061298257506129828185612351565b806128f75750836001600160a01b031661299b84610473565b6001600160a01b031614949350505050565b826001600160a01b03166129c0826114c5565b6001600160a01b0316146129e65760405162461bcd60e51b81526004016104d8906142dc565b6001600160a01b038216612a0c5760405162461bcd60e51b81526004016104d89061432d565b826001600160a01b0316612a1f826114c5565b6001600160a01b031614612a455760405162461bcd60e51b81526004016104d8906142dc565b600081815260046020908152604080832080546001600160a01b03199081169091556001600160a01b0387811680865260038552838620805460001901905590871680865283862080546001019055868652600290945282852080549092168417909155905184937fddf252ad1be2c89b69c2b068fc378daa952ba7f163c4a11628f55a4df523b3ef91a4505050565b612adf8383612baf565b612aec6000848484612caa565b6105235760405162461bcd60e51b81526004016104d89061438c565b612b138484846129ad565b612b1f84848484612caa565b6114bf5760405162461bcd60e51b81526004016104d89061438c565b6060612b46826123a4565b6000612b5d60408051602081019091526000815290565b90506000815111612b7d5760405180602001604052806000815250612ba8565b80612b8784612dab565b604051602001612b98929190614282565b6040516020818303038152906040525b9392505050565b6001600160a01b038216612bd55760405162461bcd60e51b81526004016104d8906143ce565b6000818152600260205260409020546001600160a01b031615612c0a5760405162461bcd60e51b81526004016104d890614412565b6000818152600260205260409020546001600160a01b031615612c3f5760405162461bcd60e51b81526004016104d890614412565b6001600160a01b038216600081815260036020908152604080832080546001019055848352600290915280822080546001600160a01b0319168417905551839291907fddf252ad1be2c89b69c2b068fc378daa952ba7f163c4a11628f55a4df523b3ef908290a45050565b60006001600160a01b0384163b15612da057604051630a85bd0160e11b81526001600160a01b0385169063150b7a0290612cee903390899088908890600401614422565b6020604051808303816000875af1925050508015612d29575060408051601f3d908101601f19168201909252612d2691810190614471565b60015b612d86573d808015612d57576040519150601f19603f3d011682016040523d82523d6000602084013e612d5c565b606091505b508051600003612d7e5760405162461bcd60e51b81526004016104d89061438c565b805181602001fd5b6001600160e01b031916630a85bd0160e11b1490506128f7565b506001949350505050565b60606000612db883612e3e565b60010190506000816001600160401b03811115612dd757612dd7613452565b6040519080825280601f01601f191660200182016040528015612e01576020820181803683370190505b5090508181016020015b600019016f181899199a1a9b1b9c1cb0b131b232b360811b600a86061a8153600a8504945084612e0b575b509392505050565b60008072184f03e93ff9f4daa797ed6e38ed64bf6a1f0160401b8310612e7d5772184f03e93ff9f4daa797ed6e38ed64bf6a1f0160401b830492506040015b6d04ee2d6d415b85acef81000000008310612ea9576d04ee2d6d415b85acef8100000000830492506020015b662386f26fc100008310612ec757662386f26fc10000830492506010015b6305f5e1008310612edf576305f5e100830492506008015b6127108310612ef357612710830492506004015b60648310612f05576064830492506002015b600a83106103db5760010192915050565b604080516101608101825260008082526060602083015290918201908152602001606081526020016060815260200160608152602001606081526020016060815260200160006001600160a01b03168152602001612f87604051806040016040528060608152602001606081525090565b8152602001606081525090565b828054828255906000526020600020908101928215612fda579160200282015b82811115612fda5782518290612fca9082613fc0565b5091602001919060010190612fb4565b50612fe6929150613043565b5090565b828054828255906000526020600020908101928215613037579160200282015b828111156130375782518051613027918491602090910190612f94565b509160200191906001019061300a565b50612fe6929150613060565b80821115612fe6576000613057828261307d565b50600101613043565b80821115612fe657600061307482826130b7565b50600101613060565b50805461308990613c16565b6000825580601f10613099575050565b601f0160209004906000526020600020908101906123d891906130d5565b50805460008255906000526020600020908101906123d89190613043565b5b80821115612fe657600081556001016130d6565b6001600160e01b031981165b81146123d857600080fd5b80356103db816130ea565b60006020828403121561312157613121600080fd5b60006128f78484613101565b8015155b82525050565b602081016103db828461312d565b60005b83811015613160578181015183820152602001613148565b50506000910152565b6000613173825190565b80845260208401935061318a818560208601613145565b601f01601f19169290920192915050565b60208082528101612ba88184613169565b806130f6565b80356103db816131ac565b6000602082840312156131d2576131d2600080fd5b60006128f784846131b2565b60006001600160a01b0382166103db565b613131816131de565b602081016103db82846131ef565b6130f6816131de565b80356103db81613206565b6000806040838503121561323057613230600080fd5b600061323c858561320f565b925050602061324d858286016131b2565b9150509250929050565b80613131565b634e487b7160e01b600052602160045260246000fd5b600481106123d8576123d861325d565b8061328d81613273565b919050565b60006103db82613283565b61313181613292565b6000612ba88383613169565b60006132bc825190565b808452602084019350836020820285016132d68560200190565b8060005b8581101561330b57848403895281516132f385826132a6565b94506020830160209a909a01999250506001016132da565b5091979650505050505050565b805160408084526000919084019061333082826132b2565b9150506020830151848203602086015261334a82826132b2565b95945050505050565b6101208101613362828c613257565b8181036020830152613374818b613169565b9050613383604083018a61329d565b81810360608301526133958189613169565b905081810360808301526133a98188613169565b905081810360a08301526133bd8187613169565b905081810360c08301526133d18186613169565b90506133e060e08301856131ef565b8181036101008301526133f38184613318565b9b9a5050505050505050505050565b60008060006060848603121561341a5761341a600080fd5b6000613426868661320f565b93505060206134378682870161320f565b9250506040613448868287016131b2565b9150509250925092565b634e487b7160e01b600052604160045260246000fd5b601f19601f83011681018181106001600160401b038211171561348d5761348d613452565b6040525050565b600061349f60405190565b905061328d8282613468565b60006001600160401b038211156134c4576134c4613452565b601f19601f83011660200192915050565b82818337506000910152565b60006134f46134ef846134ab565b613494565b90508281526020810184848401111561350f5761350f600080fd5b612e368482856134d5565b600082601f83011261352e5761352e600080fd5b81356128f78482602086016134e1565b60006001600160401b0382111561355757613557613452565b5060209081020190565b600061356f6134ef8461353e565b8381529050602080820190840283018581111561358e5761358e600080fd5b835b818110156135ce5780356001600160401b038111156135b1576135b1600080fd5b8086016135be898261351a565b8552505060209283019201613590565b5050509392505050565b600082601f8301126135ec576135ec600080fd5b81356128f7848260208601613561565b600061360a6134ef8461353e565b8381529050602080820190840283018581111561362957613629600080fd5b835b818110156135ce5780356001600160401b0381111561364c5761364c600080fd5b80860161365989826135d8565b855250506020928301920161362b565b600082601f83011261367d5761367d600080fd5b81356128f78482602086016135fc565b600080600080600060a086880312156136a8576136a8600080fd5b85356001600160401b038111156136c1576136c1600080fd5b6136cd8882890161351a565b95505060208601356001600160401b038111156136ec576136ec600080fd5b6136f88882890161351a565b94505060408601356001600160401b0381111561371757613717600080fd5b6137238882890161351a565b93505060608601356001600160401b0381111561374257613742600080fd5b61374e88828901613669565b92505060808601356001600160401b0381111561376d5761376d600080fd5b6137798882890161351a565b9150509295509295909350565b6000612ba883836132b2565b600061379c825190565b808452602084019350836020820285016137b68560200190565b8060005b8581101561330b57848403895281516137d38582613786565b94506020830160209a909a01999250506001016137ba565b80516040808452600091908401906138038282613169565b9150506020830151848203602086015261334a8282613169565b6000612ba883836137eb565b6000613833825190565b8084526020840193508360208202850161384d8560200190565b8060005b8581101561330b578484038952815161386a858261381d565b94506020830160209a909a0199925050600101613851565b80516000906101608401906138978582613257565b50602083015184820360208601526138af8282613169565b91505060408301516138c4604086018261329d565b50606083015184820360608601526138dc8282613169565b915050608083015184820360808601526138f68282613169565b91505060a083015184820360a08601526139108282613169565b91505060c083015184820360c086015261392a8282613792565b91505060e083015184820360e08601526139448282613169565b91505061010083015161395b6101008601826131ef565b506101208301518482036101208601526139758282613318565b91505061014083015184820361014086015261334a8282613829565b6000612ba88383613882565b60006139a7825190565b808452602084019350836020820285016139c18560200190565b8060005b8581101561330b57848403895281516139de8582613991565b94506020830160209a909a01999250506001016139c5565b60208082528101612ba8818461399d565b60008060008060808587031215613a2057613a20600080fd5b84356001600160401b03811115613a3957613a39600080fd5b613a45878288016135d8565b94505060208501356001600160401b03811115613a6457613a64600080fd5b613a70878288016135d8565b9350506040613a81878288016131b2565b92505060608501356001600160401b03811115613aa057613aa0600080fd5b613aac8782880161351a565b91505092959194509250565b600060208284031215613acd57613acd600080fd5b60006128f7848461320f565b602081016103db8284613257565b8015156130f6565b80356103db81613ae7565b60008060408385031215613b1057613b10600080fd5b6000613b1c858561320f565b925050602061324d85828601613aef565b60008060008060808587031215613b4657613b46600080fd5b6000613b52878761320f565b9450506020613a708782880161320f565b6000613b6d825190565b80845260208401935083602082028501613b878560200190565b8060005b8581101561330b5784840389528151613ba48582613786565b94506020830160209a909a0199925050600101613b8b565b60208082528101612ba88184613b63565b60008060408385031215613be357613be3600080fd5b6000613bef858561320f565b925050602061324d8582860161320f565b634e487b7160e01b600052602260045260246000fd5b600281046001821680613c2a57607f821691505b602082108103613c3c57613c3c613c00565b50919050565b602181526000602082017f4552433732313a20617070726f76616c20746f2063757272656e74206f776e658152603960f91b602082015291505b5060400190565b602080825281016103db81613c42565b603d81526000602082017f4552433732313a20617070726f76652063616c6c6572206973206e6f7420746f81527f6b656e206f776e6572206f7220617070726f76656420666f7220616c6c00000060208201529150613c7c565b602080825281016103db81613c93565b60008154613d0a81613c16565b808552602085019450600182168015613d2a5760018114613d4057613d6e565b60ff198316865260208215150286019350613d6e565b60008581526020902060005b83811015613d6857815488820152600190910190602001613d4c565b87019450505b50505092915050565b6000612ba88383613cfd565b6000613d8d825490565b80845260208401935083602082028501613dad8560009081526020902090565b8060005b8581101561330b57848403895281613dc98582613d77565b60209a909a019994505060019182019101613db1565b6000612ba88383613d83565b6000613df5825490565b80845260208401935083602082028501613e158560009081526020902090565b8060005b8581101561330b57848403895281613e318582613ddf565b60209a909a019994505060019182019101613e19565b6101008101613e56828b613257565b613e63602083018a61329d565b8181036040830152613e758189613cfd565b90508181036060830152613e898188613cfd565b90508181036080830152613e9d8187613cfd565b905081810360a0830152613eb18186613deb565b905081810360c0830152613ec58185613cfd565b9050613ed460e08301846131ef565b9998505050505050505050565b634e487b7160e01b600052603260045260246000fd5b634e487b7160e01b600052601160045260246000fd5b60006000198203613f2057613f20613ef7565b5060010190565b60006103db613f338381565b90565b613f3f83613f27565b81546008840282811b60001990911b908116901990911617825550505050565b6000610523818484613f36565b8181101561155857613f7f600082613f5f565b600101613f6c565b601f821115610523576000818152602090206020601f85010481016020851015613fae5750805b6114bd6020601f860104830182613f6c565b81516001600160401b03811115613fd957613fd9613452565b613fe38254613c16565b613fee828285613f87565b6020601f831160018114614022576000841561400a5750858201515b600019600886021c198116600286021786555061407b565b600085815260208120601f198616915b828110156140525788850151825560209485019460019092019101614032565b8683101561406e5784890151600019601f89166008021c191682555b6001600288020188555050505b505050505050565b601881526000602082017f4552433732313a20696e76616c696420746f6b656e2049440000000000000000815291505b5060200190565b602080825281016103db81614083565b602981526000602082017f4552433732313a2061646472657373207a65726f206973206e6f7420612076618152683634b21037bbb732b960b91b60208201529150613c7c565b602080825281016103db816140ca565b600d81526000602082016c1058d8d95cdcc819195b9a5959609a1b815291506140b3565b602080825281016103db81614120565b602d81526000602082017f4552433732313a2063616c6c6572206973206e6f7420746f6b656e206f776e6581526c1c881bdc88185c1c1c9bdd9959609a1b60208201529150613c7c565b602080825281016103db81614154565b602e81526000602082017f45524337323155524953746f726167653a2055524920736574206f66206e6f6e81526d32bc34b9ba32b73a103a37b5b2b760911b60208201529150613c7c565b602080825281016103db816141ae565b601981526000602082017f4552433732313a20617070726f766520746f2063616c6c657200000000000000815291506140b3565b602080825281016103db81614209565b808201808211156103db576103db613ef7565b600061426a825190565b614278818560208601613145565b9290920192915050565b600061428e8285614260565b91506128f78284614260565b602581526000602082017f4552433732313a207472616e736665722066726f6d20696e636f72726563742081526437bbb732b960d91b60208201529150613c7c565b602080825281016103db8161429a565b602481526000602082017f4552433732313a207472616e7366657220746f20746865207a65726f206164648152637265737360e01b60208201529150613c7c565b602080825281016103db816142ec565b603281526000602082017f4552433732313a207472616e7366657220746f206e6f6e20455243373231526581527131b2b4bb32b91034b6b83632b6b2b73a32b960711b60208201529150613c7c565b602080825281016103db8161433d565b60208082527f4552433732313a206d696e7420746f20746865207a65726f2061646472657373910190815260006140b3565b602080825281016103db8161439c565b601c81526000602082017f4552433732313a20746f6b656e20616c7265616479206d696e74656400000000815291506140b3565b602080825281016103db816143de565b6080810161443082876131ef565b61443d60208301866131ef565b61444a6040830185613257565b818103606083015261445c8184613169565b9695505050505050565b80516103db816130ea565b60006020828403121561448657614486600080fd5b60006128f7848461446656fea26469706673582212203ec17a57320a29ecb02731f6ae6fac608c6c58ee85985ba65b29951769bb148464736f6c63430008110033",
	"devdoc": {
		"kind": "dev",
		"methods": {
			"approve(address,uint256)": {
				"details": "See {IERC721-approve}."
			},
			"balanceOf(address)": {
				"details": "See {IERC721-balanceOf}."
			},
			"getApproved(uint256)": {
				"details": "See {IERC721-getApproved}."
			},
			"isApprovedForAll(address,address)": {
				"details": "See {IERC721-isApprovedForAll}."
			},
			"name()": {
				"details": "See {IERC721Metadata-name}."
			},
			"ownerOf(uint256)": {
				"details": "See {IERC721-ownerOf}."
			},
			"setApprovalForAll(address,bool)": {
				"details": "See {IERC721-setApprovalForAll}."
			},
			"symbol()": {
				"details": "See {IERC721Metadata-symbol}."
			}
		},
		"title": "BIOrbit  NOTE: BIOrbit is a blockchain-based platform that enables monitoring and protection of Earth's natural resources  through satellite imagery and community engagement. Users can contribute to the platform by donating to monitor  protected areas and purchasing satellite images, ultimately fostering sustainable development and environmental conservation.",
		"version": 1
	},
	"userdoc": {
		"kind": "user",
		"methods": {},
		"version": 1
	},
	"storageLayout": {
		"storage": [
			{
				"astId": 53,
				"contract": "contracts/BIOrbit.sol:BIOrbit",
				"label": "_name",
				"offset": 0,
				"slot": "0",
				"type": "t_string_storage"
			},
			{
				"astId": 55,
				"contract": "contracts/BIOrbit.sol:BIOrbit",
				"label": "_symbol",
				"offset": 0,
				"slot": "1",
				"type": "t_string_storage"
			},
			{
				"astId": 59,
				"contract": "contracts/BIOrbit.sol:BIOrbit",
				"label": "_owners",
				"offset": 0,
				"slot": "2",
				"type": "t_mapping(t_uint256,t_address)"
			},
			{
				"astId": 63,
				"contract": "contracts/BIOrbit.sol:BIOrbit",
				"label": "_balances",
				"offset": 0,
				"slot": "3",
				"type": "t_mapping(t_address,t_uint256)"
			},
			{
				"astId": 67,
				"contract": "contracts/BIOrbit.sol:BIOrbit",
				"label": "_tokenApprovals",
				"offset": 0,
				"slot": "4",
				"type": "t_mapping(t_uint256,t_address)"
			},
			{
				"astId": 73,
				"contract": "contracts/BIOrbit.sol:BIOrbit",
				"label": "_operatorApprovals",
				"offset": 0,
				"slot": "5",
				"type": "t_mapping(t_address,t_mapping(t_address,t_bool))"
			},
			{
				"astId": 1104,
				"contract": "contracts/BIOrbit.sol:BIOrbit",
				"label": "_tokenURIs",
				"offset": 0,
				"slot": "6",
				"type": "t_mapping(t_uint256,t_string_storage)"
			},
			{
				"astId": 2950,
				"contract": "contracts/BIOrbit.sol:BIOrbit",
				"label": "projectIdCounter",
				"offset": 0,
				"slot": "7",
				"type": "t_struct(Counter)1629_storage"
			},
			{
				"astId": 3001,
				"contract": "contracts/BIOrbit.sol:BIOrbit",
				"label": "Projects",
				"offset": 0,
				"slot": "8",
				"type": "t_mapping(t_uint256,t_struct(Project)2996_storage)"
			}
		],
		"types": {
			"t_address": {
				"encoding": "inplace",
				"label": "address",
				"numberOfBytes": "20"
			},
			"t_array(t_array(t_string_storage)dyn_storage)dyn_storage": {
				"base": "t_array(t_string_storage)dyn_storage",
				"encoding": "dynamic_array",
				"label": "string[][]",
				"numberOfBytes": "32"
			},
			"t_array(t_string_storage)dyn_storage": {
				"base": "t_string_storage",
				"encoding": "dynamic_array",
				"label": "string[]",
				"numberOfBytes": "32"
			},
			"t_array(t_struct(Monitoring)2960_storage)dyn_storage": {
				"base": "t_struct(Monitoring)2960_storage",
				"encoding": "dynamic_array",
				"label": "struct BIOrbit.Monitoring[]",
				"numberOfBytes": "32"
			},
			"t_bool": {
				"encoding": "inplace",
				"label": "bool",
				"numberOfBytes": "1"
			},
			"t_enum(State)2955": {
				"encoding": "inplace",
				"label": "enum BIOrbit.State",
				"numberOfBytes": "1"
			},
			"t_mapping(t_address,t_bool)": {
				"encoding": "mapping",
				"key": "t_address",
				"label": "mapping(address => bool)",
				"numberOfBytes": "32",
				"value": "t_bool"
			},
			"t_mapping(t_address,t_mapping(t_address,t_bool))": {
				"encoding": "mapping",
				"key": "t_address",
				"label": "mapping(address => mapping(address => bool))",
				"numberOfBytes": "32",
				"value": "t_mapping(t_address,t_bool)"
			},
			"t_mapping(t_address,t_uint256)": {
				"encoding": "mapping",
				"key": "t_address",
				"label": "mapping(address => uint256)",
				"numberOfBytes": "32",
				"value": "t_uint256"
			},
			"t_mapping(t_uint256,t_address)": {
				"encoding": "mapping",
				"key": "t_uint256",
				"label": "mapping(uint256 => address)",
				"numberOfBytes": "32",
				"value": "t_address"
			},
			"t_mapping(t_uint256,t_string_storage)": {
				"encoding": "mapping",
				"key": "t_uint256",
				"label": "mapping(uint256 => string)",
				"numberOfBytes": "32",
				"value": "t_string_storage"
			},
			"t_mapping(t_uint256,t_struct(Project)2996_storage)": {
				"encoding": "mapping",
				"key": "t_uint256",
				"label": "mapping(uint256 => struct BIOrbit.Project)",
				"numberOfBytes": "32",
				"value": "t_struct(Project)2996_storage"
			},
			"t_string_storage": {
				"encoding": "bytes",
				"label": "string",
				"numberOfBytes": "32"
			},
			"t_struct(Counter)1629_storage": {
				"encoding": "inplace",
				"label": "struct Counters.Counter",
				"members": [
					{
						"astId": 1628,
						"contract": "contracts/BIOrbit.sol:BIOrbit",
						"label": "_value",
						"offset": 0,
						"slot": "0",
						"type": "t_uint256"
					}
				],
				"numberOfBytes": "32"
			},
			"t_struct(ImageTimeSeries)2967_storage": {
				"encoding": "inplace",
				"label": "struct BIOrbit.ImageTimeSeries",
				"members": [
					{
						"astId": 2963,
						"contract": "contracts/BIOrbit.sol:BIOrbit",
						"label": "detectionDate",
						"offset": 0,
						"slot": "0",
						"type": "t_array(t_string_storage)dyn_storage"
					},
					{
						"astId": 2966,
						"contract": "contracts/BIOrbit.sol:BIOrbit",
						"label": "forestCoverExtension",
						"offset": 0,
						"slot": "1",
						"type": "t_array(t_string_storage)dyn_storage"
					}
				],
				"numberOfBytes": "64"
			},
			"t_struct(Monitoring)2960_storage": {
				"encoding": "inplace",
				"label": "struct BIOrbit.Monitoring",
				"members": [
					{
						"astId": 2957,
						"contract": "contracts/BIOrbit.sol:BIOrbit",
						"label": "detectionDate",
						"offset": 0,
						"slot": "0",
						"type": "t_string_storage"
					},
					{
						"astId": 2959,
						"contract": "contracts/BIOrbit.sol:BIOrbit",
						"label": "forestCoverExtension",
						"offset": 0,
						"slot": "1",
						"type": "t_string_storage"
					}
				],
				"numberOfBytes": "64"
			},
			"t_struct(Project)2996_storage": {
				"encoding": "inplace",
				"label": "struct BIOrbit.Project",
				"members": [
					{
						"astId": 2969,
						"contract": "contracts/BIOrbit.sol:BIOrbit",
						"label": "id",
						"offset": 0,
						"slot": "0",
						"type": "t_uint256"
					},
					{
						"astId": 2971,
						"contract": "contracts/BIOrbit.sol:BIOrbit",
						"label": "uri",
						"offset": 0,
						"slot": "1",
						"type": "t_string_storage"
					},
					{
						"astId": 2974,
						"contract": "contracts/BIOrbit.sol:BIOrbit",
						"label": "state",
						"offset": 0,
						"slot": "2",
						"type": "t_enum(State)2955"
					},
					{
						"astId": 2976,
						"contract": "contracts/BIOrbit.sol:BIOrbit",
						"label": "name",
						"offset": 0,
						"slot": "3",
						"type": "t_string_storage"
					},
					{
						"astId": 2978,
						"contract": "contracts/BIOrbit.sol:BIOrbit",
						"label": "description",
						"offset": 0,
						"slot": "4",
						"type": "t_string_storage"
					},
					{
						"astId": 2980,
						"contract": "contracts/BIOrbit.sol:BIOrbit",
						"label": "extension",
						"offset": 0,
						"slot": "5",
						"type": "t_string_storage"
					},
					{
						"astId": 2984,
						"contract": "contracts/BIOrbit.sol:BIOrbit",
						"label": "footprint",
						"offset": 0,
						"slot": "6",
						"type": "t_array(t_array(t_string_storage)dyn_storage)dyn_storage"
					},
					{
						"astId": 2986,
						"contract": "contracts/BIOrbit.sol:BIOrbit",
						"label": "country",
						"offset": 0,
						"slot": "7",
						"type": "t_string_storage"
					},
					{
						"astId": 2988,
						"contract": "contracts/BIOrbit.sol:BIOrbit",
						"label": "owner",
						"offset": 0,
						"slot": "8",
						"type": "t_address"
					},
					{
						"astId": 2991,
						"contract": "contracts/BIOrbit.sol:BIOrbit",
						"label": "imageTimeSeries",
						"offset": 0,
						"slot": "9",
						"type": "t_struct(ImageTimeSeries)2967_storage"
					},
					{
						"astId": 2995,
						"contract": "contracts/BIOrbit.sol:BIOrbit",
						"label": "monitoring",
						"offset": 0,
						"slot": "11",
						"type": "t_array(t_struct(Monitoring)2960_storage)dyn_storage"
					}
				],
				"numberOfBytes": "384"
			},
			"t_uint256": {
				"encoding": "inplace",
				"label": "uint256",
				"numberOfBytes": "32"
			}
		}
	}
}